:100000000C942A000C9447000C9447000C94470071
:100010000C9447000C9447000C9447000C94470044
:100020000C9447000C9424030C9447000C94470054
:100030000C9447000C948A040C9447000C942F04F1
:100040000C9448060C9447000C9447000C9438021A
:100050000C94470011241FBECFE5D8E0DEBFCDBF12
:1000600011E0A0E6B0E0E6E1FEE202C005900D92EC
:10007000AA36B107D9F712E0AAE6B1E001C01D9295
:10008000AB33B107E1F70E94970C0C9409170C945D
:10009000000080E48093DC018FEB88BB1092DF01CD
:1000A0001092DE011092E1011092E0011092E30142
:1000B0001092E2011092FD011092C50110923002DF
:1000C00008958091D601882321F08091DC01806120
:1000D00003C08091DC018F7E8093DC018091FE0162
:1000E000882321F08091DC01846003C08091DC01D1
:1000F0008B7F8093DC01089580E88093DC018FE79B
:1001000088BB1092DF011092DE011092E101109283
:10011000E0011092E3011092E2011092FD011092B1
:10012000C501109230021092D6011092FE0108957E
:100130001092C5011092FD01109230020E944900F8
:100140000E947C00089580913002882339F08091CC
:10015000DD0181FD03C082608093DD018091DE01BD
:100160009091DF01009711F101969093DF01809348
:10017000DE0180549F4148F18091DC0181FF0AC07B
:100180008D7F8093DC0181E090E09093DF0180938C
:10019000DE0108951092DF011092DE01109230020C
:1001A0008091DD018D7F8093DD0108958091DD01D7
:1001B00081FF0BC08091DC0182608093DC0181E0D3
:1001C00090E09093DF018093DE0108958091C50156
:1001D000882339F08091DD0185FD03C08062809322
:1001E000DD018091E0019091E101009711F101960C
:1001F0009093E1018093E0018051974248F1809112
:10020000DC0185FF0AC08F7D8093DC0181E090E0F6
:100210009093E1018093E00108951092E101109222
:10022000E0011092C5018091DD018F7D8093DD0199
:1002300008958091DD0185FF0BC08091DC01806213
:100240008093DC0181E090E09093E1018093E001F4
:1002500008958091FD01882339F08091DD0183FDAF
:1002600003C088608093DD018091E2019091E301F9
:10027000009711F101969093E3018093E201805180
:10028000974248F18091DC0183FF0AC0877F809309
:10029000DC0181E090E09093E3018093E201089516
:1002A0001092E3011092E2011092FD018091DD01B4
:1002B000877F8093DD0108958091DD0183FF0BC06E
:1002C0008091DC0188608093DC0181E090E0909374
:1002D000E3018093E20108950E94A3000E94E600DA
:1002E0000E9429010E9461008091DC018068809356
:1002F000DC01809588BB089581B1887F8093DB0104
:100300008091DB01883209F43FC0893288F4803162
:1003100001F1813138F4882309F4A0C0883009F054
:10032000A3C026C0883141F1803209F09DC028C0A9
:100330008034F1F1813438F4803309F495C0883386
:1003400009F092C08BC08035A9F1883509F08CC0C6
:1003500085C08091EA01882359F01092EA018091CA
:10036000EC01823011F483EE01C081EE8093E5014F
:100370008091E50183B970C08091E60183B918C00E
:1003800081E08093ED0168C08091E801882331F01D
:100390008091E70183B91092E8015EC08091E90184
:1003A000882309F45BC081E08093EA0185EA5AC0A2
:1003B00085EC58C080919B018230A1F48091E901C5
:1003C000882381F08091EC01823021F483B1809305
:1003D000F10142C08091EC018130F1F583B180934D
:1003E000EF013AC080919B018330B1F58091E90122
:1003F000882391F18091EC018230B1F483B1809334
:10040000F0018091F0018F3F51F08091F1018F3028
:1004100031F081E080939C018093D6011DC0109241
:100420009C011092D60118C09091EC019130A1F47A
:1004300083B18093EE018091EE018F3F49F080916E
:10044000EF018F3029F0909326029093FE0104C0B3
:10045000109226021092FE0185E804C081E080938C
:10046000ED0184E986BF089581E08093ED01089550
:100470001F920F920FB60F9211242F933F934F9319
:100480005F936F937F938F939F93AF93BF93EF93FC
:10049000FF930E947C01FF91EF91BF91AF919F91DB
:1004A0008F917F916F915F914F913F912F910F901D
:1004B0000FBE0F901F9018959091EB01913009F0AD
:1004C0004DC09093E80180919B018130C9F081304B
:1004D00028F08230F1F0833071F52BC082EE8093EA
:1004E000E50182E08093E6018091E4018093E701D9
:1004F00080919B018F5F80939B0185EA86BF2EC010
:1005000080EE8093E50182E08093E6018091E40132
:1005100006C082EE8093E5019093E6018AE0809325
:10052000E70185EA86BF80919B018F5F80939B01E5
:1005300015C080EEEFCF10929B011092E80110924F
:10054000EB019093E90182EE8093E5011092CE01D8
:100550009093ED019093EC011092E8018091E901F4
:10056000882309F467C08091CE018A30B8F0809169
:10057000EC01823031F481E08093EC018093C5017D
:1005800006C082E08093EC0181E08093FD0110922F
:100590009B011092CE0181E08093ED0180919B013F
:1005A000813001F1813018F08230E1F526C0809170
:1005B000EC01823011F480EE01C082EE8093E501FF
:1005C0001092E60191E09093E80181E58093E701C4
:1005D00080919B018F5F80939B0185EA86BF9093FA
:1005E000E90108958091EC01823011F482EE01C09E
:1005F00080EE8093E50182E006C08091E5018E7F68
:100600008093E50183E08093E6011092E80185EA9A
:1006100086BF80919B018F5F80939B0181E08093D7
:10062000E901089583E080939B0181E08093ED01CF
:100630008093E90108958091ED01882321F01092C3
:10064000ED010E945C0208951F920F920FB60F9267
:1006500011248F9381E080932D028F910F900FBE14
:100660000F901F90189582EA8FBD8AE18EBD80E1C0
:1006700097E297BD86BD89B7846089BF1BBC1ABC51
:1006800019BC18BC1092CB0110922D0210922C02B2
:1006900008958CEC80932F0280912F0282BB84E618
:1006A0008093F5011092F60180E090E0A0E0B0E0C8
:1006B0008093930190939401A0939501B093960138
:1006C0008093970190939801A0939901B0939A0118
:1006D0008093310290933202A0933302B09334029C
:1006E0008093D7019093D801A093D901B093DA01F8
:1006F00080938F0190939001A0939101B093920108
:1007000080938B0190938C01A0938D01B0938E0107
:100710001BBC1ABC19BC18BC08958091CF019091E4
:10072000D0011816190624F484E080932F021DC00E
:100730008091CF019091D00197FF0FC088E0809306
:100740002F028091CF019091D001909581959F4F7C
:100750009093D0018093CF0108C08091CF019091F8
:10076000D001892B11F410922F028091D101909128
:10077000D2011816190624F480912F02806409C052
:100780008091D1019091D20197FF06C080912F02F4
:10079000806880932F0208958091D1019091D201B9
:1007A000892BA9F480912F02882311F48CEC02C0CC
:1007B00080912F0280932F028091D1019091D201DC
:1007C000909581959F4F9093D2018093D101089588
:1007D00080912602813021F080919C01813031F49A
:1007E0001BBC1ABC19BC18BC8CEC0EC08091CF018C
:1007F0009091D0019BBD8ABD8091D1019091D20191
:1008000099BD88BD80912F0282BB0895609131020D
:1008100070913202809133029091340220E030E4F2
:100820004CE156E40E9431110E94F5137093D001FF
:100830006093CF016091D7017091D8018091D90167
:100840009091DA0120E030E44CE156E40E9431114D
:100850000E94F5137093D2016093D10108951F9205
:100860000F920FB60F9211248F9381E0809328028C
:100870008F910F900FBE0F901F90189586E880BD46
:1008800088ED8AB910BC87E689B910926A0181E0C7
:100890008093280210923A02109227021092F301DC
:1008A0001092F4011092F801089580916A0181304C
:1008B000E1F0813018F0823061F51FC0809125028F
:1008C000813F11F481E016C08091F801823019F463
:1008D0001092F801089580912502803FD1F4109282
:1008E0006A0181E08093F801089580912502809348
:1008F000F50182E080936A0108958091250280933A
:10090000F60183E080936A0181E08093270280935F
:10091000300208951F920F920FB60F9211242F9359
:100920003F934F935F936F937F938F939F93AF9377
:10093000BF93EF93FF938CB1809325020E945504DF
:1009400080916000813039F4809128028823E1F39E
:10095000809125028CB981E080933A02FF91EF915A
:10096000BF91AF919F918F917F916F915F914F91C7
:100970003F912F910F900FBE0F901F901895482F09
:1009800010926000809128028823E1F310922802DF
:100990008EEF8CB9242F392FC901FC0190E00AC0D9
:1009A0002081809128028823E1F3109228022CB93B
:1009B0009F5F31969617A0F3809128028823E1F378
:1009C000109228028FEF8CB981E080936000089527
:1009D000982F809128028823E1F3109228029CB975
:1009E000089580912702813009F04AC0A89590911E
:1009F000F3018091F5019817F9F08091F50180934A
:100A0000F3016091F30170E080E090E00E944914EE
:100A100020E030E048EC52E40E94D31020E030E0C7
:100A200048EC52E40E942B1260938F017093900166
:100A300080939101909392019091F4018091F6013D
:100A40009817D9F08091F6018093F4016091F40138
:100A500070E0882777FD8095982F0E94971326E3F2
:100A60003AEF4EE05DE30E94311160938B01709389
:100A70008C0180938D0190938E011092270208952E
:100A80008091F8018823B9F0A89584E68093F3015A
:100A90001092F4018093F50180E090E0A0E0B0E0D6
:100AA00080938F0190939001A0939101B093920154
:100AB00082E08093F80108958091CC018823E1F3CE
:100AC0001092CC018091CC018823E1F31092CC01EB
:100AD0008091CC018823E1F38091CC018823E1F35C
:100AE0001092CC0108958091CC018130E1F381E036
:100AF0008093CC010895EF92FF920F931F9310BE45
:100B00001092F2018091F20187B98FEE86B91092AE
:100B10002C02109238021092370210923602109274
:100B20003502109200021092FF010F2EF0E0EF2E1E
:100B3000F0ECFF2EFFE70F2FF4E41F2FF02DE092D3
:100B40000102F0920202009303021093040220E0DB
:100B500030EC4FE754EC20930502309306024093AB
:100B600007025093080280E090E0A0E0B0E080939C
:100B7000090290930A02A0930B02B0930C02809397
:100B80000D0290930E02A0930F02B0931002E09218
:100B90009D01F0929E0100939F011093A00120936C
:100BA000A1013093A2014093A3015093A40180932B
:100BB000A5019093A601A093A701B093A8018093EB
:100BC000A9019093AA01A093AB01B093AC0110923C
:100BD00039021F910F91FF90EF9008958091F201DB
:100BE0008823E9F481E08093F20187B98091FF01C5
:100BF0009091000224B1820F911D90930002809386
:100C0000FF014091FF015091000225B1922F80E039
:100C1000840F951F909300028093FF0108958091A7
:100C2000F201813021F51092F20117B8809135025E
:100C30009091360224B1820F911D909336028093D9
:100C40003502409135025091360225B1922F80E055
:100C5000840F951F9093360280933502809137025E
:100C6000909138020196909338028093370208954C
:100C700080913902882311F40E94EE058091370299
:100C8000909138020C9719F481E08093390208950D
:100C90001F920F920FB60F9211242F933F934F93F1
:100CA0005F936F937F938F939F93AF93BF93EF93D4
:100CB000FF938091CC01882311F40E943806FF91A4
:100CC000EF91BF91AF919F918F917F916F915F91C4
:100CD0004F913F912F910F900FBE0F901F9018953D
:100CE0006F927F928F929F92AF92BF92CF92DF923C
:100CF000EF92FF920F931F938091FF01909100025A
:100D00006CE070E00E94B71680E090E00E94491409
:100D10006093930170939401809395019093960151
:100D200080913502909136026CE070E00E94B71617
:100D300080E090E00E9449146093970170939801BD
:100D40008093990190939A01CA9B59C08091930115
:100D500090919401A0919501B0919601B058809323
:100D6000930190939401A0939501B09396016091A3
:100D700093017091940180919501909196016090FA
:100D80000D0270900E0280900F0290901002A4014C
:100D900093010E94371388230CF089C0609193015E
:100DA000709194018091950190919601A090050217
:100DB000B0900602C0900702D0900802A6019501EB
:100DC0000E943713882344F4A0929301B0929401B7
:100DD000C0929501D0929601609193017091940117
:100DE0008091950190919601A40193010E94D310E6
:100DF0007B018C0117FB109517F9109543C060918A
:100E00009301709194018091950190919601609069
:100E1000090270900A0280900B0290900C02A401CB
:100E200093010E94D71218160CF041C060919301F3
:100E3000709194018091950190919601A09001028A
:100E4000B0900202C0900302D0900402A601950166
:100E50000E94D712181644F4A0929301B092940104
:100E6000C0929501D0929601609193017091940186
:100E70008091950190919601A40193010E94D31055
:100E80007B018C01C601B501A40193010E94D3101E
:100E90009B01AC01C801B7010E942B126093930122
:100EA0007093940180939501909396010CC080E01B
:100EB00090E0A0E0B0E08093930190939401A09320
:100EC0009501B0939601CB9B69C080919701909159
:100ED0009801A0919901B0919A01B058809397011F
:100EE00090939801A0939901B0939A016091970112
:100EF000709198018091990190919A01A090A90117
:100F0000B090AA01C090AB01D090AC01A6019501B0
:100F10000E94371388230CF099C06091970170915B
:100F200098018091990190919A0120910502309148
:100F3000060240910702509108020E94371388234D
:100F400084F48091A1019091A201A091A301B0919C
:100F5000A4018093970190939801A0939901B09375
:100F60009A016091970170919801809199019091F7
:100F70009A01A60195010E94D3107B018C0117FBF9
:100F8000109517F910956091A1017091A2018091BF
:100F9000A3019091A401A601950147C0609197011A
:100FA000709198018091990190919A016090A501AA
:100FB0007090A6018090A7019090A801A4019301D0
:100FC0000E94D71218160CF041C0609197017091E1
:100FD00098018091990190919A01A0909D01B09003
:100FE0009E01C0909F01D090A001A60195010E9492
:100FF000D712181644F4A0929701B0929801C092AB
:101000009901D0929A016091970170919801809115
:10101000990190919A01A40193010E94D3107B0140
:101020008C01C601B501A40193010E94D3109B015C
:10103000AC01C801B7010E942B1260939701709315
:1010400098018093990190939A010CC080E090E000
:10105000A0E0B0E08093970190939801A09399014C
:10106000B0939A011092360210923502109200024B
:101070001092FF01109238021092370281E08093A3
:10108000CC011F910F91FF90EF90DF90CF90BF9018
:10109000AF909F908F907F906F9008951F931091C5
:1010A0003902113031F40E94700610923902109307
:1010B0002D021F910895EF92FF920F931F9380E0EE
:1010C00090E0A0E0B0E08093C1019093C201A093B2
:1010D000C301B093C40181E080932C021ABC1BBCF5
:1010E00018BC19BC84E082BB80E18BBB1092D30199
:1010F0001092F70125C0809139028823E1F30E9404
:1011000070066091C1017091C2018091C3019091FC
:10111000C401209193013091940140919501509127
:1011200096010E9404116093C1017093C2018093E3
:10113000C3019093C4018091F7018F5F8093F70101
:101140008091F7018931B8F26091C1017091C201BB
:101150008091C3019091C40120E030EC4FE754E44A
:101160000E94311120E030E048EC51E40E942B1243
:1011700060931102709312028093130290931402F1
:1011800080E090E0A0E0B0E08093C1019093C201C4
:10119000A093C301B093C40184E082BB1BBA109238
:1011A000F70125C0809139028823E1F30E9470067F
:1011B0006091C1017091C2018091C3019091C401FD
:1011C00020919301309194014091950150919601A5
:1011D0000E9404116093C1017093C2018093C30106
:1011E0009093C4018091F7018F5F8093F701809104
:1011F000F7018931B8F26091C1017091C20180910B
:10120000C3019091C40120E030EC4FE754E40E9408
:10121000311120E030E048EC51E40E942B12609341
:10122000190270931A0280931B0290931C0280E0B3
:1012300090E0A0E0B0E08093C1019093C201A09340
:10124000C301B093C40188E082BB80E18BBB1092E4
:10125000F70125C0809139028823E1F30E947006CE
:101260006091C1017091C2018091C3019091C4014C
:1012700020919301309194014091950150919601F4
:101280000E9404116093C1017093C2018093C30155
:101290009093C4018091F7018F5F8093F701809153
:1012A000F7018931B8F26091C1017091C20180915A
:1012B000C3019091C40120E030EC4FE754E40E9458
:1012C000311120E030E048EC51E40E942B12609391
:1012D000150270931602809317029093180280E013
:1012E00090E0A0E0B0E08093C1019093C201A09390
:1012F000C301B093C40188E082BB1BBA1092F7010E
:1013000025C0809139028823E1F30E947006609124
:10131000C1017091C2018091C3019091C4012091DB
:1013200093013091940140919501509196010E9452
:1013300004116093C1017093C2018093C301909323
:10134000C4018091F7018F5F8093F7018091F701CD
:101350008931B8F26091C1017091C2018091C301DD
:101360009091C40120E030EC4FE754E40E94311129
:1013700020E030E048EC51E40E942B1260931D0203
:1013800070931E0280931F029093200280E090E0F1
:10139000A0E0B0E08093C1019093C201A093C3018B
:1013A000B093C40120E422BB20E12BBB8093C10198
:1013B0009093C201A093C301B093C4011092F701AE
:1013C00025C0809139028823E1F30E947006609164
:1013D000C1017091C2018091C3019091C40120911B
:1013E0009701309198014091990150919A010E9482
:1013F00004116093C1017093C2018093C301909363
:10140000C4018091F7018F5F8093F7018091F7010C
:101410008931B8F26091C1017091C2018091C3011C
:101420009091C40120E030EC4FE754E40E94311168
:1014300020E030E048EC51E40E942B126093AD01B3
:101440007093AE018093AF019093B00180E090E083
:10145000A0E0B0E08093C1019093C201A093C301CA
:10146000B093C40180E482BB1BBA1092F70125C07F
:10147000809139028823E1F30E9470066091C101D6
:101480007091C2018091C3019091C4012091970194
:10149000309198014091990150919A010E94041154
:1014A0006093C1017093C2018093C3019093C40102
:1014B0008091F7018F5F8093F7018091F701893167
:1014C000B8F26091C1017091C2018091C301909105
:1014D000C40120E030EC4FE754E40E94311120E0D9
:1014E00030E048EC51E40E942B126093B5017093F8
:1014F000B6018093B7019093B80180E090E0A0E03E
:10150000B0E08093C1019093C201A093C301B09356
:10151000C40180E882BB80E18BBB1092F70125C03B
:10152000809139028823E1F30E9470066091C10125
:101530007091C2018091C3019091C40120919701E3
:10154000309198014091990150919A010E940411A3
:101550006093C1017093C2018093C3019093C40151
:101560008091F7018F5F8093F7018091F7018931B6
:10157000B8F26091C1017091C2018091C301909154
:10158000C40120E030EC4FE754E40E94311120E028
:1015900030E048EC51E40E942B126093B10170934B
:1015A000B2018093B3019093B40180E090E0A0E099
:1015B000B0E08093C1019093C201A093C301B093A6
:1015C000C40180E882BB1BBA1092F70125C080914C
:1015D00039028823E1F30E9470066091C101709185
:1015E000C2018091C3019091C40120919701309173
:1015F00098014091990150919A010E9404116093C1
:10160000C1017093C2018093C3019093C401809182
:10161000F7018F5F8093F7018091F7018931B8F26C
:101620006091C1017091C2018091C3019091C40188
:1016300020E030EC4FE754E40E94311120E030E02C
:1016400048EC51E40E942B12DC019B01AC01209379
:10165000B9013093BA014093BB015093BC0120E023
:1016600030E040E050E02093C1013093C20140934C
:10167000C3015093C401E0901102F0901202009156
:10168000130210911402E0920102F0920202009300
:101690000302109304022091190230911A02409122
:1016A0001B0250911C022093090230930A024093BE
:1016B0000B0250930C0220911502309116024091BA
:1016C00017025091180220930502309306024093AE
:1016D00007025093080220911D0230911E02409192
:1016E0001F025091200220930D0230930E0240936E
:1016F0000F02509310022091AD013091AE01409144
:10170000AF015091B00120939D0130939E01409311
:101710009F015093A0012091B5013091B6014091F5
:10172000B7015091B8012093A5013093A6014093D1
:10173000A7015093A8012091B1013091B2014091CD
:10174000B3015091B4012093A1013093A2014093C1
:10175000A3015093A401CB018093A9019093AA0106
:10176000A093AB01B093AC01C801B70120E030E019
:1017700048EC51E40E94D71218166CF4C801B70166
:1017800020E030E048E452E40E94371388231CF440
:101790008EE088BBFFCF10922C0212BA1F910F91DE
:1017A000FF90EF9008958091CC018823E1F310928F
:1017B000CC018091CC018823E1F308958FEF87BBA2
:1017C0008EEF81BB80E18ABB10922E0208958CE1DE
:1017D00081BD08958F929F92AF92BF92CF92DF9278
:1017E000EF92FF920F931F93E0909301F09094017A
:1017F0000091950110919601A0909701B0909801E9
:10180000C0909901D0909A0100D060918F017091A1
:101810009001809191019091920120918B013091E2
:101820008C0140918D0150918E01E7EDF1E0ADB753
:10183000BEB71296FC93EE931197E1E38E2EE2E091
:101840009E2E0E94C20C0F900F900E9406040E94D0
:101850008D030E94E8031092CC011F910F91FF901D
:10186000EF90DF90CF90BF90AF909F908F900895B2
:1018700080912D02813069F48091CE018B3028F463
:101880008091CE018F5F8093CE010E94EA0B10926F
:101890002D02089524EE31E0C90160E070E04EE0D1
:1018A00050E00E94021710929B0181E08093EB01AF
:1018B0008093ED011092260210929C011092CE01AD
:1018C0001092EC018EE28093E4010895CE990CC051
:1018D00081E080932E0218BACE9BFECF0E947C003E
:1018E0008CE181BD0E944A0CCF990AC010922E0251
:1018F0001BBC1ABC19BC18BC18BACF9BFECFA8954C
:10190000089524EE31E0C90160E070E04EE050E05F
:101910000E94021781E08093EB018093ED01109209
:10192000CE0110929B0181B986EC80B908958FEFAA
:1019300087BB8EEF81BB80E18ABB10922E020E9492
:101940003E0478940E947B050E9433030E94810C20
:101950000E94660C80912E02813059F40E94F1049D
:101960000E944E080E94380C0E941B030E946C01CA
:1019700002C00E94490080916A01833049F71092A9
:101980006A01E6CF2F923F924F925F926F927F92C1
:101990008F929F92AF92BF92CF92DF92EF92FF927F
:1019A0000F931F93DF93CF93CDB7DEB760970FB63A
:1019B000F894DEBF0FBECDBF6F83788789879A8783
:1019C0002B873C874D875E8727013801988A8F8651
:1019D000C801B70120E030E040E85FE30E94D71281
:1019E00018165CF40F2EF0E04F2EF0E05F2EF0E8BA
:1019F0006F2EFFE37F2EF02D14C0C801B70120E049
:101A000030E040E85FEB0E943713882354F40F2E38
:101A1000F0E04F2EF0E05F2EF0E86F2EFFEB7F2E10
:101A2000F02DC601B50120E030E040E85FE30E9400
:101A3000D71218165CF40F2EF0E0AF2EF0E0BF2E98
:101A4000F0E8CF2EFFE3DF2EF02D14C0C601B50164
:101A500020E030E040E85FEB0E943713882354F425
:101A60000F2EF0E0AF2EF0E0BF2EF0E8CF2EFFEB10
:101A7000DF2EF02DE0907F01F09080010091810138
:101A800010918201E0927B01F0927C0100937D0134
:101A900010937E01C601B501A30192010E94D310EB
:101AA0002AE132E646E850E40E9431116B837C83E0
:101AB0008D839E8360937F01709380018093810169
:101AC00090938201C601B501A30192010E94041105
:101AD00020E030E040E05FE30E9431113B014C0127
:101AE00060937701709378018093790190937A01E4
:101AF0006B817C818D819E81A80197010E940411D8
:101B00002AE037ED43E25BE30E9431112091870127
:101B1000309188014091890150918A010E940411FD
:101B20007B018C012BED3FE049EC50E40E94D71281
:101B300018164CF4C801B7012BED3FE049EC50E416
:101B40000E94D31012C0C801B70120E030E040E08D
:101B500050E00E943713882354F4C801B7012BEDDD
:101B60003FE049EC50E40E9404117B018C01E092BB
:101B70008701F09288010093890110938A01C801BE
:101B8000B7012BED3FE049E450E40E9404119B01B2
:101B9000AC016B857C858D859E850E94071388230B
:101BA0005CF06B857C858D859E852BED3FE049EC57
:101BB00050E40E94D3101CC0C801B7012BED3FE0D8
:101BC00049E450E40E94D3109B01AC016B857C85F5
:101BD0008D859E850E946713181674F06B857C8531
:101BE0008D859E852BED3FE049EC50E40E94041169
:101BF0006B877C878D879E876B857C858D859E8591
:101C0000A80197010E94D3105B016C0160938301CE
:101C1000709384018093850190938601C401B30180
:101C200028EE31EB49E750EC0E9431117B018C0129
:101C30006F81788589859A8524EF38ED4CE950E4E9
:101C40000E9431119B01AC01C801B7010E9404112F
:101C50003B014C01C601B50121E237EA44E95FE3EB
:101C60000E9431117B018C016B817C818D819E8171
:101C700028E137EA44E15FEB0E9431119B01AC019E
:101C8000C801B7010E9404115B016C0120E030E043
:101C900040E050E00E94071387FF03C00FEF1FEFE3
:101CA00002C001E010E010936E0100936D01C401C9
:101CB000B30120E030E040E050E00E94071387FFCE
:101CC00005C02FEF3FEF3A83298304C081E090E005
:101CD0009A838983A981BA81B0936C01A0936B0127
:101CE000B801882777FD8095982F0E9497131B01D4
:101CF0002C01A60195010E9431117B018C0120E08D
:101D000030E040E85FE30E94D71218161CF462012D
:101D1000510114C0C801B7012DEC3CEC4CE45DE36B
:101D20000E946713181654F00F2EF0E0AF2EF0E06B
:101D3000BF2EF0E0CF2EF0E0DF2EF02DA0926F014D
:101D4000B0927001C0927101D0927201E981FA8162
:101D5000BF01882777FD8095982F0E9497137B01FC
:101D60008C01A40193010E94311120E030E040E891
:101D70005FE30E94D712181614F437014801C2011C
:101D8000B101A60195010E9431119B01AC0160E0F7
:101D900070E080E89FE30E94D3101B012C01C80172
:101DA000B701A40193010E943111A20191010E9487
:101DB000D712181644F4C801B701A20191010E947C
:101DC00031113B014C016092730170927401809259
:101DD000750190927601C401B301A60195010E949C
:101DE0000411ADA1BEA16D937D938D939C93139728
:101DF000C401B301A60195010E94D310EF85F889B3
:101E00006083718382839383ADA1BEA1ED90FD9029
:101E10000D911C91C801B70124EA30E74DE75FE35B
:101E20000E94D71218165CF40F2EF4EAEF2EF0E79A
:101E3000FF2EFDE70F2FFFE31F2FF02D14C0C80169
:101E4000B70124EA30E74DE75FEB0E9437138823A0
:101E500054F40F2EF4EAEF2EF0E7FF2EFDE70F2FDC
:101E6000FFEB1F2FF02DEDA1FEA1E082F182028396
:101E70001383AF85B889ED90FD900D911C91C80139
:101E8000B70124EA30E74DE75FE30E94D712181646
:101E90005CF40F2EF4EAEF2EF0E7FF2EFDE70F2F94
:101EA000FFE31F2FF02D14C0C801B70124EA30E76B
:101EB0004DE75FEB0E943713882354F40F2EF4EAAA
:101EC000EF2EF0E7FF2EFDE70F2FFFEB1F2FF02D7A
:101ED000EF85F889E082F1820283138360960FB662
:101EE000F894DEBF0FBECDBFCF91DF911F910F9150
:101EF000FF90EF90DF90CF90BF90AF909F908F902A
:101F00007F906F905F904F903F902F900895A0E04A
:101F1000B0E0EDE8FFE00C94CB16DC012B01FA01F8
:101F20009C91923008F439C1EB018881823008F429
:101F300033C1943069F4843009F02FC111969C911B
:101F400011978981981709F428C1A1E6B0E025C14D
:101F5000843009F421C18230A9F4923009F01DC106
:101F60009A01AD0188E0EA010990AE01E901099208
:101F70009E018150C1F7E201898111969C918923CC
:101F8000818308C1923009F407C112962D903C90CC
:101F90001397EB018A819B811496AD90BD90CD90F3
:101FA000DC901797EC80FD800E811F819101281B2A
:101FB000390BB90137FF04C066277727621B730B03
:101FC000603271050CF061C0121613066CF5370112
:101FD0004801062E04C096948794779467940A94D7
:101FE000D2F721E030E040E050E004C0220F331F80
:101FF000441F551F6A95D2F7215030404040504051
:102000002E213F2140235123211531054105510542
:1020100021F021E030E040E050E079018A01E6283B
:10202000F728082919293CC0232BD1F1260E371E89
:1020300035014601062E04C09694879477946794E0
:102040000A94D2F721E030E040E050E004C0220FD3
:10205000331F441F551F6A95D2F72150304040402E
:1020600050402A213B214C215D212115310541059C
:10207000510521F021E030E040E050E059016A01D3
:10208000A628B728C828D9280BC0821593052CF09C
:102090001C01AA24BB24650103C0EE24FF24870190
:1020A00011969C91D20111968C91981709F445C014
:1020B000992339F0A80197012A193B094C095D09B8
:1020C00006C0A60195012E193F09400B510B57FD83
:1020D00008C011823382228224833583468357834A
:1020E0001DC081E081833382228288279927DC0109
:1020F000821B930BA40BB50B84839583A683B783B4
:102100000DC0220F331F441F551F24833583468380
:1021100057838281938101979383828324813581C0
:1021200046815781DA01C9010197A109B1098F5F81
:102130009F4FAF4FBF4328F30BC09183338222825E
:10214000EA0CFB1C0C1D1D1DE482F582068317831F
:1021500083E08083248135814681578157FF1AC0EF
:10216000C901AA2797FDA095BA2F81709070A07021
:10217000B0705695479537952795822B932BA42BB6
:10218000B52B84839583A683B7838281938101963F
:1021900093838283DF0101C0D201CD01CDB7DEB7C9
:1021A000E2E10C94E716A0E2B0E0E9EDF0E10C9476
:1021B000D71669837A838B839C832D833E834F83D9
:1021C0005887E9E0EE2EF12CEC0EFD1ECE010196B3
:1021D000B7010E94E6158E010F5E1F4FCE010596D6
:1021E000B8010E94E6158A8991E089278A8BC70188
:1021F000B801AE01475E5F4F0E94870F0E94111524
:10220000A096E6E00C94F316A0E2B0E0EAE0F1E17B
:102210000C94D71669837A838B839C832D833E83AA
:102220004F835887F9E0EF2EF12CEC0EFD1ECE0106
:102230000196B7010E94E6158E010F5E1F4FCE0179
:102240000596B8010E94E615C701B801AE01475EC8
:102250005F4F0E94870F0E941115A096E6E00C9434
:10226000F316A0E2B0E0E7E3F1E10C94CB1669834A
:102270007A838B839C832D833E834F835887CE0143
:102280000196BE01675F7F4F0E94E615CE0105965D
:10229000BE016F5E7F4F0E94E6159985923088F0EF
:1022A00089898230C8F0943019F4823051F404C026
:1022B000843029F4923081F481E690E0C6C09230F7
:1022C00049F420E09A858A89981321E02A87CE0173
:1022D0000996BBC0823049F420E09A858A89981318
:1022E00021E02A8BCE014196B0C02D843E844F84DC
:1022F00058886D887E888F88988CEE24FF2487010B
:10230000AA24BB24650140E050E060E070E0E0E01A
:10231000F0E0C10181709070892BE9F0E60CF71CA8
:10232000081D191D9A01AB012A0D3B1D4C1D5D1D99
:1023300080E090E0A0E0B0E0E614F704080519059D
:1023400020F481E090E0A0E0B0E0BA01A901480FDC
:10235000591F6A1F7B1FAA0CBB1CCC1CDD1C97FEDF
:1023600008C081E090E0A0E0B0E0A82AB92ACA2A1B
:10237000DB2A3196E032F10549F0660C771C881CA7
:10238000991C5694479437942794C3CFFA85EA89C9
:102390002B893C898B859C85280F391F2E5F3F4FE9
:1023A00017C0CA0181709070892B61F0169507954E
:1023B000F794E79480E090E0A0E0B0E8E82AF92AFA
:1023C0000A2B1B2B76956795579547952F5F3F4FA7
:1023D00077FDE7CF0CC0440F551F661F771F17FD11
:1023E0004160EE0CFF1C001F111F21503040403097
:1023F00090E0590790E0690790E4790760F32B8F2C
:102400003C8FDB01CA018F779070A070B070803470
:102410009105A105B10561F447FD0AC0E114F1047D
:102420000105110529F0405C5F4F6F4F7F4F4078E9
:102430001A8EFE1711F081E08A8F4D8F5E8F6F8F9D
:1024400078A383E0898FCE0149960E941115A0964A
:10245000E2E10C94E716A8E1B0E0E1E3F2E10C94CC
:10246000D31669837A838B839C832D833E834F832A
:102470005887B9E0EB2EF12CEC0EFD1ECE01019633
:10248000B7010E94E6158E010F5E1F4FCE01059623
:10249000B8010E94E6152985223008F47EC03989EA
:1024A000323010F4B8017CC08A859A8989278A87DE
:1024B000243011F0223031F4231709F06EC061E6A8
:1024C00070E06EC0343039F41D861E861F86188A6F
:1024D0001C861B8604C0323021F484E08987B70152
:1024E0005FC02B853C858B899C89281B390B3C87D9
:1024F0002B87ED84FE840F851889AD88BE88CF8830
:10250000D88CEA14FB040C051D0540F4EE0CFF1CEE
:10251000001F111F215030403C872B8720E030E006
:1025200040E050E080E090E0A0E0B0E460E070E0E7
:10253000EA14FB040C051D0540F0282B392B4A2B0F
:102540005B2BEA18FB080C091D09B695A795979512
:102550008795EE0CFF1C001F111F6F5F7F4F6F31BF
:10256000710531F7DA01C9018F779070A070B070F2
:1025700080349105A105B10561F427FD0AC0E1147D
:10258000F1040105110529F0205C3F4F4F4F5F4FCB
:1025900020782D873E874F87588BBE01675F7F4F1E
:1025A000CB010E9411156896EAE00C94EF16A8E1A1
:1025B000B0E0EDEDF2E10C94D71669837A838B835A
:1025C0009C832D833E834F83588789E0E82EF12C2E
:1025D000EC0EFD1ECE010196B7010E94E6158E019C
:1025E0000F5E1F4FCE010596B8010E94E615898542
:1025F000823040F08989823028F0C701B8010E94FA
:102600005E1601C08FEF6896E6E00C94F316A8E121
:10261000B0E0EDE0F3E10C94D71669837A838B8305
:102620009C832D833E834F83588789E0E82EF12CCD
:10263000EC0EFD1ECE010196B7010E94E6158E013B
:102640000F5E1F4FCE010596B8010E94E6158985E1
:10265000823040F08989823028F0C701B8010E9499
:102660005E1601C08FEF6896E6E00C94F316A8E1C1
:10267000B0E0EDE3F3E10C94D71669837A838B83A2
:102680009C832D833E834F83588789E0E82EF12C6D
:10269000EC0EFD1ECE010196B7010E94E6158E01DB
:1026A0000F5E1F4FCE010596B8010E94E615898581
:1026B000823040F08989823028F0C701B8010E9439
:1026C0005E1601C081E06896E6E00C94F316A8E17E
:1026D000B0E0EDE6F3E10C94D71669837A838B833F
:1026E0009C832D833E834F83588789E0E82EF12C0D
:1026F000EC0EFD1ECE010196B7010E94E6158E017B
:102700000F5E1F4FCE010596B8010E94E615898520
:10271000823040F08989823028F0C701B8010E94D8
:102720005E1601C081E06896E6E00C94F316A8E01E
:10273000B0E0EDE9F3E10C94D4169B01AC0183E029
:102740008983DA01C9018827B7FD83959927AA27CC
:10275000BB27B82E211531054105510519F482E03A
:1027600089833AC08823A9F0203080E0380780E0D0
:10277000480780E8580729F460E070E080E09FECAB
:1027800030C0EE24FF248701E21AF30A040B150B74
:1027900002C079018A018EE1C82ED12CDC82CB8265
:1027A000ED82FE820F831887C801B7010E94C21410
:1027B00001971816190684F4082E04C0EE0CFF1CAD
:1027C000001F111F0A94D2F7ED82FE820F83188733
:1027D000C81AD90ADC82CB82BA82CE0101960E9445
:1027E00011152896E9E00C94F016ACE0B0E0EBEFA0
:1027F000F3E10C94DB1669837A838B839C83CE018F
:102800000196BE016B5F7F4F0E94E6158D8182307D
:1028100061F1823050F1843021F48E81882351F1AE
:102820002EC02F81388537FD20C06E812F313105B4
:102830001CF06623F9F023C08EE190E0821B930B1D
:1028400029853A854B855C8504C056954795379513
:1028500027958A95D2F76623B1F05095409530952B
:1028600021953F4F4F4F5F4F0EC020E030E040E0DA
:1028700050E009C02FEF3FEF4FEF5FE704C020E0CB
:1028800030E040E050E8B901CA012C96E2E00C9437
:10289000F716A8E0B0E0EFE4F4E10C94D3167B0166
:1028A0008C01611571058105910519F482E0898318
:1028B00060C083E089838EE1C82ED12CDC82CB827C
:1028C000ED82FE820F831887C801B7010E94C214EF
:1028D000FC013197F7FF3BC0222733272E1B3F0B0C
:1028E00057016801022E04C0D694C794B794A794E8
:1028F0000A94D2F740E050E060E070E081E090E0C0
:10290000A0E0B0E004C0880F991FAA1FBB1F2A9542
:10291000D2F70197A109B1098E219F21A023B123EC
:102920000097A105B10521F041E050E060E070E0C2
:102930004A295B296C297D294D835E836F837887C3
:102940008EE190E08E1B9F0B9C838B8312C030978F
:1029500081F00E2E04C0EE0CFF1C001F111F0A9404
:10296000D2F7ED82FE820F831887CE1ADF0ADC824F
:10297000CB821A82CE0101960E9411152896EAE0B8
:102980000C94EF16EF92FF920F931F937B018C0133
:1029900080E0E81680E0F80681E0080780E018078C
:1029A00088F48FEFE816F1040105110531F028F0E5
:1029B00088E090E0A0E0B0E017C080E090E0A0E008
:1029C000B0E012C080E0E81680E0F80680E008077A
:1029D00081E0180728F088E190E0A0E0B0E004C0B2
:1029E00080E190E0A0E0B0E020E230E040E050E0A4
:1029F000281B390B4A0B5B0B04C016950795F794FF
:102A0000E7948A95D2F7F701E759FF4F8081281B99
:102A1000310941095109C9011F910F91FF90EF90B0
:102A20000895DF92EF92FF920F931F93FC01E480D1
:102A3000F58006811781D1808081823048F480E062
:102A400090E0A0E1B0E0E82AF92A0A2B1B2BA5C0F0
:102A5000843009F49FC0823021F4EE24FF248701E2
:102A600005C0E114F1040105110519F4E0E0F0E0FE
:102A700096C0628173819FEF623879070CF05BC06A
:102A800022E83FEF261B370B2A3131052CF020E0DE
:102A900030E040E050E02AC0B801A701022E04C097
:102AA00076956795579547950A94D2F781E090E01F
:102AB000A0E0B0E004C0880F991FAA1FBB1F2A9591
:102AC000D2F70197A109B1098E219F21A023B1233B
:102AD0000097A105B10521F081E090E0A0E0B0E011
:102AE0009A01AB01282B392B4A2B5B2BDA01C90148
:102AF0008F779070A070B07080349105A105B105FA
:102B000039F427FF09C0205C3F4F4F4F5F4F04C08F
:102B1000215C3F4F4F4F5F4FE0E0F0E02030A0E0FE
:102B20003A07A0E04A07A0E45A0710F0E1E0F0E01D
:102B300079018A0127C06038710564F5FB01E1580D
:102B4000FF4FD801C7018F779070A070B0708034AC
:102B50009105A105B10539F4E7FE0DC080E490E0D0
:102B6000A0E0B0E004C08FE390E0A0E0B0E0E80EA9
:102B7000F91E0A1F1B1F17FF05C016950795F7942E
:102B8000E794319687E016950795F794E7948A9530
:102B9000D1F705C0EE24FF248701EFEFF0E06E2FA0
:102BA000679566276795902F9F77D794DD24D794F4
:102BB0008E2F8695492F462B582F5D29B701CA01C4
:102BC0001F910F91FF90EF90DF900895FC01DB01C2
:102BD000408151812281622F6F7770E0221F22276E
:102BE000221F9381892F880F822B282F30E0991F75
:102BF0009927991F11969C93119721153105A9F5D5
:102C0000411551056105710511F482E037C082E874
:102C10009FEF13969C938E9312979A01AB0167E0F6
:102C2000220F331F441F551F6A95D1F783E08C9301
:102C30000DC0220F331F441F551F12968D919C917A
:102C40001397019713969C938E931297203080E0F0
:102C5000380780E0480780E4580758F314962D930E
:102C60003D934D935C93179708952F3F310579F469
:102C7000411551056105710519F484E08C9308959F
:102C800064FF03C081E08C9312C01C9210C02F57C8
:102C9000304013963C932E93129783E08C9387E0F9
:102CA000440F551F661F771F8A95D1F770641496DD
:102CB0004D935D936D937C93179708951F93DC015B
:102CC000FB019C91923008F447C08081823008F467
:102CD00043C0943051F411961C91843099F5818150
:102CE000682F70E0611B71093FC0843021F0923081
:102CF00031F48230B9F18181882389F12DC0119698
:102D00001C9111978230F1F081811817D9F4129635
:102D10002D913C911397828193818217930794F0B0
:102D200028173907BCF014968D919D910D90BC9198
:102D3000A02D2481358146815781281739074A07FC
:102D40005B0718F4112341F00AC082179307A40708
:102D5000B50740F4112319F061E070E005C06FEF92
:102D60007FEF02C060E070E0CB011F910895AA1BC5
:102D7000BB1B51E107C0AA1FBB1FA617B70710F066
:102D8000A61BB70B881F991F5A95A9F78095909598
:102D9000BC01CD0108952F923F924F925F926F92A6
:102DA0007F928F929F92AF92BF92CF92DF92EF92DB
:102DB000FF920F931F93CF93DF93CDB7DEB7CA1B5C
:102DC000DB0B0FB6F894DEBF0FBECDBF09942A8887
:102DD000398848885F846E847D848C849B84AA842F
:102DE000B984C884DF80EE80FD800C811B81AA81BC
:102DF000B981CE0FD11D0FB6F894DEBF0FBECDBF87
:102E0000ED010895DC0101C06D9341505040E0F7A1
:062E10000895F894FFCFC5
:102E1600010000000000000000000102020303039D
:102E26000304040404040404040505050505050556
:102E36000505050505050505050606060606060635
:102E4600060606060606060606060606060606061C
:102E56000606060606060606060707070707070705
:102E660007070707070707070707070707070707EC
:102E760007070707070707070707070707070707DC
:102E860007070707070707070707070707070707CC
:102E960007070707070707070708080808080808B5
:102EA600080808080808080808080808080808089C
:102EB600080808080808080808080808080808088C
:102EC600080808080808080808080808080808087C
:102ED600080808080808080808080808080808086C
:102EE600080808080808080808080808080808085C
:102EF600080808080808080808080808080808084C
:102F0600080808080808080808080808080808083B
:0A2F16000808080808080808080069
:00000001FF
