:100000000C942A000C9447000C9447000C94470071
:100010000C9447000C9447000C9447000C94470044
:100020000C9447000C94850E0C9447000C944700E8
:100030000C9447000C94F10E0C9447000C94D30FD1
:100040000C945A010C9447000C9447000C94990DA1
:100050000C94470011241FBECFE5D8E0DEBFCDBF12
:1000600011E0A0E6B0E0EEEEFFE202C005900D92D6
:10007000AA36B107D9F712E0AAE6B1E001C01D9295
:10008000AB3AB107E1F70E9449000C94F5170C94C4
:1000900000000E94960C0E94411078940E948D00EE
:1000A0000E94940E0E94BD0C0E94A20C80919D02A1
:1000B000813059F40E941F0F0E9460030E94AA0E13
:1000C0000E947C0E0E94320802C00E941A07809192
:1000D0003002833049F710923002E6CF8091CC0194
:1000E0008823E1F31092CC018091CC018823E1F3C5
:1000F0001092CC018091CC018823E1F38091CC0156
:100100008823E1F31092CC0108958091CC018130D5
:10011000E1F381E08093CC010895EF92FF920F9379
:100120001F9310BE17B81092FC018FEE86B9109283
:1001300037021092A8021092A7021092A602109203
:10014000A50210920A02109209020F2EF0E0EF2E83
:10015000F0ECFF2EFFE70F2FF4E41F2FF02DE092BD
:100160000B02F0920C0200930D0210930E0220E09D
:1001700030EC4FE754EC20930F0230931002409381
:1001800011025093120280E090E0A0E0B0E0809372
:10019000130290931402A0931502B0931602809359
:1001A000170290931802A0931902B0931A02E092DA
:1001B0009D01F0929E0100939F011093A001209356
:1001C000A1013093A2014093A3015093A401809315
:1001D000A5019093A601A093A701B093A8018093D5
:1001E000A9019093AA01A093AB01B093AC0181E067
:1001F00087B91092A9021F910F91FF90EF90089577
:100200008091FC018823E9F481E08093FC0117B818
:100210008091090290910A0224B1820F911D90935E
:100220000A02809309024091090250910A0225B105
:10023000922F80E0840F951F90930A028093090209
:1002400008958091FC01813021F51092FC0187B95D
:100250008091A5029091A60224B1820F911D9093E6
:10026000A6028093A5024091A5025091A60225B155
:10027000922F80E0840F951F9093A6028093A50291
:100280008091A7029091A80201969093A802809372
:10029000A70208958091A902882311F40E94000109
:1002A0008091A7029091A802449719F481E080936D
:1002B000A90208951F920F920FB60F9211242F9347
:1002C0003F934F935F936F937F938F939F93AF93DE
:1002D000BF93EF93FF938091CC01882311F40E9488
:1002E0004A01FF91EF91BF91AF919F918F917F91C3
:1002F0006F915F914F913F912F910F900FBE0F9093
:100300001F9018956F927F928F929F92AF92BF929B
:10031000CF92DF92EF92FF920F931F938091090289
:1003200090910A0264E170E00E94AA1780E090E0D8
:100330000E9426156093920170939301809394011B
:10034000909395018091A5029091A60264E170E0DE
:100350000E94AA1780E090E00E9426156093960103
:10036000709397018093980190939901CA9B59C00B
:100370008091920190919301A0919401B091950187
:10038000B0588093920190939301A0939401B093FD
:1003900095016091920170919301809194019091E7
:1003A0009501609017027090180280901902909049
:1003B0001A02A40193010E94141488230CF089C02E
:1003C00060919201709193018091940190919501B7
:1003D000A0900F02B0901002C0901102D0901202B3
:1003E000A60195010E941414882344F4A09292015E
:1003F000B0929301C0929401D092950160919201C4
:10040000709193018091940190919501A4019301C1
:100410000E94B0117B018C0117FB109517F9109504
:1004200043C06091920170919301809194019091E9
:1004300095016090130270901402809015029090C4
:100440001602A40193010E94B41318160CF041C0C7
:100450006091920170919301809194019091950126
:10046000A0900B02B0900C02C0900D02D0900E0232
:10047000A60195010E94B413181644F4A0929201AB
:10048000B0929301C0929401D09295016091920133
:10049000709193018091940190919501A401930131
:1004A0000E94B0117B018C01C601B501A40193012A
:1004B0000E94B0119B01AC01C801B7010E94081352
:1004C00060939201709393018093940190939501AE
:1004D0000CC080E090E0A0E0B0E0809392019093A7
:1004E0009301A0939401B0939501CB9B69C0809137
:1004F000960190919701A0919801B0919901B058FF
:100500008093960190939701A0939801B0939901DD
:100510006091960170919701809198019091990155
:10052000A090A901B090AA01C090AB01D090AC01FD
:10053000A60195010E94141488230CF099C06091C3
:100540009601709197018091980190919901209165
:100550000F023091100240911102509112020E943C
:100560001414882384F48091A1019091A201A09198
:10057000A301B091A4018093960190939701A09359
:100580009801B093990160919601709197018091C3
:10059000980190919901A60195010E94B0117B01EB
:1005A0008C0117FB109517F910956091A1017091BE
:1005B000A2018091A3019091A401A601950147C0D9
:1005C00060919601709197018091980190919901A5
:1005D0006090A5017090A6018090A7019090A8015D
:1005E000A40193010E94B41318160CF041C060914D
:1005F0009601709197018091980190919901A09036
:100600009D01B0909E01C0909F01D090A001A601D5
:1006100095010E94B413181644F4A0929601B0926A
:100620009701C0929801D0929901609196017091C2
:1006300097018091980190919901A40193010E94E2
:10064000B0117B018C01C601B501A40193010E9488
:10065000B0119B01AC01C801B7010E94081360935F
:1006600096017093970180939801909399010CC023
:1006700080E090E0A0E0B0E0809396019093970135
:10068000A0939801B09399011092A6021092A5022E
:1006900010920A02109209021092A8021092A70268
:1006A00081E08093CC011F910F91FF90EF90DF903C
:1006B000CF90BF90AF909F908F907F906F90089554
:1006C0001F931091A902113031F40E9482011092FF
:1006D000A90210939C021F910895EF92FF920F932D
:1006E0001F9380E090E0A0E0B0E08093C101909380
:1006F000C201A093C301B093C40181E0809337028B
:100700001ABC1BBC18BC19BC84E082BB80E18BBB4B
:100710001092D3011092010225C08091A902882372
:10072000E1F30E9482016091C1017091C201809148
:10073000C3019091C40120919201309193014091A5
:100740009401509195010E94E1116093C101709351
:10075000C2018093C3019093C401809101028F5F15
:1007600080930102809101028931B8F26091C10148
:100770007091C2018091C3019091C40120E030ECDE
:100780004FE754E40E940E1220E030E048EC51E4C0
:100790000E94081360931B0270931C0280931D0239
:1007A00090931E0280E090E0A0E0B0E08093C10151
:1007B0009093C201A093C301B093C40184E082BBB3
:1007C0001BBA1092010225C08091A9028823E1F38F
:1007D0000E9482016091C1017091C2018091C301A8
:1007E0009091C40120919201309193014091940124
:1007F000509195010E94E1116093C1017093C20173
:100800008093C3019093C401809101028F5F809314
:100810000102809101028931B8F26091C1017091A9
:10082000C2018091C3019091C40120E030EC4FE7F8
:1008300054E40E940E1220E030E048EC51E40E94A3
:1008400008136093230270932402809325029093EF
:10085000260280E090E0A0E0B0E08093C101909398
:10086000C201A093C301B093C40188E082BB80E1C0
:100870008BBB1092010225C08091A9028823E1F36D
:100880000E9482016091C1017091C2018091C301F7
:100890009091C40120919201309193014091940173
:1008A000509195010E94E1116093C1017093C201C2
:1008B0008093C3019093C401809101028F5F809364
:1008C0000102809101028931B8F26091C1017091F9
:1008D000C2018091C3019091C40120E030EC4FE748
:1008E00054E40E940E1220E030E048EC51E40E94F3
:1008F000081360931F02709320028093210290934B
:10090000220280E090E0A0E0B0E08093C1019093EB
:10091000C201A093C301B093C40188E082BB1BBA9B
:100920001092010225C08091A9028823E1F30E9460
:1009300082016091C1017091C2018091C3019091C7
:10094000C401209192013091930140919401509102
:1009500095010E94E1116093C1017093C2018093DF
:10096000C3019093C401809101028F5F80930102C3
:10097000809101028931B8F26091C1017091C20188
:100980008091C3019091C40120E030EC4FE754E422
:100990000E940E1220E030E048EC51E40E9408135F
:1009A00060932702709328028093290290932A0271
:1009B00080E090E0A0E0B0E08093C1019093C2019C
:1009C000A093C301B093C40120E422BB20E12BBB60
:1009D0008093C1019093C201A093C301B093C4015D
:1009E0001092010225C08091A9028823E1F30E94A0
:1009F00082016091C1017091C2018091C301909107
:100A0000C401209196013091970140919801509135
:100A100099010E94E1116093C1017093C20180931A
:100A2000C3019093C401809101028F5F8093010202
:100A3000809101028931B8F26091C1017091C201C7
:100A40008091C3019091C40120E030EC4FE754E461
:100A50000E940E1220E030E048EC51E40E9408139E
:100A60006093AD017093AE018093AF019093B0019C
:100A700080E090E0A0E0B0E08093C1019093C201DB
:100A8000A093C301B093C40180E482BB1BBA10924F
:100A9000010225C08091A9028823E1F30E9482010E
:100AA0006091C1017091C2018091C3019091C40114
:100AB00020919601309197014091980150919901B0
:100AC0000E94E1116093C1017093C2018093C30140
:100AD0009093C401809101028F5F80930102809105
:100AE00001028931B8F26091C1017091C201809117
:100AF000C3019091C40120E030EC4FE754E40E9420
:100B00000E1220E030E048EC51E40E94081360939C
:100B1000B5017093B6018093B7019093B80180E05E
:100B200090E0A0E0B0E08093C1019093C201A09357
:100B3000C301B093C40180E882BB80E18BBB1092FB
:100B4000010225C08091A9028823E1F30E9482015D
:100B50006091C1017091C2018091C3019091C40163
:100B600020919601309197014091980150919901FF
:100B70000E94E1116093C1017093C2018093C3018F
:100B80009093C401809101028F5F80930102809154
:100B900001028931B8F26091C1017091C201809166
:100BA000C3019091C40120E030EC4FE754E40E946F
:100BB0000E1220E030E048EC51E40E9408136093EC
:100BC000B1017093B2018093B3019093B40180E0BE
:100BD00090E0A0E0B0E08093C1019093C201A093A7
:100BE000C301B093C40180E882BB1BBA109201021A
:100BF00025C08091A9028823E1F30E9482016091BF
:100C0000C1017091C2018091C3019091C4012091F2
:100C100096013091970140919801509199010E945D
:100C2000E1116093C1017093C2018093C30190935D
:100C3000C401809101028F5F8093010280910102C3
:100C40008931B8F26091C1017091C2018091C301F4
:100C50009091C40120E030EC4FE754E40E940E1262
:100C600020E030E048EC51E40E940813DC019B01D5
:100C7000AC012093B9013093BA014093BB0150936A
:100C8000BC0120E030E040E050E02093C10130930F
:100C9000C2014093C3015093C401E0901B02F09045
:100CA0001C0200911D0210911E02E0920B02F092B4
:100CB0000C0200930D0210930E022091230230913A
:100CC0002402409125025091260220931302309372
:100CD0001402409315025093160220911F02309186
:100CE0002002409121025091220220930F02309362
:100CF000100240931102509312022091270230916A
:100D000028024091290250912A0220931702309321
:100D100018024093190250931A022091AD013091AC
:100D2000AE014091AF015091B00120939D013093ED
:100D30009E0140939F015093A0012091B5013091F5
:100D4000B6014091B7015091B8012093A5013093AD
:100D5000A6014093A7015093A8012091B1013091C1
:100D6000B2014091B3015091B4012093A10130939D
:100D7000A2014093A3015093A401CB018093A90148
:100D80009093AA01A093AB01B093AC01C801B70145
:100D900020E030E048EC51E40E94B41318166CF4E3
:100DA000C801B70120E030E048E452E40E94141486
:100DB00088231CF48EE088BBFFCF1092370212BA52
:100DC0001F910F91FF90EF9008958091CC0188239F
:100DD000E1F31092CC018091CC018823E1F30895D6
:100DE0001092C5011092070210929F028FEB88BBF0
:100DF000109207021092C50110929F0280E8809322
:100E0000E6018FE788BB1092E9011092E801109289
:100E1000EB011092EA011092ED011092EC01109298
:100E200007021092C50110929F021092E0011092E9
:100E30000802089580E48093E6018FEB88BB10924E
:100E4000E9011092E8011092EB011092EA01109270
:100E5000ED011092EC01109207021092C501109260
:100E60009F0208958091E001882321F08091E6019E
:100E7000806103C08091E6018F7E8093E6018091BE
:100E80000802882321F08091E601846003C08091EC
:100E9000E6018B7F8093E601089580E88093E60168
:100EA0008FE788BB1092E9011092E8011092EB01E4
:100EB0001092EA011092ED011092EC0110920702DB
:100EC0001092C50110929F021092E0011092080248
:100ED000089580919F02882339F08091E70181FD78
:100EE00003C082608093E7018091E8019091E9015D
:100EF000009711F101969093E9018093E8018054E5
:100F00009F4148F18091E60181FF0AC08D7F809367
:100F1000E60181E090E09093E9018093E801089573
:100F20001092E9011092E80110929F028091E7016E
:100F30008D7F8093E70108958091E70181FF0BC0C9
:100F40008091E60182608093E60181E090E09093D9
:100F5000E9018093E80108958091C501882339F063
:100F60008091E70185FD03C080628093E701809155
:100F7000EA019091EB01009711F101969093EB013A
:100F80008093EA018051974248F18091E60185FF04
:100F90000AC08F7D8093E60181E090E09093EB01A1
:100FA0008093EA0108951092EB011092EA011092E9
:100FB000C5018091E7018F7D8093E70108958091BD
:100FC000E70185FF0BC08091E60180628093E60116
:100FD00081E090E09093EB018093EA010895809185
:100FE0000702882339F08091E70183FD03C0886000
:100FF0008093E7018091EC019091ED01009711F150
:1010000001969093ED018093EC018051974248F155
:101010008091E60183FF0AC0877F8093E60181E02B
:1010200090E09093ED018093EC0108951092ED0112
:101030001092EC01109207028091E701877F809364
:10104000E70108958091E70183FF0BC08091E601DD
:1010500088608093E60181E090E09093ED018093B9
:10106000EC0108950E9469070E94AC070E94EF07F7
:101070008091E001882321F08091E601806103C026
:101080008091E6018F7E8093E6018091080288239B
:1010900021F08091E601846003C08091E6018B7F9E
:1010A0008093E6018091E60180688093E601809557
:1010B00088BB08952F923F924F925F926F927F92DA
:1010C0008F929F92AF92BF92CF92DF92EF92FF9258
:1010D0000F931F93DF93CF93CDB7DEB760970FB613
:1010E000F894DEBF0FBECDBF6F83788789879A875C
:1010F0002B873C874D875E8727013801988A8F862A
:10110000C801B70120E030E040E85FE30E94B4137B
:1011100018165CF40F2EF0E04F2EF0E05F2EF0E892
:101120006F2EFFE37F2EF02D14C0C801B70120E021
:1011300030E040E85FEB0E941414882354F40F2E33
:10114000F0E04F2EF0E05F2EF0E86F2EFFEB7F2EE9
:10115000F02DC601B50120E030E040E85FE30E94D9
:10116000B41318165CF40F2EF0E0AF2EF0E0BF2E93
:10117000F0E8CF2EFFE3DF2EF02D14C0C601B5013D
:1011800020E030E040E85FEB0E941414882354F420
:101190000F2EF0E0AF2EF0E0BF2EF0E8CF2EFFEBE9
:1011A000DF2EF02DE0907E01F0907F010091800114
:1011B00010918101E0927A01F0927B0100937C0111
:1011C00010937D01C601B501A30192010E94B011E7
:1011D0002AE132E646E850E40E940E126B837C83DB
:1011E0008D839E8360937E0170937F018093800145
:1011F00090938101C601B501A30192010E94E11102
:1012000020E030E040E05FE30E940E123B014C0121
:1012100060937601709377018093780190937901C0
:101220006B817C818D819E81A80197010E94E111D3
:101230002AE037ED43E25BE30E940E122091860123
:101240003091870140918801509189010E94E111FC
:101250007B018C012BED3FE049EC50E40E94B4137C
:1012600018164CF4C801B7012BED3FE049EC50E4EF
:101270000E94B01112C0C801B70120E030E040E088
:1012800050E00E941414882354F4C801B7012BEDD8
:101290003FE049EC50E40E94E1117B018C01E092B7
:1012A0008601F09287010093880110938901C8019B
:1012B000B7012BED3FE049E450E40E94E1119B01AE
:1012C000AC016B857C858D859E850E94E413882307
:1012D0005CF06B857C858D859E852BED3FE049EC30
:1012E00050E40E94B0111CC0C801B7012BED3FE0D3
:1012F00049E450E40E94B0119B01AC016B857C85F0
:101300008D859E850E944414181674F06B857C852B
:101310008D859E852BED3FE049EC50E40E94E11164
:101320006B877C878D879E876B857C858D859E8569
:10133000A80197010E94B0115B016C0160938201CA
:10134000709383018093840190938501C401B3015C
:1013500028EE31EB49E750EC0E940E127B018C0124
:101360006F81788589859A8524EF38ED4CE950E4C2
:101370000E940E129B01AC01C801B7010E94E1114D
:101380003B014C01C601B50121E237EA44E95FE3C4
:101390000E940E127B018C016B817C818D819E816C
:1013A00028E137EA44E15FEB0E940E129B01AC0199
:1013B000C801B7010E94E1115B016C0120E030E03F
:1013C00040E050E00E94E41387FF03C00FEF1FEFDF
:1013D00002C001E010E010936D0100936C01C401A4
:1013E000B30120E030E040E050E00E94E41387FFCA
:1013F00005C02FEF3FEF3A83298304C081E090E0DE
:101400009A838983A981BA81B0936B01A0936A0101
:10141000B801882777FD8095982F0E9474141B01CE
:101420002C01A60195010E940E127B018C0120E087
:1014300030E040E85FE30E94B41318161CF4620128
:10144000510114C0C801B7012DEC3CEC4CE45DE344
:101450000E944414181654F00F2EF0E0AF2EF0E066
:10146000BF2EF0E0CF2EF0E0DF2EF02DA0926E0127
:10147000B0926F01C0927001D0927101E981FA813E
:10148000BF01882777FD8095982F0E9474147B01F7
:101490008C01A40193010E940E1220E030E040E88C
:1014A0005FE30E94B413181614F437014801C20117
:1014B000B101A60195010E940E129B01AC0160E0F2
:1014C00070E080E89FE30E94B0111B012C01C8016D
:1014D000B701A40193010E940E12A20191010E9482
:1014E000B413181644F4C801B701A20191010E9477
:1014F0000E123B014C016092720170927301809256
:10150000740190927501C401B301A60195010E9476
:10151000E111ADA1BEA16D937D938D939C93139723
:10152000C401B301A60195010E94B011EF85F889AD
:101530006083718382839383ADA1BEA1ED90FD9002
:101540000D911C91C801B70124EA30E74DE75FE334
:101550000E94B41318165CF40F2EF4EAEF2EF0E795
:10156000FF2EFDE70F2FFFE31F2FF02D14C0C80142
:10157000B70124EA30E74DE75FEB0E94141488239B
:1015800054F40F2EF4EAEF2EF0E7FF2EFDE70F2FB5
:10159000FFEB1F2FF02DEDA1FEA1E082F18202836F
:1015A0001383AF85B889ED90FD900D911C91C80112
:1015B000B70124EA30E74DE75FE30E94B413181641
:1015C0005CF40F2EF4EAEF2EF0E7FF2EFDE70F2F6D
:1015D000FFE31F2FF02D14C0C801B70124EA30E744
:1015E0004DE75FEB0E941414882354F40F2EF4EAA5
:1015F000EF2EF0E7FF2EFDE70F2FFFEB1F2FF02D53
:10160000EF85F889E082F1820283138360960FB63A
:10161000F894DEBF0FBECDBFCF91DF911F910F9128
:10162000FF90EF90DF90CF90BF90AF909F908F9002
:101630007F906F905F904F903F902F9008958CEC2B
:1016400080939E0280919E0282BB84E68093FF017C
:101650001092000280E090E0A0E0B0E08093920160
:1016600090939301A0939401B09395018093960178
:1016700090939701A0939801B09399018093A10250
:101680009093A202A093A302B093A4028093E101DD
:101690009093E201A093E301B093E40180938E0163
:1016A00090938F01A0939001B093910180938A0150
:1016B00090938B01A0938C01B0938D011BBC1ABC3D
:1016C00019BC18BC08958091CF019091D0011816D3
:1016D000190624F484E080939E021DC08091CF01FE
:1016E0009091D00197FF0FC088E080939E02809177
:1016F000CF019091D001909581959F4F9093D0010B
:101700008093CF0108C08091CF019091D001892BA7
:1017100011F410929E028091D1019091D20118167D
:10172000190624F480919E02806422C08091D10128
:101730009091D20197FF11C080919E0280688093A2
:101740009E028091D1019091D201909581959F4FF9
:101750009093D2018093D10108958091D10190910D
:10176000D201892B61F480919E02882321F48CECB4
:1017700080939E02089580919E0280939E02089518
:1017800080913102813021F080919C01813031F4CF
:101790001BBC1ABC19BC18BC8CEC0EC08091CF01CC
:1017A0009091D0019BBD8ABD8091D1019091D201D1
:1017B00099BD88BD80919E0282BB08956091A1026F
:1017C0007091A2028091A3029091A40220E030E4E3
:1017D0004CE156E40E940E120E94D2147093D00184
:1017E0006093CF016091E1017091E2018091E3018A
:1017F0009091E40120E030E44CE156E40E940E12A6
:101800000E94D2147093D2016093D10108958F92F7
:101810009F92AF92BF92CF92DF92EF92FF920F937F
:101820001F93E0909201F090930100919401109128
:101830009501A0909601B0909701C0909801D0902A
:10184000990100D060918E0170918F01809190017B
:101850009091910120918A0130918B0140918C01EE
:1018600050918D01E1EEF1E0ADB7BEB71296FC9359
:10187000EE931197E1EA8E2EE2E09E2E0E945A0826
:101880006091A1027091A2028091A3029091A402A2
:1018900020E030E44CE156E40E940E120E94D21483
:1018A0007093D0016093CF016091E1017091E201EA
:1018B0008091E3019091E40120E030E44CE156E4B2
:1018C0000E940E120E94D2147093D2016093D10133
:1018D0000F900F900E94630B80913102813021F0B4
:1018E00080919C01813031F41BBC1ABC19BC18BC1E
:1018F0008CEC0EC08091CF019091D0019BBD8ABD30
:101900008091D1019091D20199BD88BD80919E02B4
:1019100082BB1092CC011F910F91FF90EF90DF904E
:10192000CF90BF90AF909F908F9008958FEF87BB1F
:101930008EEF81BB80E18ABB10929D0208958CE1FD
:1019400081BD0895CE990CC081E080939D0218BAA4
:10195000CE9BFECF0E944D078CE181BD0E94CA0C38
:10196000CF990AC010929D021BBC1ABC19BC18BCAE
:1019700018BACF9BFECFA895089581E08093F5011A
:101980008093F7011092CE0110929A0181B986ECF2
:1019900080B9089510929A0181E08093F5018093B7
:1019A000F7011092310210929C011092CE01109218
:1019B000F6018EE28093EE01089581B1887F8093D5
:1019C000E5018091E501883209F43FC0893288F44D
:1019D000803101F1813138F4882309F4A0C08830C6
:1019E00009F0A3C026C0883141F1803209F09DC0C2
:1019F00028C08034F1F1813438F4803309F495C083
:101A0000883309F092C08BC08035A9F1883509F080
:101A10008CC085C08091F401882359F01092F401A4
:101A20008091F601823011F483EE01C081EE809343
:101A3000EF018091EF0183B970C08091F00183B90B
:101A400018C081E08093F70168C08091F20188237B
:101A500031F08091F10183B91092F2015EC0809162
:101A6000F301882309F45BC081E08093F40185EAE7
:101A70005AC085EC58C080919A018230A1F48091BF
:101A8000F301882381F08091F601823021F483B143
:101A90008093FB0142C08091F6018130F1F583B162
:101AA0008093F9013AC080919A018330B1F5809119
:101AB000F301882391F18091F6018230B1F483B172
:101AC0008093FA018091FA018F3F51F08091FB01E0
:101AD0008F3031F081E080939C018093E0011DC044
:101AE00010929C011092E00118C09091F601913083
:101AF000A1F483B18093F8018091F8018F3F49F000
:101B00008091F9018F3029F090933102909308026F
:101B100004C0109231021092080285E804C081E0EE
:101B20008093F70184E986BF089581E08093F701EF
:101B300008951F920F920FB60F9211242F933F9387
:101B40004F935F936F937F938F939F93AF93BF93C5
:101B5000EF93FF930E94DD0CFF91EF91BF91AF9146
:101B60009F918F917F916F915F914F913F912F91B5
:101B70000F900FBE0F901F9018959091F501913026
:101B800009F04DC09093F20180919A018130C9F023
:101B9000813028F08230F1F0833071F52BC082EE75
:101BA0008093EF0182E08093F0018091EE018093B9
:101BB000F10180919A018F5F80939A0185EA86BF37
:101BC0002EC080EE8093EF0182E08093F00180913F
:101BD000EE0106C082EE8093EF019093F0018AE05F
:101BE0008093F10185EA86BF80919A018F5F80938F
:101BF0009A0115C080EEEFCF10929A011092F20177
:101C00001092F5019093F30182EE8093EF01109210
:101C1000CE019093F7019093F6011092F20180911A
:101C2000F301882309F467C08091CE018A30B8F0AF
:101C30008091F601823031F481E08093F601809347
:101C4000C50106C082E08093F60181E0809307021F
:101C500010929A011092CE0181E08093F701809159
:101C60009A01813001F1813018F08230E1F526C00F
:101C70008091F601823011F480EE01C082EE8093F3
:101C8000EF011092F00191E09093F20181E58093D1
:101C9000F10180919A018F5F80939A0185EA86BF56
:101CA0009093F30108958091F601823011F482EE51
:101CB00001C080EE8093EF0182E006C08091EF01C9
:101CC0008E7F8093EF0183E08093F0011092F20108
:101CD00085EA86BF80919A018F5F80939A0181E0A7
:101CE0008093F301089583E080939A0181E08093CB
:101CF000F7018093F30108958091F701882321F083
:101D00001092F7010E94BD0D08951F920F920FB619
:101D10000F9211248F9381E080939C028F910F90FA
:101D20000FBE0F901F90189582EA8FBD8AE18EBD7D
:101D300080E197E297BD86BD89B7846089BF1BBCEF
:101D40001ABC19BC18BC1092CB0110929C021092C4
:101D50003702089580919C02813069F48091CE0110
:101D60008B3028F48091CE018F5F8093CE010E944A
:101D7000070C10929C020895809130028130E1F0AE
:101D8000813018F0823061F51FC080912F02813FB1
:101D900011F481E016C080910202823019F4109291
:101DA0000202089580912F02803FD1F410923002F8
:101DB00081E080930202089580912F028093FF01B9
:101DC00082E080933002089580912F028093000278
:101DD00083E08093300281E08093320280939F02FF
:101DE00008951F920F920FB60F9211242F933F93D5
:101DF0004F935F936F937F938F939F93AF93BF9313
:101E0000EF93FF938CB180932F020E94BC0E8091C0
:101E1000A002813019F480912F028CB9FF91EF91CB
:101E2000BF91AF919F918F917F916F915F914F91F2
:101E30003F912F910F900FBE0F901F90189580919A
:101E40003202813009F04AC0A8959091FD0180913D
:101E5000FF019817F9F08091FF018093FD016091D7
:101E6000FD0170E080E090E00E94261520E030E067
:101E700048EC52E40E94B01120E030E048EC52E41B
:101E80000E94081360938E0170938F0180939001DC
:101E9000909391019091FE01809100029817D9F0E2
:101EA000809100028093FE016091FE0170E088271E
:101EB00077FD8095982F0E94741426E33AEF4EE048
:101EC0005DE30E940E1260938A0170938B018093F0
:101ED0008C0190938D01109232020895809102023C
:101EE0008823B9F0A89584E68093FD011092FE0145
:101EF0008093FF0180E090E0A0E0B0E080938E014D
:101F000090938F01A0939001B093910182E0809310
:101F100002020895809133028823F9F0E0919B0139
:101F2000F0E0E85CFD4F80818CB980919B018F5F70
:101F300080939B01E8E3F2E001900020E9F73197FC
:101F4000E853F24080919B0190E0E817F90729F4EB
:101F500080ED8AB981E08093A0020895FF920F93EB
:101F60001F93CF93DF93182F092FF62E1092A00204
:101F70008EEF0E948A0F212F302FC901EC0110E053
:101F800004C089910E948A0F1F5F1F15D0F38FEF45
:101F90000E948A0F81E08093A002DF91CF911F9170
:101FA0000F91FF9008951F920F920FB60F92112478
:101FB0008F939F93EF93FF93E0919B01F0E0E85C98
:101FC000FD4F80818CB980919B018F5F80939B0135
:101FD000E8E3F2E001900020E9F73197E853F2409E
:101FE00080919B0190E08E179F0728F080ED8AB9C1
:101FF00081E08093A002FF91EF919F918F910F90CC
:102000000FBE0F901F901895FF920F931F939C0186
:10201000F62E009791F18091A002882371F188ED4E
:102020008AB91092A00208E312E0F80101900020A2
:10203000E9F73197E01BF10BC801B901AF010E942C
:102040009B17F80101900020E9F73197E01BF10B95
:10205000E00FF11FF082F80101900020E9F78F01F5
:102060000150104008531240085C1D4F8FEFF801DB
:1020700080838EEF8CB910929B011F910F91FF907E
:10208000089586E880BD80ED8AB910BC87E689B9DD
:102090001092300281E08093A0028093330210926C
:1020A000AA02109232021092FD011092FE011092CB
:1020B00002021092330288E392E060E670E00E9430
:1020C000941780919B010895A0E0B0E0EAE6F0E16A
:1020D0000C94BE17DC012B01FA019C91923008F49C
:1020E00039C1EB018881823008F433C1943069F43E
:1020F000843009F02FC111969C911197898198170E
:1021000009F428C1A1E6B0E025C1843009F421C159
:102110008230A9F4923009F01DC19A01AD0188E026
:10212000EA010990AE01E90109929E018150C1F7CF
:10213000E201898111969C918923818308C19230A3
:1021400009F407C112962D903C901397EB018A81F8
:102150009B811496AD90BD90CD90DC901797EC804C
:10216000FD800E811F819101281B390BB90137FFBA
:1021700004C066277727621B730B603271050CF071
:1021800061C0121613066CF537014801062E04C013
:1021900096948794779467940A94D2F721E030E07C
:1021A00040E050E004C0220F331F441F551F6A95C2
:1021B000D2F721503040404050402E213F21402353
:1021C0005123211531054105510521F021E030E071
:1021D00040E050E079018A01E628F728082919290A
:1021E0003CC0232BD1F1260E371E35014601062EA9
:1021F00004C096948794779467940A94D2F721E068
:1022000030E040E050E004C0220F331F441F551F50
:102210006A95D2F721503040404050402A213B215E
:102220004C215D21211531054105510521F021E0A9
:1022300030E040E050E059016A01A628B728C828DC
:10224000D9280BC0821593052CF01C01AA24BB24AD
:10225000650103C0EE24FF24870111969C91D201F1
:1022600011968C91981709F445C0992339F0A8016B
:1022700097012A193B094C095D0906C0A601950181
:102280002E193F09400B510B57FD08C011823382B4
:10229000228224833583468357831DC081E0818356
:1022A0003382228288279927DC01821B930BA40B9F
:1022B000B50B84839583A683B7830DC0220F331F8C
:1022C000441F551F2483358346835783828193811E
:1022D0000197938382832481358146815781DA0176
:1022E000C9010197A109B1098F5F9F4FAF4FBF434C
:1022F00028F30BC0918333822282EA0CFB1C0C1D55
:102300001D1DE482F5820683178383E08083248188
:1023100035814681578157FF1AC0C901AA2797FD09
:10232000A095BA2F81709070A070B07056954795A7
:1023300037952795822B932BA42BB52B84839583DC
:10234000A683B78382819381019693838283DF0181
:1023500001C0D201CD01CDB7DEB7E2E10C94DA17AE
:10236000A0E2B0E0E6EBF1E10C94CA1769837A834E
:102370008B839C832D833E834F835887E9E0EE2E29
:10238000F12CEC0EFD1ECE010196B7010E94C31682
:102390008E010F5E1F4FCE010596B8010E94C31635
:1023A0008A8991E089278A8BC701B801AE01475E0F
:1023B0005F4F0E9464100E94EE15A096E6E00C9418
:1023C000E617A0E2B0E0E7EEF1E10C94CA176983EA
:1023D0007A838B839C832D833E834F835887F9E0D8
:1023E000EF2EF12CEC0EFD1ECE010196B7010E94DE
:1023F000C3168E010F5E1F4FCE010596B8010E94D5
:10240000C316C701B801AE01475E5F4F0E9464105A
:102410000E94EE15A096E6E00C94E617A0E2B0E06C
:10242000E4E1F2E10C94BE1769837A838B839C8389
:102430002D833E834F835887CE010196BE01675F8F
:102440007F4F0E94C316CE010596BE016F5E7F4F7F
:102450000E94C3169985923088F089898230C8F02D
:10246000943019F4823051F404C0843029F492304D
:1024700081F481E690E0C6C0923049F420E09A856C
:102480008A89981321E02A87CE010996BBC0823041
:1024900049F420E09A858A89981321E02A8BCE019D
:1024A0004196B0C02D843E844F8458886D887E88C4
:1024B0008F88988CEE24FF248701AA24BB24650111
:1024C00040E050E060E070E0E0E0F0E0C1018170E9
:1024D0009070892BE9F0E60CF71C081D191D9A0174
:1024E000AB012A0D3B1D4C1D5D1D80E090E0A0E07E
:1024F000B0E0E614F7040805190520F481E090E047
:10250000A0E0B0E0BA01A901480F591F6A1F7B1F64
:10251000AA0CBB1CCC1CDD1C97FE08C081E090E01F
:10252000A0E0B0E0A82AB92ACA2ADB2A3196E03214
:10253000F10549F0660C771C881C991C5694479449
:1025400037942794C3CFFA85EA892B893C898B85F8
:102550009C85280F391F2E5F3F4F17C0CA0181701D
:102560009070892B61F016950795F794E79480E0B9
:1025700090E0A0E0B0E8E82AF92A0A2B1B2B769518
:102580006795579547952F5F3F4F77FDE7CF0CC075
:10259000440F551F661F771F17FD4160EE0CFF1C8F
:1025A000001F111F21503040403090E0590790E04B
:1025B000690790E4790760F32B8F3C8FDB01CA0138
:1025C0008F779070A070B07080349105A105B1052F
:1025D00061F447FD0AC0E114F1040105110529F079
:1025E000405C5F4F6F4F7F4F40781A8EFE1711F09F
:1025F00081E08A8F4D8F5E8F6F8F78A383E0898F04
:10260000CE0149960E94EE15A096E2E10C94DA17ED
:10261000A8E1B0E0EEE0F3E10C94C61769837A8399
:102620008B839C832D833E834F835887B9E0EB2EA9
:10263000F12CEC0EFD1ECE010196B7010E94C316CF
:102640008E010F5E1F4FCE010596B8010E94C31682
:102650002985223008F47EC03989323010F4B8015F
:102660007CC08A859A8989278A87243011F0223094
:1026700031F4231709F06EC061E670E06EC03430AB
:1026800039F41D861E861F86188A1C861B8604C088
:10269000323021F484E08987B7015FC02B853C8507
:1026A0008B899C89281B390B3C872B87ED84FE8402
:1026B0000F851889AD88BE88CF88D88CEA14FB04B2
:1026C0000C051D0540F4EE0CFF1C001F111F2150CE
:1026D00030403C872B8720E030E040E050E080E055
:1026E00090E0A0E0B0E460E070E0EA14FB040C05C8
:1026F0001D0540F0282B392B4A2B5B2BEA18FB08D1
:102700000C091D09B695A79597958795EE0CFF1CAA
:10271000001F111F6F5F7F4F6F31710531F7DA01B5
:10272000C9018F779070A070B07080349105A105B9
:10273000B10561F427FD0AC0E114F104010511059A
:1027400029F0205C3F4F4F4F5F4F20782D873E8709
:102750004F87588BBE01675F7F4FCB010E94EE15FC
:102760006896EAE00C94E217A8E1B0E0EAEBF3E146
:102770000C94CA1769837A838B839C832D833E8351
:102780004F83588789E0E82EF12CEC0EFD1ECE0118
:102790000196B7010E94C3168E010F5E1F4FCE0136
:1027A0000596B8010E94C3168985823040F0898958
:1027B000823028F0C701B8010E943B1701C08FEF9B
:1027C0006896E6E00C94E617A8E1B0E0EAEEF3E1E3
:1027D0000C94CA1769837A838B839C832D833E83F1
:1027E0004F83588789E0E82EF12CEC0EFD1ECE01B8
:1027F0000196B7010E94C3168E010F5E1F4FCE01D6
:102800000596B8010E94C3168985823040F08989F7
:10281000823028F0C701B8010E943B1701C08FEF3A
:102820006896E6E00C94E617A8E1B0E0EAE1F4E18E
:102830000C94CA1769837A838B839C832D833E8390
:102840004F83588789E0E82EF12CEC0EFD1ECE0157
:102850000196B7010E94C3168E010F5E1F4FCE0175
:102860000596B8010E94C3168985823040F0898997
:10287000823028F0C701B8010E943B1701C081E0F7
:102880006896E6E00C94E617A8E1B0E0EAE4F4E12B
:102890000C94CA1769837A838B839C832D833E8330
:1028A0004F83588789E0E82EF12CEC0EFD1ECE01F7
:1028B0000196B7010E94C3168E010F5E1F4FCE0115
:1028C0000596B8010E94C3168985823040F0898937
:1028D000823028F0C701B8010E943B1701C081E097
:1028E0006896E6E00C94E617A8E0B0E0EAE7F4E1C9
:1028F0000C94C7179B01AC0183E08983DA01C901FD
:102900008827B7FD83959927AA27BB27B82E2115BD
:1029100031054105510519F482E089833AC08823C5
:10292000A9F0203080E0380780E0480780E85807A9
:1029300029F460E070E080E09FEC30C0EE24FF24DA
:102940008701E21AF30A040B150B02C079018A0110
:102950008EE1C82ED12CDC82CB82ED82FE820F83E9
:102960001887C801B7010E949F150197181619060C
:1029700084F4082E04C0EE0CFF1C001F111F0A94E3
:10298000D2F7ED82FE820F831887C81AD90ADC823B
:10299000CB82BA82CE0101960E94EE152896E9E01C
:1029A0000C94E317ACE0B0E0E8EDF4E10C94CE1742
:1029B00069837A838B839C83CE010196BE016B5F12
:1029C0007F4F0E94C3168D81823061F1823050F1B9
:1029D000843021F48E81882351F12EC02F813885D7
:1029E00037FD20C06E812F3131051CF06623F9F0D0
:1029F00023C08EE190E0821B930B29853A854B859D
:102A00005C8504C056954795379527958A95D2F7EA
:102A10006623B1F050954095309521953F4F4F4F2B
:102A20005F4F0EC020E030E040E050E009C02FEFE3
:102A30003FEF4FEF5FE704C020E030E040E050E8B8
:102A4000B901CA012C96E2E00C94EA17A8E0B0E0C4
:102A5000ECE2F5E10C94C6177B018C016115710560
:102A60008105910519F482E0898360C083E0898340
:102A70008EE1C82ED12CDC82CB82ED82FE820F83C8
:102A80001887C801B7010E949F15FC013197F7FF15
:102A90003BC0222733272E1B3F0B57016801022E14
:102AA00004C0D694C794B794A7940A94D2F740E090
:102AB00050E060E070E081E090E0A0E0B0E004C0B1
:102AC000880F991FAA1FBB1F2A95D2F70197A1094A
:102AD000B1098E219F21A023B1230097A105B10543
:102AE00021F041E050E060E070E04A295B296C2968
:102AF0007D294D835E836F8378878EE190E08E1B06
:102B00009F0B9C838B8312C0309781F00E2E04C0E4
:102B1000EE0CFF1C001F111F0A94D2F7ED82FE82FB
:102B20000F831887CE1ADF0ADC82CB821A82CE018D
:102B300001960E94EE152896EAE00C94E217EF92B7
:102B4000FF920F931F937B018C0180E0E81680E0D9
:102B5000F80681E0080780E0180788F48FEFE81690
:102B6000F1040105110531F028F088E090E0A0E0C3
:102B7000B0E017C080E090E0A0E0B0E012C080E0DC
:102B8000E81680E0F80680E0080781E0180728F0E2
:102B900088E190E0A0E0B0E004C080E190E0A0E037
:102BA000B0E020E230E040E050E0281B390B4A0B57
:102BB0005B0B04C016950795F794E7948A95D2F7B6
:102BC000F701E759FF4F8081281B3109410951095D
:102BD000C9011F910F91FF90EF900895DF92EF923E
:102BE000FF920F931F93FC01E480F580068117810B
:102BF000D1808081823048F480E090E0A0E1B0E0B4
:102C0000E82AF92A0A2B1B2BA5C0843009F49FC09F
:102C1000823021F4EE24FF24870105C0E114F10481
:102C20000105110519F4E0E0F0E096C062817381BE
:102C30009FEF623879070CF05BC022E83FEF261B5C
:102C4000370B2A3131052CF020E030E040E050E035
:102C50002AC0B801A701022E04C076956795579542
:102C600047950A94D2F781E090E0A0E0B0E004C07C
:102C7000880F991FAA1FBB1F2A95D2F70197A10998
:102C8000B1098E219F21A023B1230097A105B10591
:102C900021F081E090E0A0E0B0E09A01AB01282BA8
:102CA000392B4A2B5B2BDA01C9018F779070A0700A
:102CB000B07080349105A105B10539F427FF09C032
:102CC000205C3F4F4F4F5F4F04C0215C3F4F4F4F41
:102CD0005F4FE0E0F0E02030A0E03A07A0E04A07D4
:102CE000A0E45A0710F0E1E0F0E079018A0127C082
:102CF0006038710564F5FB01E158FF4FD801C70149
:102D00008F779070A070B07080349105A105B105E7
:102D100039F4E7FE0DC080E490E0A0E0B0E004C02C
:102D20008FE390E0A0E0B0E0E80EF91E0A1F1B1F41
:102D300017FF05C016950795F794E794319687E03D
:102D400016950795F794E7948A95D1F705C0EE2478
:102D5000FF248701EFEFF0E06E2F679566276795F8
:102D6000902F9F77D794DD24D7948E2F8695492F67
:102D7000462B582F5D29B701CA011F910F91FF9073
:102D8000EF90DF900895FC01DB01408151812281A9
:102D9000622F6F7770E0221F2227221F9381892FD5
:102DA000880F822B282F30E0991F9927991F1196A1
:102DB0009C93119721153105A9F541155105610520
:102DC000710511F482E037C082E89FEF13969C935F
:102DD0008E9312979A01AB0167E0220F331F441FB5
:102DE000551F6A95D1F783E08C930DC0220F331FD6
:102DF000441F551F12968D919C911397019713961E
:102E00009C938E931297203080E0380780E048072B
:102E100080E4580758F314962D933D934D935C939B
:102E2000179708952F3F310579F441155105610534
:102E3000710519F484E08C93089564FF03C081E068
:102E40008C9312C01C9210C02F57304013963C93A5
:102E50002E93129783E08C9387E0440F551F661FD3
:102E6000771F8A95D1F7706414964D935D936D9397
:102E70007C93179708951F93DC01FB019C9192307E
:102E800008F447C08081823008F443C0943051F484
:102E900011961C91843099F58181682F70E0611B37
:102EA00071093FC0843021F0923031F48230B9F1A1
:102EB0008181882389F12DC011961C911197823050
:102EC000F1F081811817D9F412962D913C91139746
:102ED000828193818217930794F028173907BCF0F9
:102EE00014968D919D910D90BC91A02D24813581DA
:102EF00046815781281739074A075B0718F41123C1
:102F000041F00AC082179307A407B50740F41123C4
:102F100019F061E070E005C06FEF7FEF02C060E084
:102F200070E0CB011F910895FB01DC0101900D922F
:102F30000020E1F70895FB01DC014150504048F0CA
:102F400001900D920020C9F701C01D9241505040E0
:102F5000E0F70895AA1BBB1B51E107C0AA1FBB1FC6
:102F6000A617B70710F0A61BB70B881F991F5A9515
:102F7000A9F780959095BC01CD0108952F923F92BD
:102F80004F925F926F927F928F929F92AF92BF9279
:102F9000CF92DF92EF92FF920F931F93CF93DF9325
:102FA000CDB7DEB7CA1BDB0B0FB6F894DEBF0FBE82
:102FB000CDBF09942A88398848885F846E847D84CF
:102FC0008C849B84AA84B984C884DF80EE80FD80D1
:102FD0000C811B81AA81B981CE0FD11D0FB6F89447
:0E2FE000DEBF0FBECDBFED010895F894FFCF08
:102FEE0000000000000000000000010202030303C5
:102FFE00030404040404040404050505050505057D
:10300E00050505050505050505060606060606065B
:10301E000606060606060606060606060606060642
:10302E00060606060606060606070707070707072B
:10303E000707070707070707070707070707070712
:10304E000707070707070707070707070707070702
:10305E0007070707070707070707070707070707F2
:10306E0007070707070707070708080808080808DB
:10307E0008080808080808080808080808080808C2
:10308E0008080808080808080808080808080808B2
:10309E0008080808080808080808080808080808A2
:1030AE000808080808080808080808080808080892
:1030BE000808080808080808080808080808080882
:1030CE000808080808080808080808080808080872
:1030DE000808080808080808080808080808080862
:0A30EE000808080808080808080090
:00000001FF
