:100000000C942A000C9447000C9447000C94470071
:100010000C94CE100C9447000C9447000C944700AD
:100020000C9447000C94B50E0C9447000C944700B8
:100030000C9447000C94A70F0C9447000C94BE0F2F
:100040000C9480010C9447000C9447000C94870E8C
:100050000C94470011241FBECFE5D8E0DEBFCDBF12
:1000600012E0A0E6B0E0E0EEF0E502C005900D92EF
:10007000A237B107D9F717E0A2E7B2E001C01D929D
:10008000AC39B107E1F70E9449000C946E280C943A
:100090000000F8940E94732084E790E060E070E034
:1000A00043E655E025E00E9430178DE690E060E0E1
:1000B00070E047E653E026E00E9430170E94BC0C37
:1000C0000E94BC0E0E94B3000E948D0E0E94E30CA1
:1000D0000E94EC1F80E090E008950E94C80C85E02B
:1000E00090E00E940317F9CFF8940E94B61078941C
:1000F0008091CC03813059F40E943C0F0E9486030A
:100100000E94A30E0E947E0E0E94580802C00E9408
:1001100040078091C303833011F41092C30382E03F
:1001200090E00E940317E4CF809169038823E1F3F4
:1001300010926903809169038823E1F310926903A7
:10014000809169038823E1F3809169038823E1F3B7
:10015000109269030895809169038130E1F381E091
:10016000809369030895EF92FF920F931F9310BE3F
:1001700017B810928F038FEE86B91092CA031092AF
:10018000670510926605109265051092640510923D
:100190009D0310929C030F2EF0E0EF2EF0ECFF2E4B
:1001A000FFE70F2FF4E41F2FF02DE0929E03F09253
:1001B0009F030093A0031093A10320E030EC4FE7CE
:1001C00054EC2093A2033093A3034093A4035093D1
:1001D000A50380E090E0A0E0B0E08093A6039093B8
:1001E000A703A093A803B093A9038093AA039093B5
:1001F000AB03A093AC03B093AD03E092A402F092E2
:10020000A5020093A6021093A7022093A8023093A0
:10021000A9024093AA025093AB028093AC02909340
:10022000AD02A093AE02B093AF028093B002909360
:10023000B102A093B202B093B30281E087B91092E9
:1002400068051F910F91FF90EF90089580918F03A3
:100250008823E9F481E080938F0317B880919C0391
:1002600090919D0324B1820F911D90939D038093E3
:100270009C0340919C0350919D0325B1922F80E0F7
:10028000840F951F90939D0380939C030895809104
:100290008F03813021F510928F0387B98091640517
:1002A0009091650524B1820F911D9093650580930F
:1002B0006405409164055091650525B1922F80E059
:1002C000840F951F90936505809364058091660562
:1002D0009091670501969093670580936605089550
:1002E00080916805882311F40E942601809166059B
:1002F00090916705449719F481E08093680508950B
:100300001F920F920FB60F9211242F933F934F938A
:100310005F936F937F938F939F93AF93BF93EF936D
:10032000FF9380916903882311F40E947001FF916B
:10033000EF91BF91AF919F918F917F916F915F915D
:100340004F913F912F910F900FBE0F901F901895D6
:100350006F927F928F929F92AF92BF92CF92DF92D5
:10036000EF92FF920F931F9380919C0390919D03B6
:1003700064E170E00E94232880E090E00E94B525AF
:1003800060939A0270939B0280939C0290939D02CB
:10039000809164059091650564E170E00E942328D6
:1003A00080E090E00E94B52560939E0270939F02CA
:1003B0008093A0029093A102CA9B59C080919A0297
:1003C00090919B02A0919C02B0919D02B0588093A5
:1003D0009A0290939B02A0939C02B0939D0260911D
:1003E0009A0270919B0280919C0290919D02609074
:1003F000AA037090AB038090AC039090AD03A4016E
:1004000093010E94A32488230CF089C060919A0272
:1004100070919B0280919C0290919D02A090A203FA
:10042000B090A303C090A403D090A503A6019501AA
:100430000E94A324882344F4A0929A02B0929B02C3
:10044000C0929C02D0929D0260919A0270919B0290
:1004500080919C0290919D02A40193010E943F22F1
:100460007B018C0117FB109517F9109543C0609123
:100470009A0270919B0280919C0290919D026090E3
:10048000A6037090A7038090A8039090A903A401ED
:1004900093010E94432418160CF041C060919A0207
:1004A00070919B0280919C0290919D02A0909E036E
:1004B000B0909F03C090A003D090A103A601950126
:1004C0000E944324181644F4A0929A02B0929B0210
:1004D000C0929C02D0929D0260919A0270919B0200
:1004E00080919C0290919D02A40193010E943F2261
:1004F0007B018C01C601B501A40193010E943F223A
:100500009B01AC01C801B7010E94972360939A0236
:1005100070939B0280939C0290939D020CC080E09C
:1005200090E0A0E0B0E080939A0290939B02A093A9
:100530009C02B0939D02CB9B69C080919E029091DA
:100540009F02A091A002B091A102B05880939E0298
:1005500090939F02A093A002B093A10260919E028B
:1005600070919F028091A0029091A102A090B00290
:10057000B090B102C090B202D090B302A601950132
:100580000E94A32488230CF099C060919E02709170
:100590009F028091A0029091A1022091A20330912C
:1005A000A3034091A4035091A5030E94A324882390
:1005B00084F48091A8029091A902A091AA02B0911E
:1005C000AB0280939E0290939F02A093A002B093EF
:1005D000A10260919E0270919F028091A002909171
:1005E000A102A60195010E943F227B018C0117FB0D
:1005F000109517F910956091A8027091A902809149
:10060000AA029091AB02A601950147C060919E029B
:1006100070919F028091A0029091A1026090AC0223
:100620007090AD028090AE029090AF02A401930151
:100630000E94432418160CF041C060919E027091F4
:100640009F028091A0029091A102A090A402B0907C
:10065000A502C090A602D090A702A60195010E9413
:100660004324181644F4A0929E02B0929F02C092B6
:10067000A002D092A10260919E0270919F0280918F
:10068000A0029091A102A40193010E943F227B014C
:100690008C01C601B501A40193010E943F229B0178
:1006A000AC01C801B7010E94972360939E0270932A
:1006B0009F028093A0029093A1020CC080E090E082
:1006C000A0E0B0E080939E0290939F02A093A002CE
:1006D000B093A102109265051092640510929D03DB
:1006E00010929C03109267051092660581E080933A
:1006F00069031F910F91FF90EF90DF90CF90BF9013
:10070000AF909F908F907F906F9008951F9310915E
:100710006805113031F40E94A80110926805109309
:10072000CB031F910895EF92FF920F931F9380E0E8
:1007300090E0A0E0B0E08093C8029093C902A0933B
:10074000CA02B093CB0281E08093CA031ABC1BBCDF
:1007500018BC19BC84E082BB80E18BBB1092700393
:100760001092940325C0809168058823E1F30E94CC
:10077000A8016091C8027091C9028091CA0290914B
:10078000CB0220919A0230919B0240919C025091A1
:100790009D020E9470226093C8027093C9028093E8
:1007A000CA029093CB02809194038F5F809394034D
:1007B000809194038931B8F26091C8027091C902A6
:1007C0008091CA029091CB0220E030EC4FE754E4D4
:1007D0000E949D2220E030E048EC51E40E949723E3
:1007E0006093AE037093AF038093B0039093B10313
:1007F00080E090E0A0E0B0E08093C8029093C9024E
:10080000A093CA02B093CB0284E082BB1BBA1092C1
:10081000940325C0809168058823E1F30E94A80114
:100820006091C8027091C9028091CA029091CB0276
:1008300020919A0230919B0240919C0250919D021E
:100840000E9470226093C8027093C9028093CA020A
:100850009093CB02809194038F5F80939403809157
:1008600094038931B8F26091C8027091C9028091F5
:10087000CA029091CB0220E030EC4FE754E40E9492
:100880009D2220E030E048EC51E40E9497236093E1
:10089000B6037093B7038093B8039093B90380E0D5
:1008A00090E0A0E0B0E08093C8029093C902A093CA
:1008B000CA02B093CB0288E082BB80E18BBB10926E
:1008C000940325C0809168058823E1F30E94A80164
:1008D0006091C8027091C9028091CA029091CB02C6
:1008E00020919A0230919B0240919C0250919D026E
:1008F0000E9470226093C8027093C9028093CA025A
:100900009093CB02809194038F5F809394038091A6
:1009100094038931B8F26091C8027091C902809144
:10092000CA029091CB0220E030EC4FE754E40E94E1
:100930009D2220E030E048EC51E40E949723609330
:10094000B2037093B3038093B4039093B50380E034
:1009500090E0A0E0B0E08093C8029093C902A09319
:10096000CA02B093CB0288E082BB1BBA10929403F8
:1009700025C0809168058823E1F30E94A801609159
:10098000C8027091C9028091CA029091CB02209155
:100990009A0230919B0240919C0250919D020E94CC
:1009A00070226093C8027093C9028093CA02909328
:1009B000CB02809194038F5F809394038091940382
:1009C0008931B8F26091C8027091C9028091CA025F
:1009D0009091CB0220E030EC4FE754E40E949D223E
:1009E00020E030E048EC51E40E9497236093BA0382
:1009F0007093BB038093BC039093BD0380E090E0B1
:100A0000A0E0B0E08093C8029093C902A093CA020C
:100A1000B093CB0220E422BB20E12BBB8093C80221
:100A20009093C902A093CA02B093CB021092940390
:100A300025C0809168058823E1F30E94A801609198
:100A4000C8027091C9028091CA029091CB02209194
:100A50009E0230919F024091A0025091A1020E94FB
:100A600070226093C8027093C9028093CA02909367
:100A7000CB02809194038F5F8093940380919403C1
:100A80008931B8F26091C8027091C9028091CA029E
:100A90009091CB0220E030EC4FE754E40E949D227D
:100AA00020E030E048EC51E40E9497236093B402C8
:100AB0007093B5028093B6029093B70280E090E005
:100AC000A0E0B0E08093C8029093C902A093CA024C
:100AD000B093CB0280E482BB1BBA1092940325C072
:100AE000809168058823E1F30E94A8016091C80203
:100AF0007091C9028091CA029091CB0220919E020E
:100B000030919F024091A0025091A1020E94702258
:100B10006093C8027093C9028093CA029093CB027B
:100B2000809194038F5F8093940380919403893123
:100B3000B8F26091C8027091C9028091CA02909186
:100B4000CB0220E030EC4FE754E40E949D2220E0ED
:100B500030E048EC51E40E9497236093BC0270930C
:100B6000BD028093BE029093BF0280E090E0A0E0BF
:100B7000B0E08093C8029093C902A093CA02B093D8
:100B8000CB0280E882BB80E18BBB1092940325C02E
:100B9000809168058823E1F30E94A8016091C80252
:100BA0007091C9028091CA029091CB0220919E025D
:100BB00030919F024091A0025091A1020E947022A8
:100BC0006093C8027093C9028093CA029093CB02CB
:100BD000809194038F5F8093940380919403893173
:100BE000B8F26091C8027091C9028091CA029091D6
:100BF000CB0220E030EC4FE754E40E949D2220E03D
:100C000030E048EC51E40E9497236093B80270935F
:100C1000B9028093BA029093BB0280E090E0A0E01A
:100C2000B0E08093C8029093C902A093CA02B09327
:100C3000CB0280E882BB1BBA1092940325C080913E
:100C400068058823E1F30E94A8016091C8027091B1
:100C5000C9028091CA029091CB0220919E023091EC
:100C60009F024091A0025091A1020E9470226093C5
:100C7000C8027093C9028093CA029093CB028091FC
:100C800094038F5F80939403809194038931B8F229
:100C90006091C8027091C9028091CA029091CB0202
:100CA00020E030EC4FE754E40E949D2220E030E049
:100CB00048EC51E40E949723DC019B01AC01209396
:100CC000C0023093C1024093C2025093C30220E09D
:100CD00030E040E050E02093C8023093C9024093D6
:100CE000CA025093CB02E090AE03F090AF030091A4
:100CF000B0031091B103E0929E03F0929F03009322
:100D0000A0031093A1032091B6033091B703409143
:100D1000B8035091B9032093A6033093A7034093DF
:100D2000A8035093A9032091B2033091B3034091DB
:100D3000B4035091B5032093A2033093A3034093CF
:100D4000A4035093A5032091BA033091BB034091B3
:100D5000BC035091BD032093AA033093AB0340938F
:100D6000AC035093AD032091B4023091B502409191
:100D7000B6025091B7022093A4023093A50240938B
:100D8000A6025093A7022091BC023091BD0240916F
:100D9000BE025091BF022093AC023093AD0240934B
:100DA000AE025093AF022091B8023091B902409147
:100DB000BA025091BB022093A8023093A90240933B
:100DC000AA025093AB02CB018093B0029093B10280
:100DD000A093B202B093B302C801B70120E030E0A3
:100DE00048EC51E40E94432418166CF4C801B70182
:100DF00020E030E048E452E40E94A32488231CF45D
:100E00008EE088BBFFCF1092CA0312BA1F910F91D8
:100E1000FF90EF900895809169038823E1F3109289
:100E20006903809169038823E1F308951092CC024D
:100E300010929A031092CE038FEB88BB10929A0304
:100E40001092CC021092CE0380E8809379038FE752
:100E500088BB10927C0310927B0310927E03109249
:100E60007D031092800310927F0310929A031092D8
:100E7000CC021092CE031092730310929B0308953C
:100E800080E4809379038FEB88BB10927C031092EF
:100E90007B0310927E0310927D03109280031092C8
:100EA0007F0310929A031092CC021092CE03089501
:100EB00080917303882321F080917903806103C0BE
:100EC000809179038F7E8093790380919B0388239F
:100ED00021F080917903846003C0809179038B7F36
:100EE00080937903089580E8809379038FE788BB26
:100EF00010927C0310927B0310927E0310927D036C
:100F00001092800310927F0310929A031092CC02E9
:100F10001092CE031092730310929B030895809158
:100F2000CE03882339F080917A0381FD03C082606B
:100F300080937A0380917B0390917C03009711F159
:100F4000019690937C0380937B0380549F4148F1EA
:100F50008091790381FF0AC08D7F8093790381E0BE
:100F600090E090937C0380937B03089510927C0320
:100F700010927B031092CE0380917A038D7F809331
:100F80007A03089580917A0381FF0BC080917903E1
:100F900082608093790381E090E090937C0380935A
:100FA0007B0308958091CC02882339F080917A03E5
:100FB00085FD03C0806280937A0380917D039091C8
:100FC0007E03009711F1019690937E0380937D0339
:100FD0008051974248F18091790385FF0AC08F7D47
:100FE0008093790381E090E090937E0380937D036A
:100FF000089510927E0310927D031092CC0280918E
:101000007A038F7D80937A03089580917A0385FF18
:101010000BC08091790380628093790381E090E036
:1010200090937E0380937D03089580919A03882393
:1010300039F080917A0383FD03C0886080937A033E
:1010400080917F0390918003009711F10196909316
:10105000800380937F038051974248F18091790308
:1010600083FF0AC0877F8093790381E090E09093AB
:10107000800380937F0308951092800310927F0372
:1010800010929A0380917A03877F80937A03089560
:1010900080917A0383FF0BC08091790388608093ED
:1010A000790381E090E09093800380937F0308951B
:1010B0000E948F070E94D2070E9415088091730337
:1010C000882321F080917903806103C080917903A6
:1010D0008F7E8093790380919B03882321F08091F8
:1010E0007903846003C0809179038B7F80937903B7
:1010F00080917903806880937903809588BB0895F7
:101100002F923F924F925F926F927F928F929F9217
:10111000AF92BF92CF92DF92EF92FF920F931F9305
:10112000DF93CF93CDB7DEB760970FB6F894DEBFED
:101130000FBECDBF6F83788789879A872B873C87BF
:101140004D875E8727013801988A8F86C801B701CD
:1011500020E030E040E85FE30E94432418165CF48E
:101160000F2EF0E04F2EF0E05F2EF0E86F2EFFE341
:101170007F2EF02D14C0C801B70120E030E040E818
:101180005FEB0E94A324882354F40F2EF0E04F2E2F
:10119000F0E05F2EF0E86F2EFFEB7F2EF02DC60102
:1011A000B50120E030E040E85FE30E9443241816D8
:1011B0005CF40F2EF0E0AF2EF0E0BF2EF0E8CF2E63
:1011C000FFE3DF2EF02D14C0C601B50120E030E0B2
:1011D00040E85FEB0E94A324882354F40F2EF0E034
:1011E000AF2EF0E0BF2EF0E8CF2EFFEBDF2EF02D7C
:1011F000E0908602F09087020091880210918902A7
:10120000E0928202F092830200938402109385029E
:10121000C601B501A30192010E943F222AE132E6F4
:1012200046E850E40E949D226B837C838D839E83DD
:10123000609386027093870280938802909389025C
:10124000C601B501A30192010E94702220E030E0A6
:1012500040E05FE30E949D223B014C0160937E02CF
:1012600070937F0280938002909381026B817C81D6
:101270008D819E81A80197010E9470222AE037ED9E
:1012800043E25BE30E949D2220918E0230918F0207
:1012900040919002509191020E9470227B018C013A
:1012A0002BED3FE049EC50E40E94432418164CF427
:1012B000C801B7012BED3FE049EC50E40E943F220A
:1012C00012C0C801B70120E030E040E050E00E94C9
:1012D000A324882354F4C801B7012BED3FE049EC67
:1012E00050E40E9470227B018C01E0928E02F09209
:1012F0008F020093900210939102C801B7012BED69
:101300003FE049E450E40E9470229B01AC016B85F0
:101310007C858D859E850E94732488235CF06B8577
:101320007C858D859E852BED3FE049EC50E40E9445
:101330003F221CC0C801B7012BED3FE049E450E457
:101340000E943F229B01AC016B857C858D859E852B
:101350000E94D324181674F06B857C858D859E853C
:101360002BED3FE049EC50E40E9470226B877C87B4
:101370008D879E876B857C858D859E85A8019701CD
:101380000E943F225B016C0160938A0270938B0282
:1013900080938C0290938D02C401B30128EE31EB4F
:1013A00049E750EC0E949D227B018C016F8178857A
:1013B00089859A8524EF38ED4CE950E40E949D22FE
:1013C0009B01AC01C801B7010E9470223B014C0196
:1013D000C601B50121E237EA44E95FE30E949D229C
:1013E0007B018C016B817C818D819E8128E137EAB4
:1013F00044E15FEB0E949D229B01AC01C801B70153
:101400000E9470225B016C0120E030E040E050E07F
:101410000E94732487FF03C00FEF1FEF02C001E09B
:1014200010E01093750200937402C401B30120E030
:1014300030E040E050E00E94732487FF05C02FEFAA
:101440003FEF3A83298304C081E090E09A83898347
:10145000A981BA81B0937302A0937202B801882760
:1014600077FD8095982F0E9403251B012C01A60172
:1014700095010E949D227B018C0120E030E040E834
:101480005FE30E94432418161CF46201510114C04A
:10149000C801B7012DEC3CEC4CE45DE30E94D32481
:1014A000181654F00F2EF0E0AF2EF0E0BF2EF0E053
:1014B000CF2EF0E0DF2EF02DA0927602B0927702D0
:1014C000C0927802D0927902E981FA81BF0188271F
:1014D00077FD8095982F0E9403257B018C01A40144
:1014E00093010E949D2220E030E040E85FE30E94EB
:1014F0004324181614F437014801C201B101A601B2
:1015000095010E949D229B01AC0160E070E080E8A3
:101510009FE30E943F221B012C01C801B701A401D7
:1015200093010E949D22A20191010E94432418165A
:1015300044F4C801B701A20191010E949D223B0120
:101540004C0160927A0270927B0280927C029092AF
:101550007D02C401B301A60195010E947022ADA1D4
:10156000BEA16D937D938D939C931397C401B3019A
:10157000A60195010E943F22EF85F889608371835F
:1015800082839383ADA1BEA1ED90FD900D911C913E
:10159000C801B70124EA30E74DE75FE30E94432426
:1015A00018165CF40F2EF4EAEF2EF0E7FF2EFDE79D
:1015B0000F2FFFE31F2FF02D14C0C801B70124EA3D
:1015C00030E74DE75FEB0E94A324882354F40F2EED
:1015D000F4EAEF2EF0E7FF2EFDE70F2FFFEB1F2FB2
:1015E000F02DEDA1FEA1E082F18202831383AF858D
:1015F000B889ED90FD900D911C91C801B70124EAC6
:1016000030E74DE75FE30E94432418165CF40F2E89
:10161000F4EAEF2EF0E7FF2EFDE70F2FFFE31F2F79
:10162000F02D14C0C801B70124EA30E74DE75FEBA5
:101630000E94A324882354F40F2EF4EAEF2EF0E73F
:10164000FF2EFDE70F2FFFEB1F2FF02DEF85F88901
:10165000E082F1820283138360960FB6F894DEBFB6
:101660000FBECDBFCF91DF911F910F91FF90EF90F3
:10167000DF90CF90BF90AF909F908F907F906F90B2
:101680005F904F903F902F9008958CEC8093CD0306
:101690008091CD0382BB84E68093920310929303E2
:1016A00080E090E0A0E0B0E080939A0290939B02EB
:1016B000A0939C02B0939D0280939E0290939F0200
:1016C000A093A002B093A1028093D0039093D10382
:1016D000A093D203B093D3038093740390937503C4
:1016E000A0937603B093770380939602909397022A
:1016F000A0939802B09399028093920290939302E0
:10170000A0939402B09395021BBC1ABC19BC18BCE0
:10171000089580916C0390916D031816190624F4B6
:1017200084E08093CD031DC080916C0390916D0384
:1017300097FF0FC088E08093CD0380916C03909158
:101740006D03909581959F4F90936D0380936C03EB
:1017500008C080916C0390916D03892B11F4109255
:10176000CD0380916E0390916F031816190624F42F
:101770008091CD03806422C080916E0390916F03AD
:1017800097FF11C08091CD0380688093CD03809135
:101790006E0390916F03909581959F4F90936F0387
:1017A00080936E03089580916E0390916F03892B4F
:1017B00061F48091CD03882321F48CEC8093CD03D8
:1017C00008958091CD038093CD0308958091C40343
:1017D000813021F08091A302813031F41BBC1ABC0E
:1017E00019BC18BC8CEC0EC080916C0390916D03F9
:1017F0009BBD8ABD80916E0390916F0399BD88BD9A
:101800008091CD0382BB08956091D0037091D10384
:101810008091D2039091D30320E030E44CE156E470
:101820000E949D220E94612570936D0360936C035A
:1018300060917403709175038091760390917703A2
:1018400020E030E44CE156E40E949D220E94612594
:1018500070936F0360936E0308958F929F92AF927F
:10186000BF92CF92DF92EF92FF920F931F93E0907F
:101870009A02F0909B0200919C0210919D02A09010
:101880009E02B0909F02C090A002D090A10200D012
:1018900060919602709197028091980290919902BE
:1018A00020919202309193024091940250919502BE
:1018B000E4E7F3E0ADB7BEB71296FC93EE93119751
:1018C000E0ED8E2EE3E09E2E0E9480086091D00312
:1018D0007091D1038091D2039091D30320E030E442
:1018E0004CE156E40E949D220E94612570936D0395
:1018F00060936C036091740370917503809176031B
:101900009091770320E030E44CE156E40E949D2260
:101910000E94612570936F0360936E030F900F9088
:101920000E94890B8091C403813021F08091A30231
:10193000813031F41BBC1ABC19BC18BC8CEC0EC035
:1019400080916C0390916D039BBD8ABD80916E0365
:1019500090916F0399BD88BD8091CD0382BB109299
:1019600069031F910F91FF90EF90DF90CF90BF9090
:10197000AF909F908F9008958FEF87BB8EEF81BBC4
:1019800080E18ABB1092CC0308958CE181BD08955B
:10199000CE990CC081E08093CC0318BACE9BFECFC9
:1019A0000E9473078CE181BD0E94F00CCF990AC0A0
:1019B0001092CC031BBC1ABC19BC18BC18BACF9B24
:1019C000FECFA895089581E08093880380938A03D1
:1019D00010926B031092A20281B986EC80B908952F
:1019E0001092A20281E08093880380938A03109270
:1019F000C4031092A30210926B03109289038EE22B
:101A000080938103089581B1887F809378038091CA
:101A10007803883209F43FC0893288F4803101F1BB
:101A2000813138F4882309F4A0C0883009F0A3C0BC
:101A300026C0883141F1803209F09DC028C0803431
:101A4000F1F1813438F4803309F495C0883309F01A
:101A500092C08BC08035A9F1883509F08CC085C053
:101A600080918703882359F010928703809189031E
:101A7000823011F483EE01C081EE80938203809165
:101A8000820383B970C08091830383B918C081E059
:101A900080938A0368C080918503882331F0809108
:101AA000840383B9109285035EC0809186038823E6
:101AB00009F45BC081E08093870385EA5AC085EC16
:101AC00058C08091A2028230A1F4809186038823BD
:101AD00081F080918903823021F483B180938E0359
:101AE00042C0809189038130F1F583B180938C03EA
:101AF0003AC08091A2028330B1F580918603882399
:101B000091F1809189038230B1F483B180938D0388
:101B100080918D038F3F51F080918E038F3031F093
:101B200081E08093A302809373031DC01092A302EF
:101B30001092730318C0909189039130A1F483B17E
:101B400080938B0380918B038F3F49F080918C03AE
:101B50008F3029F09093C40390939B0304C010929C
:101B6000C40310929B0385E804C081E080938A033C
:101B700084E986BF089581E080938A030895909157
:101B80008803913009F04DC0909385038091A202A3
:101B90008130C9F0813028F08230F1F0833071F566
:101BA0002BC082EE8093820382E080938303809136
:101BB0008103809384038091A2028F5F8093A202AD
:101BC00085EA86BF2EC080EE8093820382E08093F8
:101BD00083038091810306C082EE809382039093F9
:101BE00083038AE08093840385EA86BF8091A20202
:101BF0008F5F8093A20215C080EEEFCF1092A202F9
:101C000010928503109288039093860382EE80934E
:101C1000820310926B0390938A039093890310922E
:101C2000850380918603882309F467C080916B0344
:101C30008A30B8F080918903823031F481E080935A
:101C400089038093CC0206C082E08093890381E0FF
:101C500080939A031092A20210926B0381E080930A
:101C60008A038091A202813001F1813018F0823024
:101C7000E1F526C080918903823011F480EE01C025
:101C800082EE809382031092830391E09093850308
:101C900081E5809384038091A2028F5F8093A202EA
:101CA00085EA86BF909386030895809189038230E8
:101CB00011F482EE01C080EE8093820382E006C0C0
:101CC000809182038E7F8093820383E080938303DD
:101CD0001092850385EA86BF8091A2028F5F809370
:101CE000A20281E080938603089583E08093A2029C
:101CF00081E080938A0380938603089580918A030C
:101D0000882321F010928A030E94BF0D08950E943B
:101D100025110E94030D0E94251182EA8FBD8AE1E0
:101D20008EBD80E197E297BD86BD89B7846089BF8B
:101D30001BBC1ABC19BC18BC109268031092CB03D0
:101D40001092CA0308958091CB03813069F4809189
:101D50006B038B3028F480916B038F5F80936B0350
:101D60000E942D0C1092CB0308950E94251181E052
:101D70008093CB030E94192086E880BD88ED8AB944
:101D800010BC87E689B91092C30381E08093CF032A
:101D90008093C603109269051092C50310929003B8
:101DA000109291031092950308958091C30381309E
:101DB000E1F0813018F0823061F51FC08091C203DC
:101DC000813F11F481E016C080919503823019F4AF
:101DD0001092950308958091C203803FD1F4109230
:101DE000C30381E08093950308958091C20380939B
:101DF000920382E08093C30308958091C20380938D
:101E0000930383E08093C30381E08093C5038093B1
:101E1000CE030895482F1092CF038091C6038823E4
:101E2000E1F31092C6038EEF8CB9242F392FC9012C
:101E3000FC0190E00AC020818091C6038823E1F371
:101E40001092C6032CB99F5F31969617A0F380912C
:101E5000C6038823E1F31092C6038FEF8CB981E0AB
:101E60008093CF030895982F8091C6038823E1F3D0
:101E70001092C6039CB908958091C503813009F082
:101E80004AC0A89590919003809192039817F9F019
:101E900080919203809390036091900370E080E0C2
:101EA00090E00E94B52520E030E048EC52E40E942A
:101EB0003F2220E030E048EC52E40E9497236093F8
:101EC0009602709397028093980290939902909152
:101ED0009103809193039817D9F080919303809395
:101EE00091036091910370E0882777FD8095982F8A
:101EF0000E94032526E33AEF4EE05DE30E949D2217
:101F0000609392027093930280939402909395024F
:101F10001092C5030895809195038823B9F0A89580
:101F200084E680939003109291038093920380E063
:101F300090E0A0E0B0E08093960290939702A09387
:101F40009802B093990282E08093950308950E94CD
:101F500025118CB18093C2030E94D50E8091CF03CE
:101F6000813039F48091C6038823E1F38091C20364
:101F70008CB981E0809369050E9419200E94251187
:101F800081E08093C6030E941920FA018083929316
:101F90001292129280E882931292129212921292EC
:101FA000129212926293729312921292129212925F
:101FB0001292129212921292129212921292129201
:101FC00012921292129212921292129212921292F1
:101FD000129212923197CF01089580916B058F5F15
:101FE00080936B05E091AB05F091AC058081918108
:101FF0009EBF8DBFDF91CF911F910F91FF90EF900A
:10200000DF90CF90BF90AF909F908F907F906F9018
:102010005F904F903F902F90FF91EF91BF91AF91C4
:102020009F918F917F916F915F914F911F900F9032
:102030002F912FBF3F912F9108952F933F932FB74B
:102040002F930F921F924F935F936F937F938F9372
:102050009F93AF93BF93EF93FF932F923F924F9233
:102060005F926F927F928F929F92AF92BF92CF9228
:10207000DF92EF92FF920F931F93CF93DF938DB771
:102080009EB7E091B605F091B7059183808380916A
:10209000700580938505E091AB05F091AC05F09358
:1020A000B705E093B605808191819EBF8DBFDF911A
:1020B000CF911F910F91FF90EF90DF90CF90BF9045
:1020C000AF909F908F907F906F905F904F903F90D8
:1020D0002F90FF91EF91BF91AF919F918F917F9141
:1020E0006F915F914F911F900F902F912FBF3F9154
:1020F0002F9108958DB79EB7E091B605F091B70581
:102100000696918380838091700580938505E09188
:10211000AB05F091AC05F093B705E093B60580816F
:1021200091819EBF8DBFDF91CF911F910F91FF9045
:10213000EF90DF90CF90BF90AF909F908F907F9067
:102140006F905F904F903F902F90FF91EF91BF91D4
:10215000AF919F918F917F916F915F914F911F9060
:102160000F902F912FBF3F912F91089589B78F73B3
:1021700089BF8DE085BD14BC8CE783BD88B7806CBA
:1021800088BF89B7806889BF089508950895089524
:102190000895089508950895089508952F933F93FD
:1021A0002FB720682F930F921F924F935F936F93D7
:1021B0007F938F939F93AF93BF93EF93FF93809100
:1021C000B505882391F42F923F924F925F926F92C0
:1021D0007F928F929F92AF92BF92CF92DF92EF92B7
:1021E000FF920F931F93CF93DF938F5F8093B5057B
:1021F0000E94A21FF8940E9419208091B50588239F
:1022000091F4DF91CF911F910F91FF90EF90DF90AC
:10221000CF90BF90AF909F908F907F906F905F9086
:102220004F903F902F90FF91EF91BF91AF919F9171
:102230008F917F916F915F914F911F900F902F9190
:102240002F772FBF3F912F91189580916B0581308B
:1022500039F48091B5058F3F19F08F5F8093B505F4
:10226000089584E091E00895FF920F931F93CF9318
:10227000DF93EC018B01F42E3981E32FF0E0E85974
:10228000FF4F2081422F50E0FA01E05AFF4F70814A
:10229000DC01A40FB51F16969C911697E92FF0E06C
:1022A000E859FF4F8081E82FF0E0E05AFF4F60814E
:1022B000220F220F220F280F862F80958923169632
:1022C0008C93882321F4872F809538233983E22F3C
:1022D000F0E0EE0FFF1FE458F84F0190F081E02D81
:1022E0001486138617821682118700878F2D80959A
:1022F000958589238587882359F48091AF05872B9D
:102300008093AF05FA01E055FA4F8081682B608316
:10231000822FDF91CF911F910F91FF900895CF935E
:10232000DF93EC01A091B605B091B70517969C9389
:102330008E93169750968C915097282F30E0519697
:102340004C915197F901E055FA4F842F8095908177
:1023500089238083882349F452969C9152979095C3
:102360008091AF0589238093AF05FE01E20FF31F33
:102370008681842B8683898152969C91892B8983BF
:10238000DF91CF910895CF93DF93EC01A091B60533
:10239000B091B70550968C915097FE01E80FF11D52
:1023A00051968C91519780959681892386838823B5
:1023B00039F452969C91529790958981892389830B
:1023C0001D961C921D9717961C921E921697DF91D0
:1023D000CF910895FC011182168217820895FC01A5
:1023E000D9018081853021F081E08C9380E00895CF
:1023F00047FD02C020E002C04F7721E01C920F92FF
:102400000FB60F92F894413009F43CC0413040F1CE
:10241000423021F0433009F046C012C09381862F2C
:102420008923861731F4213031F460959623938304
:1024300002C088E98C9383810F900FBE0F9008959E
:102440008381682331F0213031F460956823638300
:1024500002C088E98C9383810F900FBE0F9008957E
:102460009381892F80958623861729F4213029F4BA
:10247000962B938302C088E98C9383810F900FBEC3
:102480000F9008959381892F8095862329F021301C
:1024900029F4892B838302C088E98C9383810F9070
:1024A0000FBE0F9008950F900FBE0F9087E98C9389
:1024B00080E00895282FDB018091B505882329F05D
:1024C0008DE88C93E0E0F0E01FC00F920FB60F9202
:1024D000F894E0917A07F0917B07309781F0818141
:1024E000928190937B0780937A0785E08083238392
:1024F000128211820F900FBE0F901C9205C00F9098
:102500000FBE0F908AE98C93CF0108950F920FB6FA
:102510000F92F8940F920FB60F92F894E091B605CF
:10252000F091B70582850895FC01DB01808185303B
:1025300021F081E08C9380E008950F920FB60F9206
:10254000F89483810F900FBE0F901C920895CF9343
:10255000DF93EC01AC81BD811C961C921E921B97EF
:102560001A966C931A971D968C911D978F7D1D96C8
:102570008C931D97882311F080E014C08091AF05E3
:1025800052969C915297892B8093AF055096EC916F
:102590005097F0E0E055FA4F808151969C91892B3D
:1025A000808381E0EA81FB81A881B981309759F469
:1025B000EE81FF81B283A183109769F013961C927C
:1025C0001E92129708C0B183A083109721F0139632
:1025D000FC93EE931297DF91CF910895CF93DF9301
:1025E000FC01C281D381A081B181209761F4068072
:1025F000F781E02DB283A183109769F013961C92A6
:102600001E92129708C0B983A883109721F01396E1
:10261000DC93CE931297DF91CF910895FC018081D6
:10262000813019F020E030E00BC00F920FB60F920E
:10263000F89424813581158214820F900FBE0F907B
:10264000C90108959C018091B505882319F0E0E047
:10265000F0E01EC00F920FB60F92F894E091B20511
:10266000F091B305309731F0848195819093B30553
:102670008093B2050F900FBE0F90309749F081E024
:1026800080831382128235832483118216821782FB
:10269000CF010895FC01DB018081813011F081E0E0
:1026A00008950F920FB60F92F894818114968C932F
:1026B0001497868112968C931297878113968C9328
:1026C0001397848195818D939C930F900FBE0F90EB
:1026D00080E00895CF93DF93DC01EB018091B50595
:1026E000882311F082E004C08C91843019F081E0DD
:1026F000888325C00F920FB60F92F89412962D91F1
:102700003C9113972F3FB9F4E091B605F091B705CE
:10271000868590E02070822B932B13969C938E934A
:1027200012971596FC93EE9314970F900FBE0F908F
:10273000188281E005C00F900FBE0F90188280E0D4
:10274000DF91CF910895CF93DF93282FEB018091F4
:10275000B505882311F08DE812C00F920FB60F92C5
:10276000F894E22FF0E0EE0FFF1FE458F84F80815D
:102770009181892B41F00F900FBE0F9088E28883E2
:10278000A0E0B0E034C081E090E091838083A0912C
:10279000B205B091B305109741F4118210820F90E9
:1027A0000FBE0F9084E0888322C014968D919C9177
:1027B00015979093B3058093B2050F900FBE0F90BD
:1027C00084E08C93922F80E08F6F13969C938E936E
:1027D000129715961C921E92149711961C9211979F
:1027E00016961C92169717961C9217971882CD0171
:1027F000DF91CF910895DC01FB018091B50588231D
:1028000011F086E008958C91843011F081E00895F4
:102810000F920FB60F92F89412969C9112971396FE
:102820008C911397858394839F3F19F481E0838370
:1028300001C0138211968C911197828316968C9108
:102840001697808317968C9181830F900FBE0F90FF
:1028500080E00895CF93DF93FC01EB01808182300B
:1028600029F081E0888320E030E033C00F920FB67A
:102870000F92F894A481B5811C968D919C911D971F
:10288000009701F11896ED91FC91199721913191E2
:102890001996FC93EE93189701971D969C938E932F
:1028A0001C9714968D919C911597E817F90741F4A0
:1028B00012968D919C91139719969C938E931897CD
:1028C000188204C08FE1888320E030E00F900FBEB3
:1028D0000F90C901DF91CF9108959C018091B505BA
:1028E000882309F05FC00F920FB60F92F894A09161
:1028F000B205B091B305109741F014968D919C915B
:1029000015979093B3058093B2050F900FBE0F906B
:10291000109709F449C00F920FB60F92F894E09106
:10292000AD05F091AE05309771F180819181909362
:10293000AE058093AD050F900FBE0F9033832283B9
:10294000CB01880F991F820F931F95838483378350
:10295000268331872087738762871586148682E0F5
:102960008C9313961C921E9212971596FC93EE93DD
:10297000149711961C92119716961C9216971796FB
:102980001C92179711C08091B2059091B3051596CE
:102990009C938E931497B093B305A093B2050F90B8
:1029A0000FBE0F90A0E0B0E0CD010895FC010F92A2
:1029B0000FB60F92F8940480F581E02D8281938107
:1029C0009783868391878087158614860F900FBE24
:1029D0000F9080E00895CF93DF93FC01DB018081AD
:1029E000823011F081E031C00F920FB60F92F8944F
:1029F000818118968C931897868116968C931697DA
:102A0000878117968C931797C481D5818C859D8576
:102A1000892B41F0E885F9858081918111969C93FD
:102A20008E9303C011961C921E928C859D851396E1
:102A30009C938E9312978A859B8515969C938E9373
:102A400014970F900FBE0F9080E0DF91CF91089503
:102A5000FC018081833019F020E030E012C00F9239
:102A60000FB60F92F894228133812115310531F090
:102A700021503040338322832F5F3F4F0F900FBE92
:102A80000F90C90108959C018091B505882319F024
:102A9000E0E0F0E01EC00F920FB60F92F894E091C4
:102AA000B205F091B305309731F084819581909310
:102AB000B3058093B2050F900FBE0F90309749F089
:102AC00083E08083338322831582148211821682ED
:102AD0001782CF010895FC01DB018081833011F062
:102AE00081E008950F920FB60F92F89481811496A9
:102AF0008C931497868112968C93129787811396E4
:102B00008C931397828193818D939C930F900FBE2A
:102B10000F9080E008950F920FB60F92F8948F3FB8
:102B200029F4E091B605F091B7058685E82FF0E02D
:102B3000EE0FFF1FE458F84F0190F081E02D309721
:102B400029F40F900FBE0F9089E20895DB0183E115
:102B500001900D928150E1F70F900FBE0F900895F4
:102B6000EFE8F5E08CE1DF011D928A95E9F73E96EA
:102B7000F0939005E0938F053E9710929E0510927A
:102B80009D05F093AE05E093AD050895E1E7F5E00E
:102B900084E1DF011D928A95E9F7CF010496108246
:102BA00092838183FC01B5E081389B07B1F71082E5
:102BB000128211827097F0937B07E0937A07089551
:102BC0001F93CF93DF93182F0F920FB60F92F894A5
:102BD000C0918C05D0918D05209709F45AC08A8147
:102BE0009B8190938D0580938C050F900FBE0F9065
:102BF000798368831E871D861C861B86E12FE695D8
:102C0000E695E695E88BF0E0E05AFF4F80818A8BED
:102C1000E12FE770EF87F0E0E05AFF4F8081898B6A
:102C20001F821E8219861886CE010E94CC10CE010A
:102C30000E94C7100F920FB60F92F894E12FF0E0A8
:102C4000EE0FFF1FE458F84FD183C083E091860553
:102C5000F0918705FB83EA831D821C82309711F077
:102C6000D583C483D0938705C09386058091AF0533
:102C70009A89892B8093AF05E889F0E0E055FA4FF7
:102C800080819989892B80830F900FBE0F9080E0FF
:102C900004C00F900FBE0F9086E4DF91CF911F917B
:102CA00008950F920FB60F92F89480916C05909151
:102CB0006D05A0916E05B0916F050196A11DB11D26
:102CC00080936C0590936D05A0936E05B0936F058E
:102CD0000F900FBE0F900E94C910E3CF0F920FB656
:102CE0000F92F8948091B505882309F03FC0809138
:102CF0006A058823D9F5E091AF05F0E0E859FF4F68
:102D00008081E82FF0E0E055FA4FE081F0E0E859EB
:102D1000FF4F982F990F990F990F8081980F9093DB
:102D2000700580918505981709F1E92FF0E0EE0F05
:102D3000FF1FE458F84F808191819093AC058093F8
:102D4000AB058091880590918905A0918A05B09185
:102D50008B050196A11DB11D80938805909389056F
:102D6000A0938A05B0938B050E941D100F900FBE93
:102D70000F9008958F3010F08AE208950F920FB6E9
:102D80000F92F894E82FF0E0EE0FFF1FE458F84F91
:102D9000A081B181109791F11B968D919C911C9708
:102DA000892B39F11C961C921E921B971D968C91B3
:102DB0001D9783FD19C08091AF0552969C91529743
:102DC000892B8093AF055096EC915097F0E0E05539
:102DD000FA4F808151969C91892B80830F900FBE72
:102DE0000F900E946E1603C00F900FBE0F9080E0F0
:102DF00008950F900FBE0F9080E508950F900FBEBD
:102E00000F908BE008959C01009749F10F920FB647
:102E10000F92F894A091B605B091B7055096EC9139
:102E20005097F0E0E055FA4F51968C91519780956C
:102E3000908189238083882349F452969C915297EC
:102E400090958091AF0589238093AF051C963C93A4
:102E50002E931B970F900FBE0F900E946E16089531
:102E6000AF92BF92CF92DF92EF92FF920F931F9398
:102E7000CF93DF93DC01122F0F920FB60F92F894CD
:102E8000C22FD0E0FE01EE0FFF1FE458F84F808103
:102E90009181892B09F03FC081E090E0918380838C
:102EA0000F900FBE0F90CD0120E030E00E94C50FC3
:102EB000BC01812F40E050E020E030E0EE24FF2410
:102EC0008701CC24DD24AA24BB240E94E015182FFE
:102ED000882399F40F920FB60F92F89480918E0583
:102EE0008F5F80938E050F900FBE0F9080916B05C2
:102EF0008130A9F40E946E1612C00F920FB60F9285
:102F0000F894CC0FDD1FC458D84F198218820F9047
:102F10000FBE0F9004C00F900FBE0F9018E2812FCC
:102F2000DF91CF911F910F91FF90EF90DF90CF90A5
:102F3000BF90AF900895FC018081833011F081E053
:102F400008950F920FB60F92F8948181882361F053
:102F5000CF0160E070E041E00E9434110F900FBE9D
:102F60000F900E946E160CC0828193812FEF8F3FCD
:102F7000920741F00196938382830F900FBE0F90CA
:102F800080E008950F900FBE0F9082E308950F9395
:102F90001F93CF93DF93EC018A018091B5058823BD
:102FA00011F082E080C08881833011F081E07BC025
:102FB0000F920FB60F92F8948A819B81009739F097
:102FC00001979B838A830F900FBE0F9076C0A091CC
:102FD000B605B091B7051D968C911D9781601D9621
:102FE0008C931D971C967C936E931B971796DC937E
:102FF000CE93169750968C915097282F30E051968B
:103000004C915197F901E055FA4F842F80959081AA
:1030100089238083882349F452969C9152979095F6
:103020008091AF0589238093AF05FE01E20FF31F66
:103030008681842B8683898152969C91892B8983F2
:103040000F900FBE0F900E946E160F920FB60F9248
:10305000F894A091B605B091B7051D968C911D9777
:1030600080FF24C050968C915097FE01E80FF11D0F
:1030700051968C91519780959681892386838823D8
:1030800039F452969C91529790958981892389832E
:103090001D961C921D9717961C921E9216970F90C4
:1030A0000FBE0F908AE0F801808309C017961C922A
:1030B0001E9216970F900FBE0F90F8011082DF91AD
:1030C000CF911F910F9108950F931F93CF93DF938B
:1030D000EC018B018881823011F081E076C00F9283
:1030E0000FB60F92F89489818823B1F040FD06C095
:1030F00009C0CE01B80144E00E94341189818823BF
:10310000C1F704C0CE0144E00E9434110F900FBEFD
:103110000F900E946E1658C0AC81BD811C962D91F7
:103120003C911D971A968D919C911B9728173907F2
:1031300028F00F900FBE0F908EE147C041FF1FC0D7
:1031400018962D913C91199712968D919C911397F9
:103150002817390741F414968D919C91159719966B
:103160009C938E9318971896ED91FC91199732972E
:103170001996FC93EE9318971183008319C0169645
:10318000ED91FC911797619371931796FC93EE93D1
:10319000169714968D919C911597E817F90741F4AD
:1031A00012968D919C91139717969C938E931697D8
:1031B0001C968D919C911D9701961D969C938E93C4
:1031C0001C970F900FBE0F9080E0DF91CF911F9161
:1031D0000F910895FC018081823011F081E0089503
:1031E0000F920FB60F92F8948181882359F0CF0186
:1031F00044E00E9434110F900FBE0F900E946E1693
:1032000080E00895A481B5811C962D913C911D9775
:103210001A968D919C911B972817390728F00F90CB
:103220000FBE0F908EE108951696ED91FC911797C1
:10323000619371931796FC93EE9316972F5F3F4F10
:103240001D963C932E931C9714968D919C911597E7
:10325000E817F90741F412968D919C9113971796F0
:103260009C938E9316970F900FBE0F9080E0089559
:103270000F931F93CF93DF93EC018A018091B505E3
:10328000882311F082E09AC00F920FB60F92F89443
:10329000AC81BD811C968D919C911D97009711F179
:1032A0001896ED91FC911997219131911996FC9303
:1032B000EE93189701971D969C938E931C971496E6
:1032C0008D919C911597E817F90741F412968D910D
:1032D0009C91139719969C938E9318970F900FBEFD
:1032E0000F9083C0A091B605B091B7051D968C9143
:1032F0001D9784601D968C931D971C967C936E93EE
:103300001B971796DC93CE93169750968C915097F7
:10331000282F30E051964C915197F901E055FA4F22
:10332000842F8095908189238083882349F4529645
:103330009C91529790958091AF0589238093AF051A
:10334000FE01E20FF31F8681842B868389815296CA
:103350009C91892B89830F900FBE0F900E946E164F
:103360000F920FB60F92F894A091B605B091B705E1
:103370001D968C911D9782FF26C050968C91509778
:10338000FE01E80FF11D51968C9151978095968121
:1033900089238683882339F452969C91529790957D
:1033A0008981892389831D961C921D9717961C92EB
:1033B0001E9216970F900FBE0F908AE0F80180833F
:1033C00020E030E014C018962D913C911997199681
:1033D0001C921E9218971D961C921D9717961C9270
:1033E0001E9216970F900FBE0F90F8011082C90120
:1033F000DF91CF911F910F910895CF93DF93EC014F
:103400008091B505882311F085E09FC088818430C4
:1034100011F081E09AC00F920FB60F92F8943A81A2
:103420004B81A091B605B091B7058C819D81A817FD
:10343000B90729F00F900FBE0F9088E786C01E963F
:103440008C911E97841709F04BC05096EC915097C1
:10345000F0E0E055FA4F51968C915197809590810C
:1034600089238083882349F452969C9152979095A2
:103470008091AF0589238093AF051E963C931E97DC
:10348000E32FE695E695E6955096EC935097F0E09D
:10349000E05AFF4F208152962C935297E32FE7700A
:1034A0001F96EC931F97F0E0E05AFF4F90815196E2
:1034B0009C9351978091AF05822B8093AF055096D6
:1034C000EC915097F0E0E055FA4F8081982B908373
:1034D000E32FF0E0EE0FFF1FE458F84FB183A08315
:1034E000E42FF0E0EE0FFF1FE458F84F81E090E08A
:1034F0009183808389818823E9F0CE0160E070E0C8
:1035000040E10E943411E82FF0E08A819B818070B5
:103510008E2B9F2B9B838A83EE0FFF1FE458F84F5F
:10352000808191819D838C830F900FBE0F900E94AC
:103530006E160AC08A819B818F6F9B838A831D824E
:103540001C820F900FBE0F9080E0DF91CF91089505
:10355000EF92FF920F931F93CF93DF938C017A0129
:103560008091B505882311F082E030C1F801808197
:10357000843011F081E02AC10F920FB60F92F894B7
:10358000F80182819381282F8F3FC1F4807093834B
:103590008283E091B605F091B705268530E0282BAF
:1035A000392BD80113963C932E9312971596FC93C2
:1035B000EE9314970F900FBE0F9012C1592FF80180
:1035C000A481B5811E968C911E97891709F48DC030
:1035D000E091B605F091B7058685821708F085C0A1
:1035E00050968C915097282F30E0F901E055FA4F12
:1035F000408151969C915197842F892389F0892F7E
:10360000809584238083882349F452969C91529715
:1036100090958091AF0589238093AF0591E018C004
:103620001696CD91DC911797209789F0FE01E20F55
:10363000F31F892F8095968189238683882339F407
:1036400052969C915297909589818923898390E025
:103650001E965C931E97E52FE695E695E6955096A7
:10366000EC935097F0E0E05AFF4F208152962C9354
:103670005297E52FE7701F96EC931F97F0E0E05A02
:10368000FF4F808151968C935197913091F48091A6
:10369000AF05822B8093AF055096EC915097F0E0E8
:1036A000E055FA4F808151969C915197892B8083E8
:1036B00014C01696ED91FC911797309771F08181A7
:1036C000822B818350968C915097E80FF11D868153
:1036D00051969C915197892B8683E52FF0E0EE0F50
:1036E000FF1FE458F84FB183A083A091B605B091B5
:1036F000B7051D968C911D9780611D968C931D9723
:103700001C967C936E931B9717961C930E9316979B
:103710005096EC915097F0E0E055FA4F51968C910D
:1037200051978095908189238083882349F452960C
:103730009C91529790958091AF0589238093AF0516
:1037400050968C915097F801E80FF11D86815196A3
:103750009C915197892B8683F801818152969C9187
:10376000892B81830F900FBE0F900E946E160F92CF
:103770000FB60F92F894A091B605B091B7051D96BB
:103780008C911D9784FF25C050968C915097F8011D
:10379000E80FF11D51968C91519780959681892360
:1037A0008683882341F452969C9152979095F80114
:1037B0008181892381831D961C921D9717961C92E7
:1037C0001E9216970F900FBE0F908AE0D7018C9330
:1037D00009C017961C921E9216970F900FBE0F905D
:1037E000F7011082DF91CF911F910F91FF90EF9021
:1037F00008950F931F93CF93DF93EC018B01888182
:10380000813011F081E02CC00F920FB60F92F89426
:1038100089818823B1F040FD06C009C0CE01B801FE
:1038200042E00E94341189818823C1F704C0CE018F
:1038300042E00E9434110F900FBE0F900E946E164E
:103840000EC08C819D81892B29F00F900FBE0F90A7
:1038500084E106C07D836C830F900FBE0F9080E0E3
:10386000DF91CF911F910F910895FC0180818130EC
:1038700011F081E008950F920FB60F92F8948181B4
:10388000882359F0CF0142E00E9434110F900FBEFF
:103890000F900E946E1680E0089584819581892B97
:1038A00029F00F900FBE0F9084E108957583648313
:1038B0000F900FBE0F9080E008950F931F93CF934A
:1038C000DF93EC018A018091B505882311F082E035
:1038D00004C08881813031F081E0F801808320E0EC
:1038E00030E090C00F920FB60F92F8942C813D817A
:1038F0002115310531F01D821C820F900FBE0F90F3
:103900005BC0A091B605B091B7051D968C911D972F
:1039100082601D968C931D971C967C936E931B97CB
:103920001796DC93CE93169750968C915097282F2C
:1039300030E051964C915197F901E055FA4F842FA0
:103940008095908189238083882349F452969C91A5
:10395000529790958091AF0589238093AF05FE0122
:10396000E20FF31F8681842B8683898152969C9176
:10397000892B89830F900FBE0F900E946E160F92B5
:103980000FB60F92F894A091B605B091B7051896AE
:103990002D913C9119972115310589F019961C92AA
:1039A0001E9218971D961C921D9717961C921E9298
:1039B00016970F900FBE0F90F801108223C05096FB
:1039C0008C915097FE01E80FF11D51968C91519703
:1039D0008095968189238683882339F452969C9119
:1039E000529790958981892389831D961C921D97F2
:1039F00017961C921E9216970F900FBE0F908AE09A
:103A0000F8018083C901DF91CF911F910F91089533
:103A1000CF92DF92EF92FF920F931F93DF93CF939A
:103A20000F92CDB7DEB78C017901FC018081853022
:103A300011F081E01BC00F920FB60F92F89444234F
:103A400019F0413079F405C06095F801838186232F
:103A500003C0F8018381862B8383F801C180D28063
:103A600019823FC00F900FBE0F9089E9F701808344
:103A700080E04DC0F60181858130D1F0813078F051
:103A8000823019F0833009F505C0F6018085F80110
:103A900063810AC0F6016085F80183810EC0F601DA
:103AA0008085F8016381609568236817A9F407C0D1
:103AB000F80163816095F6018085682369F0C6018D
:103AC0000E94A712813041F405C00F900FBE0F90E5
:103AD00087E9CCCFF1E0F983F601808191819C01E7
:103AE0006901C114D10431F60F900FBE0F90F98116
:103AF000F13011F40E946E160F920FB60F92F894E7
:103B0000F80183810F900FBE0F90F70110820F9084
:103B1000CF91DF911F910F91FF90EF90DF90CF90A9
:103B20000895DF92EF92FF920F931F93DF93CF934D
:103B3000CDB7DEB72B970FB6F894DEBF0FBECDBF63
:103B40007C01D42E8091B505882311F082E005C058
:103B5000F7018081853029F081E0D8018C9380E0E5
:103B6000E3C147FD02C01B8604C0BFE7DB22E1E0E2
:103B7000EB870F920FB60F92F894F1E0DF1609F47D
:103B80001CC1DF1608F4BEC082E0D81629F0A3E0FD
:103B9000DA1609F06CC15CC0F7019381862F892386
:103BA000861781F4FB85F13029F460959623D701BF
:103BB00013969C93F70183810F900FBE0F90D8014D
:103BC0001C92B2C1E091B605F091B705858580627F
:103BD0008587E091B605F091B7053487238769871B
:103BE000DA86FE83ED83D7011196ED91FC91129751
:103BF000FA83E9831C821B82F886EF82309721F0DA
:103C0000CE01019693838283CE010196F7019283C0
:103C10008183A091B605B091B7055096EC9150976D
:103C2000F0E0E055FA4F51968C9151978095908134
:103C300089238083882341F452969C9190958091AA
:103C4000AF0589238093AF050F900FBE0F9014C16D
:103C5000D70113969C91862F892371F0BB85B130D3
:103C600021F480958923F7018383D70113968C91E2
:103C70000F900FBE0F9056C1E091B605F091B705B9
:103C8000858580628587E091B605F091B705348718
:103C900023876987DA86FE83ED83D7011196ED913C
:103CA000FC911297FA83E9831C821B82F886EF82CB
:103CB000309721F0CE01019693838283CE01019645
:103CC000F70192838183A091B605B091B705509614
:103CD000EC915097F0E0E055FA4F51968C91519746
:103CE0008095908189238083882341F452969C910A
:103CF00090958091AF0589238093AF050F900FBEFB
:103D00000F90BAC0D70113969C91892F8095862376
:103D1000861769F4BB85B13019F4962BF7019383AC
:103D2000D70113968C910F900FBE0F90FBC0E091BE
:103D3000B605F091B705858580628587E091B60567
:103D4000F091B7053487238769871A86FE83ED8350
:103D5000D7011196ED91FC911297FA83E9831C82A9
:103D60001B82F886EF82309721F0CE010196938373
:103D70008283CE010196F70192838183A091B605DB
:103D8000B091B7055096EC915097F0E0E055FA4F9E
:103D900051968C91519780959081892380838823B7
:103DA00041F452969C9190958091AF058923809320
:103DB000AF050F900FBE0F905FC0D70113969C9177
:103DC000892F8095862369F0BB85B13019F4892B42
:103DD000F7018383D70113968C910F900FBE0F903C
:103DE000A1C0E091B605F091B70585858062858711
:103DF000E091B605F091B705348723876987DA86A5
:103E0000FE83ED83D7011196ED91FC911297FA8311
:103E1000E9831C821B82F886EF82309721F0CE0165
:103E2000019693838283CE010196F7019283818369
:103E3000A091B605B091B7055096EC915097F0E07F
:103E4000E055FA4F51968C91519780959081892336
:103E50008083882341F452969C9190958091AF0580
:103E600089238093AF050F900FBE0F9005C00F9070
:103E70000FBE0F9087E971CE0E946E160F920FB69B
:103E80000F92F894E091B605F091B705858585FF0E
:103E900025C0EB81FC81A981BA81309759F4EF816B
:103EA000F885B283A183109769F013961C921E9235
:103EB000129708C0B183A083109721F01396FC934A
:103EC000EE931297E091B605F091B70515860F9025
:103ED0000FBE0F908AE0F801808341CE2B85213000
:103EE000D9F481E08D1550F4A3E0AD1580F09285F2
:103EF0009095F7018381892383830EC0D7011396A0
:103F00008C9113979285892B13968C9305C00F90F3
:103F10000FBE0F9087E9DFCFD70113968C910F90DA
:103F20000FBE0F90F80110822B960FB6F894DEBFEB
:103F30000FBECDBFCF91DF911F910F91FF90EF90FA
:103F4000DF9008950E94CD1080916B05813009F0BB
:103F500042C0A0918605B09187052091AF0541E050
:103F600050E032C00F920FB60F92F8941B968D91CD
:103F70009C911C97009709F101971C969C938E9336
:103F80001B97892BD1F41D968C911D9783FD11C031
:103F900052968C915297282B5096EC915097F0E0C6
:103FA000E055FA4F808151969C915197892B8083DF
:103FB00004C01C965C934E931B9712960D90BC9177
:103FC000A02D0F900FBE0F901E968C911E978F30D4
:103FD00049F62093AF05089580916B05882341F53C
:103FE000E091AF05F0E0E859FF4FA081EA2FF0E043
:103FF000E055FA4FE081F0E0E859FF4FAA0FAA0F11
:10400000AA0F8081A80FA0937005A0938505B0E04A
:10401000AA0FBB1FA458B84F8D919C919093AC05EB
:104020008093AB059093B7058093B6050E94ED0F82
:10403000089580916B05813009F054C00F920FB63E
:104040000F92F8948091B505882319F081508093E0
:10405000B5058091B505882309F041C080916A05B6
:104060008823E9F5E091AF05F0E0E859FF4F808142
:104070008093B405E82FF0E0E055FA4FE081F0E0DE
:10408000E859FF4F982F990F990F990F8081980F3A
:104090009093700580918505981709F1E92FF0E05C
:1040A000EE0FFF1FE458F84F808191819093AC058B
:1040B0008093AB058091880590918905A0918A0530
:1040C000B0918B050196A11DB11D80938805909339
:1040D0008905A0938A05B0938B050E947A100F90F2
:1040E0000FBE0F900895CF93DF930E94C5101092DA
:1040F000B50510926A0510928E0510926B0510920C
:1041000088051092890510928A0510928B051092ED
:104110006C0510926D0510926E0510926F0510924D
:10412000AF051092B0051092B1051092850510925E
:1041300070051092AC051092AB051092B705109265
:10414000B605ACEBB6E08EEBED0119928A95E9F776
:1041500080E2ECE7F7E0EF0119928A95E9F75396D0
:10416000FD017197B183A0835396E7E0AA37BE079C
:10417000B9F710926A07109269071092870510929A
:1041800086058CEB96E090938D0580938C05ECE191
:10419000F6E080EADF011D928A95E9F7CF010896E3
:1041A000108295838483FC01B6E0843B9B07B1F7C2
:1041B0001082158214828CE196E09093B30580936F
:1041C000B2050E94C6150E94B01581E596E160E037
:1041D00070E04BE156E02FE00E9430170E94C610BD
:1041E000DF91CF910895A0E0B0E0E9EFF0E20C9408
:1041F0003728DC012B01FA019C91923008F439C177
:10420000EB018881823008F433C1943069F4843042
:1042100009F02FC111969C9111978981981709F483
:1042200028C1AAE6B1E025C1843009F421C1823059
:10423000A9F4923009F01DC19A01AD0188E0EA01AC
:104240000990AE01E90109929E018150C1F7E20196
:10425000898111969C918923818308C1923009F448
:1042600007C112962D903C901397EB018A819B8198
:104270001496AD90BD90CD90DC901797EC80FD80AA
:104280000E811F819101281B390BB90137FF04C032
:1042900066277727621B730B603271050CF061C0D3
:1042A000121613066CF537014801062E04C09694C9
:1042B0008794779467940A94D2F721E030E040E045
:1042C00050E004C0220F331F441F551F6A95D2F7D8
:1042D00021503040404050402E213F214023512367
:1042E000211531054105510521F021E030E040E084
:1042F00050E079018A01E628F728082919293CC0ED
:10430000232BD1F1260E371E35014601062E04C09F
:1043100096948794779467940A94D2F721E030E0DA
:1043200040E050E004C0220F331F441F551F6A9520
:10433000D2F721503040404050402A213B214C21AF
:104340005D21211531054105510521F021E030E0C5
:1043500040E050E059016A01A628B728C828D928AA
:104360000BC0821593052CF01C01AA24BB24650107
:1043700003C0EE24FF24870111969C91D20111966F
:104380008C91981709F445C0992339F0A801970139
:104390002A193B094C095D0906C0A60195012E1991
:1043A0003F09400B510B57FD08C011823382228216
:1043B00024833583468357831DC081E08183338204
:1043C000228288279927DC01821B930BA40BB50B53
:1043D00084839583A683B7830DC0220F331F441FA8
:1043E000551F2483358346835783828193810197A8
:1043F000938382832481358146815781DA01C90103
:104400000197A109B1098F5F9F4FAF4FBF4328F3B9
:104410000BC0918333822282EA0CFB1C0C1D1D1DF4
:10442000E482F5820683178383E0808324813581CB
:104430004681578157FF1AC0C901AA2797FDA09549
:10444000BA2F81709070A070B070569547953795CF
:104450002795822B932BA42BB52B84839583A6833E
:10446000B78382819381019693838283DF0101C0A8
:10447000D201CD01CDB7DEB7E2E10C945328A0E222
:10448000B0E0E5E4F2E20C94432869837A838B83FD
:104490009C832D833E834F835887E9E0EE2EF12CD9
:1044A000EC0EFD1ECE010196B7010E9452278E012F
:1044B0000F5E1F4FCE010596B8010E9452278A89D0
:1044C00091E089278A8BC701B801AE01475E5F4F33
:1044D0000E94F3200E947D26A096E6E00C945F28BF
:1044E000A0E2B0E0E6E7F2E20C94432869837A8325
:1044F0008B839C832D833E834F835887F9E0EF2E77
:10450000F12CEC0EFD1ECE010196B7010E94522740
:104510008E010F5E1F4FCE010596B8010E945227F3
:10452000C701B801AE01475E5F4F0E94F3200E94B1
:104530007D26A096E6E00C945F28A0E2B0E0E3EAD6
:10454000F2E20C94372869837A838B839C832D83D2
:104550003E834F835887CE010196BE01675F7F4F30
:104560000E945227CE010596BE016F5E7F4F0E94CA
:1045700052279985923088F089898230C8F094302A
:1045800019F4823051F404C0843029F4923081F45B
:104590008AE691E0C6C0923049F420E09A858A8983
:1045A000981321E02A87CE010996BBC0823049F4D6
:1045B00020E09A858A89981321E02A8BCE014196C2
:1045C000B0C02D843E844F8458886D887E888F8843
:1045D000988CEE24FF248701AA24BB24650140E0C7
:1045E00050E060E070E0E0E0F0E0C10181709070C8
:1045F000892BE9F0E60CF71C081D191D9A01AB0187
:104600002A0D3B1D4C1D5D1D80E090E0A0E0B0E058
:10461000E614F7040805190520F481E090E0A0E015
:10462000B0E0BA01A901480F591F6A1F7B1FAA0CED
:10463000BB1CCC1CDD1C97FE08C081E090E0A0E014
:10464000B0E0A82AB92ACA2ADB2A3196E032F1055D
:1046500049F0660C771C881C991C56944794379433
:104660002794C3CFFA85EA892B893C898B859C8561
:10467000280F391F2E5F3F4F17C0CA0181709070FD
:10468000892B61F016950795F794E79480E090E008
:10469000A0E0B0E8E82AF92A0A2B1B2B769567954B
:1046A000579547952F5F3F4F77FDE7CF0CC0440FDD
:1046B000551F661F771F17FD4160EE0CFF1C001F82
:1046C000111F21503040403090E0590790E06907B9
:1046D00090E4790760F32B8F3C8FDB01CA018F7761
:1046E0009070A070B07080349105A105B10561F49F
:1046F00047FD0AC0E114F1040105110529F0405CF1
:104700005F4F6F4F7F4F40781A8EFE1711F081E098
:104710008A8F4D8F5E8F6F8F78A383E0898FCE0154
:1047200049960E947D26A096E2E10C945328A8E1C8
:10473000B0E0EDE9F3E20C943F2869837A838B8340
:104740009C832D833E834F835887B9E0EB2EF12C59
:10475000EC0EFD1ECE010196B7010E9452278E017C
:104760000F5E1F4FCE010596B8010E945227298582
:10477000223008F47EC03989323010F4B8017CC090
:104780008A859A8989278A87243011F0223031F46A
:10479000231709F06EC06AE671E06EC0343039F458
:1047A0001D861E861F86188A1C861B8604C0323012
:1047B00021F484E08987B7015FC02B853C858B8914
:1047C0009C89281B390B3C872B87ED84FE840F8541
:1047D0001889AD88BE88CF88D88CEA14FB040C05F4
:1047E0001D0540F4EE0CFF1C001F111F215030402E
:1047F0003C872B8720E030E040E050E080E090E014
:10480000A0E0B0E460E070E0EA14FB040C051D05D4
:1048100040F0282B392B4A2B5B2BEA18FB080C099C
:104820001D09B695A79597958795EE0CFF1C001F5F
:10483000111F6F5F7F4F6F31710531F7DA01C901C9
:104840008F779070A070B07080349105A105B1058C
:1048500061F427FD0AC0E114F1040105110529F0F6
:10486000205C3F4F4F4F5F4F20782D873E874F870B
:10487000588BBE01675F7F4FCB010E947D266896F3
:10488000EAE00C945B28A8E1B0E0E9E4F4E20C94DF
:10489000432869837A838B839C832D833E834F8354
:1048A000588789E0E82EF12CEC0EFD1ECE01019612
:1048B000B7010E9452278E010F5E1F4FCE01059651
:1048C000B8010E9452278985823040F08989823060
:1048D00028F0C701B8010E94CA2701C08FEF68966F
:1048E000E6E00C945F28A8E1B0E0E9E7F4E20C947C
:1048F000432869837A838B839C832D833E834F83F4
:10490000588789E0E82EF12CEC0EFD1ECE010196B1
:10491000B7010E9452278E010F5E1F4FCE010596F0
:10492000B8010E9452278985823040F089898230FF
:1049300028F0C701B8010E94CA2701C08FEF68960E
:10494000E6E00C945F28A8E1B0E0E9EAF4E20C9418
:10495000432869837A838B839C832D833E834F8393
:10496000588789E0E82EF12CEC0EFD1ECE01019651
:10497000B7010E9452278E010F5E1F4FCE01059690
:10498000B8010E9452278985823040F0898982309F
:1049900028F0C701B8010E94CA2701C081E06896CB
:1049A000E6E00C945F28A8E1B0E0E9EDF4E20C94B5
:1049B000432869837A838B839C832D833E834F8333
:1049C000588789E0E82EF12CEC0EFD1ECE010196F1
:1049D000B7010E9452278E010F5E1F4FCE01059630
:1049E000B8010E9452278985823040F0898982303F
:1049F00028F0C701B8010E94CA2701C081E068966B
:104A0000E6E00C945F28A8E0B0E0E9E0F5E20C9461
:104A100040289B01AC0183E08983DA01C901882722
:104A2000B7FD83959927AA27BB27B82E21153105F5
:104A30004105510519F482E089833AC08823A9F021
:104A4000203080E0380780E0480780E8580729F4E4
:104A500060E070E080E09FEC30C0EE24FF2487012E
:104A6000E21AF30A040B150B02C079018A018EE1E8
:104A7000C82ED12CDC82CB82ED82FE820F83188778
:104A8000C801B7010E942E2601971816190684F452
:104A9000082E04C0EE0CFF1C001F111F0A94D2F751
:104AA000ED82FE820F831887C81AD90ADC82CB8276
:104AB000BA82CE0101960E947D262896E9E00C94E8
:104AC0005C28ACE0B0E0E7E6F5E20C9447286983A7
:104AD0007A838B839C83CE010196BE016B5F7F4FEF
:104AE0000E9452278D81823061F1823050F18430F2
:104AF00021F48E81882351F12EC02F81388537FD16
:104B000020C06E812F3131051CF06623F9F023C0DF
:104B10008EE190E0821B930B29853A854B855C855D
:104B200004C056954795379527958A95D2F7662301
:104B3000B1F050954095309521953F4F4F4F5F4FC5
:104B40000EC020E030E040E050E009C02FEF3FEF22
:104B50004FEF5FE704C020E030E040E050E8B901EB
:104B6000CA012C96E2E00C946328A8E0B0E0EBEBDD
:104B7000F5E20C943F287B018C01611571058105DC
:104B8000910519F482E0898360C083E089838EE116
:104B9000C82ED12CDC82CB82ED82FE820F83188757
:104BA000C801B7010E942E26FC013197F7FF3BC0D8
:104BB000222733272E1B3F0B57016801022E04C00A
:104BC000D694C794B794A7940A94D2F740E050E0E3
:104BD00060E070E081E090E0A0E0B0E004C0880F09
:104BE000991FAA1FBB1F2A95D2F70197A109B109E6
:104BF0008E219F21A023B1230097A105B10521F0AB
:104C000041E050E060E070E04A295B296C297D2991
:104C10004D835E836F8378878EE190E08E1B9F0BC0
:104C20009C838B8312C0309781F00E2E04C0EE0C53
:104C3000FF1C001F111F0A94D2F7ED82FE820F8322
:104C40001887CE1ADF0ADC82CB821A82CE01019647
:104C50000E947D262896EAE00C945B28EF92FF9252
:104C60000F931F937B018C0180E0E81680E0F8062B
:104C700081E0080780E0180788F48FEFE816F10458
:104C80000105110531F028F088E090E0A0E0B0E0E7
:104C900017C080E090E0A0E0B0E012C080E0E8162D
:104CA00080E0F80680E0080781E0180728F088E136
:104CB00090E0A0E0B0E004C080E190E0A0E0B0E0CF
:104CC00020E230E040E050E0281B390B4A0B5B0B40
:104CD00004C016950795F794E7948A95D2F7F701E3
:104CE000EE58FE4F8081281B310941095109C90145
:104CF0001F910F91FF90EF900895DF92EF92FF9236
:104D00000F931F93FC01E480F58006811781D18009
:104D10008081823048F480E090E0A0E1B0E0E82AB1
:104D2000F92A0A2B1B2BA5C0843009F49FC08230BE
:104D300021F4EE24FF24870105C0E114F1040105EC
:104D4000110519F4E0E0F0E096C0628173819FEFF5
:104D5000623879070CF05BC022E83FEF261B370B67
:104D60002A3131052CF020E030E040E050E02AC04C
:104D7000B801A701022E04C076956795579547950F
:104D80000A94D2F781E090E0A0E0B0E004C0880F80
:104D9000991FAA1FBB1F2A95D2F70197A109B10934
:104DA0008E219F21A023B1230097A105B10521F0F9
:104DB00081E090E0A0E0B0E09A01AB01282B392B14
:104DC0004A2B5B2BDA01C9018F779070A070B0700D
:104DD00080349105A105B10539F427FF09C0205C95
:104DE0003F4F4F4F5F4F04C0215C3F4F4F4F5F4FCE
:104DF000E0E0F0E02030A0E03A07A0E04A07A0E4BD
:104E00005A0710F0E1E0F0E079018A0127C060382C
:104E1000710564F5FB01E158FF4FD801C7018F7799
:104E20009070A070B07080349105A105B10539F47F
:104E3000E7FE0DC080E490E0A0E0B0E004C08FE3A6
:104E400090E0A0E0B0E0E80EF91E0A1F1B1F17FF5C
:104E500005C016950795F794E794319687E0169567
:104E60000795F794E7948A95D1F705C0EE24FF24BF
:104E70008701EFEFF0E06E2F679566276795902F1B
:104E80009F77D794DD24D7948E2F8695492F462B74
:104E9000582F5D29B701CA011F910F91FF90EF9024
:104EA000DF900895FC01DB01408151812281622F56
:104EB0006F7770E0221F2227221F9381892F880F8E
:104EC000822B282F30E0991F9927991F11969C93C8
:104ED000119721153105A9F5411551056105710598
:104EE00011F482E037C082E89FEF13969C938E9373
:104EF00012979A01AB0167E0220F331F441F551F21
:104F00006A95D1F783E08C930DC0220F331F441FA5
:104F1000551F12968D919C911397019713969C9310
:104F20008E931297203080E0380780E0480780E4B5
:104F3000580758F314962D933D934D935C93179710
:104F400008952F3F310579F441155105610571052B
:104F500019F484E08C93089564FF03C081E08C937E
:104F600012C01C9210C02F57304013963C932E93C2
:104F7000129783E08C9387E0440F551F661F771FBD
:104F80008A95D1F7706414964D935D936D937C93DD
:104F9000179708951F93DC01FB019C91923008F450
:104FA00047C08081823008F443C0943051F4119698
:104FB0001C91843099F58181682F70E0611B710923
:104FC0003FC0843021F0923031F48230B9F18181D8
:104FD000882389F12DC011961C9111978230F1F030
:104FE00081811817D9F412962D913C9113978281E3
:104FF00093818217930794F028173907BCF0149611
:105000008D919D910D90BC91A02D2481358146817B
:105010005781281739074A075B0718F4112341F015
:105020000AC082179307A407B50740F4112319F0AB
:1050300061E070E005C06FEF7FEF02C060E070E0FC
:10504000CB011F910895AA1BBB1B51E107C0AA1FEA
:10505000BB1FA617B70710F0A61BB70B881F991F19
:105060005A95A9F780959095BC01CD0108952F928E
:105070003F924F925F926F927F928F929F92AF92E8
:10508000BF92CF92DF92EF92FF920F931F93CF9335
:10509000DF93CDB7DEB7CA1BDB0B0FB6F894DEBFCC
:1050A0000FBECDBF09942A88398848885F846E84F2
:1050B0007D848C849B84AA84B984C884DF80EE803C
:1050C000FD800C811B81AA81B981CE0FD11D0FB645
:1050D000F894DEBF0FBECDBFED010895F894FFCF69
:1050E00001020408102040800000010002000100BD
:1050F00003000100020001000400010002000100A1
:10510000030001000200010005000100020001008F
:105110000300010002000100040001000200010080
:10512000030001000200010006000100020001006E
:105130000300010002000100040001000200010060
:10514000030001000200010005000100020001004F
:105150000300010002000100040001000200010040
:10516000030001000200010007000100020001002D
:105170000300010002000100040001000200010020
:10518000030001000200010005000100020001000F
:105190000300010002000100040001000200010000
:1051A00003000100020001000600010002000100EE
:1051B00003000100020001000400010002000100E0
:1051C00003000100020001000500010002000100CF
:1051D00003000100020001000400010002000100C0
:1051E00003000100020001000000000000000000B8
:1051F0000000000102020303030304040404040486
:105200000404050505050505050505050505050550
:105210000505060606060606060606060606060630
:10522000060606060606060606060606060606061E
:105230000606070707070707070707070707070700
:1052400007070707070707070707070707070707EE
:1052500007070707070707070707070707070707DE
:1052600007070707070707070707070707070707CE
:1052700007070808080808080808080808080808B0
:10528000080808080808080808080808080808089E
:10529000080808080808080808080808080808088E
:1052A000080808080808080808080808080808087E
:1052B000080808080808080808080808080808086E
:1052C000080808080808080808080808080808085E
:1052D000080808080808080808080808080808084E
:1052E000080808080808080808080808080808083E
:0252F0000808AC
:00000001FF
