:100000000C942A000C9447000C9447000C94470071
:100010000C9447000C9447000C9447000C94470044
:100020000C9447000C94830E0C9447000C944700EA
:100030000C9447000C94150F0C9447000C94BA0EC6
:100040000C945A010C9447000C9447000C94970DA3
:100050000C94470011241FBECFE5D8E0DEBFCDBF12
:1000600011E0A0E6B0E0E8ECFEE202C005900D92DF
:10007000A836B107D9F712E0A8E6B1E001C01D9299
:10008000AA33B107E1F70E9449000C9462170C945F
:1000900000000E94940C0E94C90E78940E948D006A
:1000A0000E94920E0E94BB0C0E94A00C80912C0218
:1000B000813059F40E947C0F0E9460030E94A80EB8
:1000C0000E947A0E0E94320802C00E941A07809194
:1000D0002302833049F710922302E6CF8091C901B1
:1000E0008823E1F31092C9018091C9018823E1F3CB
:1000F0001092C9018091C9018823E1F38091C9015F
:100100008823E1F31092C90108958091C9018130DB
:10011000E1F381E08093C9010895EF92FF920F937C
:100120001F9310BE1092EF018091EF0187B98FEEFF
:1001300086B910922A02109237021092360210925B
:100140003502109234021092FD011092FC010F2E24
:10015000F0E0EF2EF0ECFF2EFFE70F2FF4E41F2F5F
:10016000F02DE092FE01F092FF0100930002109347
:10017000010220E030EC4FE754EC20930202309370
:100180000302409304025093050280E090E0A0E057
:10019000B0E08093060290930702A0930802B09308
:1001A000090280930A0290930B02A0930C02B09371
:1001B0000D02E0929A01F0929B0100939C01109332
:1001C0009D0120939E0130939F014093A001509385
:1001D000A1018093A2019093A301A093A401B093E5
:1001E000A5018093A6019093A701A093A801B093C5
:1001F000A901109238021F910F91FF90EF9008957E
:100200008091EF018823E9F481E08093EF0187B9C1
:100210008091FC019091FD0124B1820F911D90937A
:10022000FD018093FC014091FC015091FD0125B13D
:10023000922F80E0840F951F9093FD018093FC0125
:1002400008958091EF01813021F51092EF0117B8E8
:10025000809134029091350224B1820F911D9093C8
:10026000350280933402409134025091350225B119
:10027000922F80E0840F951F909335028093340273
:1002800080913602909137020196909337028093C5
:100290003602089580913802882311F40E940001EB
:1002A00080913602909137020C9719F481E0809387
:1002B000380208951F920F920FB60F9211242F93B8
:1002C0003F934F935F936F937F938F939F93AF93DE
:1002D000BF93EF93FF938091C901882311F40E948B
:1002E0004A01FF91EF91BF91AF919F918F917F91C3
:1002F0006F915F914F913F912F910F900FBE0F9093
:100300001F9018956F927F928F929F92AF92BF929B
:10031000CF92DF92EF92FF920F931F938091FC0197
:100320009091FD016CE070E00E94171780E090E072
:100330000E94A9146093900170939101809392019F
:100340009093930180913402909135026CE070E0BB
:100350000E94171780E090E00E94A9146093940116
:10036000709395018093960190939701CA9B59C011
:100370008091900190919101A0919201B09193018F
:10038000B0588093900190939101A0939201B09303
:1003900093016091900170919101809192019091EF
:1003A000930160900A0270900B0280900C02909072
:1003B0000D02A40193010E94971388230CF089C0B9
:1003C00060919001709191018091920190919301BF
:1003D000A0900202B0900302C0900402D0900502E7
:1003E000A60195010E949713882344F4A0929001DE
:1003F000B0929101C0929201D092930160919001CC
:10040000709191018091920190919301A4019301C7
:100410000E9433117B018C0117FB109517F9109581
:1004200043C06091900170919101809192019091EF
:1004300093016090060270900702809008029090ED
:100440000902A40193010E94371318160CF041C051
:10045000609190017091910180919201909193012E
:10046000A090FE01B090FF01C0900002D090010268
:10047000A60195010E943713181644F4A09290012A
:10048000B0929101C0929201D0929301609190013B
:10049000709191018091920190919301A401930137
:1004A0000E9433117B018C01C601B501A4019301A7
:1004B0000E9433119B01AC01C801B7010E948B124D
:1004C00060939001709391018093920190939301B6
:1004D0000CC080E090E0A0E0B0E0809390019093A9
:1004E0009101A0939201B0939301CB9B69C080913D
:1004F000940190919501A0919601B0919701B05807
:100500008093940190939501A0939601B0939701E5
:10051000609194017091950180919601909197015D
:10052000A090A601B090A701C090A801D090A90109
:10053000A60195010E94971388230CF099C0609141
:10054000940170919501809196019091970120916D
:1005500002023091030240910402509105020E9470
:100560009713882384F480919E0190919F01A0911C
:10057000A001B091A1018093940190939501A09363
:100580009601B093970160919401709195018091CB
:10059000960190919701A60195010E9433117B016C
:1005A0008C0117FB109517F9109560919E017091C1
:1005B0009F018091A0019091A101A601950147C0E2
:1005C00060919401709195018091960190919701AD
:1005D0006090A2017090A3018090A4019090A50169
:1005E000A40193010E94371318160CF041C06091CA
:1005F0009401709195018091960190919701A0903E
:100600009A01B0909B01C0909C01D0909D01A601E1
:1006100095010E943713181644F4A0929401B092E9
:100620009501C0929601D0929701609194017091CA
:1006300095018091960190919701A40193010E94E8
:1006400033117B018C01C601B501A40193010E9405
:1006500033119B01AC01C801B7010E948B1260935A
:1006600094017093950180939601909397010CC02B
:1006700080E090E0A0E0B0E0809394019093950139
:10068000A0939601B0939701109235021092340214
:100690001092FD011092FC01109237021092360266
:1006A00081E08093C9011F910F91FF90EF90DF903F
:1006B000CF90BF90AF909F908F907F906F90089554
:1006C0001F9310913802113031F40E948201109270
:1006D000380210932B021F910895EF92FF920F930F
:1006E0001F9380E090E0A0E0B0E08093BE01909383
:1006F000BF01A093C001B093C10181E080932A02A1
:100700001ABC1BBC18BC19BC84E082BB80E18BBB4B
:100710001092D0011092F40125C0809138028823F4
:10072000E1F30E9482016091BE017091BF0180914E
:10073000C0019091C10120919001309191014091AF
:100740009201509193010E9464116093BE017093D5
:10075000BF018093C0019093C1018091F4018F5F2C
:100760008093F4018091F4018931B8F26091BE0167
:100770007091BF018091C0019091C10120E030ECE7
:100780004FE754E40E94911120E030E048EC51E43E
:100790000E948B1260930E0270930F0280931002DE
:1007A0009093110280E090E0A0E0B0E08093BE0161
:1007B0009093BF01A093C001B093C10184E082BBBC
:1007C0001BBA1092F40125C0809138028823E1F30E
:1007D0000E9482016091BE017091BF018091C001B1
:1007E0009091C1012091900130919101409192012D
:1007F000509193010E9464116093BE017093BF01F8
:100800008093C0019093C1018091F4018F5F809328
:10081000F4018091F4018931B8F26091BE017091C8
:10082000BF018091C0019091C10120E030EC4FE701
:1008300054E40E94911120E030E048EC51E40E9421
:100840008B12609316027093170280931802909394
:10085000190280E090E0A0E0B0E08093BE019093A8
:10086000BF01A093C001B093C10188E082BB80E1C9
:100870008BBB1092F40125C0809138028823E1F3EC
:100880000E9482016091BE017091BF018091C00100
:100890009091C1012091900130919101409192017C
:1008A000509193010E9464116093BE017093BF0147
:1008B0008093C0019093C1018091F4018F5F809378
:1008C000F4018091F4018931B8F26091BE01709118
:1008D000BF018091C0019091C10120E030EC4FE751
:1008E00054E40E94911120E030E048EC51E40E9471
:1008F0008B126093120270931302809314029093F0
:10090000150280E090E0A0E0B0E08093BE019093FB
:10091000BF01A093C001B093C10188E082BB1BBAA4
:100920001092F40125C0809138028823E1F30E94DF
:1009300082016091BE017091BF018091C0019091D0
:10094000C10120919001309191014091920150910B
:1009500093010E9464116093BE017093BF01809364
:10096000C0019093C1018091F4018F5F8093F401E5
:100970008091F4018931B8F26091BE017091BF019C
:100980008091C0019091C10120E030EC4FE754E428
:100990000E94911120E030E048EC51E40E948B125B
:1009A00060931A0270931B0280931C0290931D02A5
:1009B00080E090E0A0E0B0E08093BE019093BF01A2
:1009C000A093C001B093C10120E422BB20E12BBB66
:1009D0008093BE019093BF01A093C001B093C10169
:1009E0001092F40125C0809138028823E1F30E941F
:1009F00082016091BE017091BF018091C001909110
:100A0000C10120919401309195014091960150913E
:100A100097010E9464116093BE017093BF0180939F
:100A2000C0019093C1018091F4018F5F8093F40124
:100A30008091F4018931B8F26091BE017091BF01DB
:100A40008091C0019091C10120E030EC4FE754E467
:100A50000E94911120E030E048EC51E40E948B129A
:100A60006093AA017093AB018093AC019093AD01A8
:100A700080E090E0A0E0B0E08093BE019093BF01E1
:100A8000A093C001B093C10180E482BB1BBA109255
:100A9000F40125C0809138028823E1F30E9482018D
:100AA0006091BE017091BF018091C0019091C10120
:100AB00020919401309195014091960150919701B8
:100AC0000E9464116093BE017093BF018093C001C6
:100AD0009093C1018091F4018F5F8093F401809124
:100AE000F4018931B8F26091BE017091BF0180912B
:100AF000C0019091C10120E030EC4FE754E40E9426
:100B0000911120E030E048EC51E40E948B12609398
:100B1000B2017093B3018093B4019093B50180E06A
:100B200090E0A0E0B0E08093BE019093BF01A0935D
:100B3000C001B093C10180E882BB80E18BBB109201
:100B4000F40125C0809138028823E1F30E948201DC
:100B50006091BE017091BF018091C0019091C1016F
:100B60002091940130919501409196015091970107
:100B70000E9464116093BE017093BF018093C00115
:100B80009093C1018091F4018F5F8093F401809173
:100B9000F4018931B8F26091BE017091BF0180917A
:100BA000C0019091C10120E030EC4FE754E40E9475
:100BB000911120E030E048EC51E40E948B126093E8
:100BC000AE017093AF018093B0019093B10180E0CA
:100BD00090E0A0E0B0E08093BE019093BF01A093AD
:100BE000C001B093C10180E882BB1BBA1092F4012E
:100BF00025C0809138028823E1F30E948201609130
:100C0000BE017091BF018091C0019091C1012091FE
:100C100094013091950140919601509197010E9465
:100C200064116093BE017093BF018093C0019093E3
:100C3000C1018091F4018F5F8093F4018091F401F0
:100C40008931B8F26091BE017091BF018091C001FD
:100C50009091C10120E030EC4FE754E40E949111E3
:100C600020E030E048EC51E40E948B12DC019B0153
:100C7000AC012093B6013093B7014093B801509373
:100C8000B90120E030E040E050E02093BE01309315
:100C9000BF014093C0015093C101E0900E02F0905B
:100CA0000F020091100210911102E092FE01F092E9
:100CB000FF0100930002109301022091160230916F
:100CC00017024091180250911902209306023093A6
:100CD00007024093080250930902209112023091BA
:100CE0001302409114025091150220930202309396
:100CF0000302409304025093050220911A0230919E
:100D00001B0240911C0250911D0220930A02309355
:100D10000B0240930C0250930D022091AA013091D6
:100D2000AB014091AC015091AD0120939A013093F9
:100D30009B0140939C0150939D012091B201309101
:100D4000B3014091B4015091B5012093A2013093B9
:100D5000A3014093A4015093A5012091AE013091CD
:100D6000AF014091B0015091B10120939E013093A9
:100D70009F014093A0015093A101CB018093A60154
:100D80009093A701A093A801B093A901C801B7014E
:100D900020E030E048EC51E40E94371318166CF460
:100DA000C801B70120E030E048E452E40E94971304
:100DB00088231CF48EE088BBFFCF10922A0212BA5F
:100DC0001F910F91FF90EF9008958091C9018823A2
:100DD000E1F31092C9018091C9018823E1F30895DC
:100DE0001092C2011092FA0110922E028FEB88BB72
:100DF0001092FA011092C20110922E0280E88093A4
:100E0000D9018FE788BB1092DC011092DB011092B0
:100E1000DE011092DD011092E0011092DF011092CC
:100E2000FA011092C20110922E021092D301109278
:100E3000FB01089580E48093D9018FEB88BB109269
:100E4000DC011092DB011092DE011092DD011092A4
:100E5000E0011092DF011092FA011092C20110928B
:100E60002E0208958091D301882321F08091D90129
:100E7000806103C08091D9018F7E8093D9018091D8
:100E8000FB01882321F08091D901846003C0809107
:100E9000D9018B7F8093D901089580E88093D9018F
:100EA0008FE788BB1092DC011092DB011092DE010B
:100EB0001092DD011092E0011092DF011092FA0110
:100EC0001092C20110922E021092D3011092FB01D7
:100ED000089580912E02882339F08091DA0181FDF6
:100EE00003C082608093DA018091DB019091DC0184
:100EF000009711F101969093DC018093DB018054FF
:100F00009F4148F18091D90181FF0AC08D7F809374
:100F1000D90181E090E09093DC018093DB0108959A
:100F20001092DC011092DB0110922E028091DA0106
:100F30008D7F8093DA0108958091DA0181FF0BC0E3
:100F40008091D90182608093D90181E090E09093F3
:100F5000DC018093DB0108958091C201882339F080
:100F60008091DA0185FD03C080628093DA0180916F
:100F7000DD019091DE01009711F101969093DE0161
:100F80008093DD018051974248F18091D90185FF1E
:100F90000AC08F7D8093D90181E090E09093DE01BB
:100FA0008093DD0108951092DE011092DD01109210
:100FB000C2018091DA018F7D8093DA0108958091DA
:100FC000DA0185FF0BC08091D90180628093D9013D
:100FD00081E090E09093DE018093DD01089580919F
:100FE000FA01882339F08091DA0183FD03C088601B
:100FF0008093DA018091DF019091E001009711F177
:1010000001969093E0018093DF018051974248F16F
:101010008091D90183FF0AC0877F8093D90181E045
:1010200090E09093E0018093DF0108951092E00139
:101030001092DF011092FA018091DA01877F80938C
:10104000DA0108958091DA0183FF0BC08091D90104
:1010500088608093D90181E090E09093E0018093D3
:10106000DF0108950E9469070E94AC070E94EF0704
:101070008091D301882321F08091D901806103C040
:101080008091D9018F7E8093D9018091FB018823C3
:1010900021F08091D901846003C08091D9018B7FB8
:1010A0008093D9018091D90180688093D90180957E
:1010B00088BB08952F923F924F925F926F927F92DA
:1010C0008F929F92AF92BF92CF92DF92EF92FF9258
:1010D0000F931F93DF93CF93CDB7DEB760970FB613
:1010E000F894DEBF0FBECDBF6F83788789879A875C
:1010F0002B873C874D875E8727013801988A8F862A
:10110000C801B70120E030E040E85FE30E943713F8
:1011100018165CF40F2EF0E04F2EF0E05F2EF0E892
:101120006F2EFFE37F2EF02D14C0C801B70120E021
:1011300030E040E85FEB0E949713882354F40F2EB1
:10114000F0E04F2EF0E05F2EF0E86F2EFFEB7F2EE9
:10115000F02DC601B50120E030E040E85FE30E94D9
:10116000371318165CF40F2EF0E0AF2EF0E0BF2E10
:10117000F0E8CF2EFFE3DF2EF02D14C0C601B5013D
:1011800020E030E040E85FEB0E949713882354F49E
:101190000F2EF0E0AF2EF0E0BF2EF0E8CF2EFFEBE9
:1011A000DF2EF02DE0907C01F0907D0100917E011A
:1011B00010917F01E0927801F092790100937A0119
:1011C00010937B01C601B501A30192010E94331166
:1011D0002AE132E646E850E40E9491116B837C8359
:1011E0008D839E8360937C0170937D0180937E014B
:1011F00090937F01C601B501A30192010E94641181
:1012000020E030E040E05FE30E9491113B014C019F
:1012100060937401709375018093760190937701C8
:101220006B817C818D819E81A80197010E94641150
:101230002AE037ED43E25BE30E94911120918401A3
:101240003091850140918601509187010E9464117F
:101250007B018C012BED3FE049EC50E40E943713F9
:1012600018164CF4C801B7012BED3FE049EC50E4EF
:101270000E94331112C0C801B70120E030E040E005
:1012800050E00E949713882354F4C801B7012BED56
:101290003FE049EC50E40E9464117B018C01E09234
:1012A0008401F09285010093860110938701C801A3
:1012B000B7012BED3FE049E450E40E9464119B012B
:1012C000AC016B857C858D859E850E946713882384
:1012D0005CF06B857C858D859E852BED3FE049EC30
:1012E00050E40E9433111CC0C801B7012BED3FE050
:1012F00049E450E40E9433119B01AC016B857C856D
:101300008D859E850E94C713181674F06B857C85A9
:101310008D859E852BED3FE049EC50E40E946411E1
:101320006B877C878D879E876B857C858D859E8569
:10133000A80197010E9433115B016C016093800149
:10134000709381018093820190938301C401B30162
:1013500028EE31EB49E750EC0E9491117B018C01A2
:101360006F81788589859A8524EF38ED4CE950E4C2
:101370000E9491119B01AC01C801B7010E94641148
:101380003B014C01C601B50121E237EA44E95FE3C4
:101390000E9491117B018C016B817C818D819E81EA
:1013A00028E137EA44E15FEB0E9491119B01AC0117
:1013B000C801B7010E9464115B016C0120E030E0BC
:1013C00040E050E00E94671387FF03C00FEF1FEF5C
:1013D00002C001E010E010936B0100936A01C401A8
:1013E000B30120E030E040E050E00E94671387FF47
:1013F00005C02FEF3FEF3A83298304C081E090E0DE
:101400009A838983A981BA81B0936901A093680105
:10141000B801882777FD8095982F0E94F7131B014C
:101420002C01A60195010E9491117B018C0120E005
:1014300030E040E85FE30E94371318161CF46201A5
:10144000510114C0C801B7012DEC3CEC4CE45DE344
:101450000E94C713181654F00F2EF0E0AF2EF0E0E4
:10146000BF2EF0E0CF2EF0E0DF2EF02DA0926C0129
:10147000B0926D01C0926E01D0926F01E981FA8144
:10148000BF01882777FD8095982F0E94F7137B0175
:101490008C01A40193010E94911120E030E040E80A
:1014A0005FE30E943713181614F437014801C20194
:1014B000B101A60195010E9491119B01AC0160E070
:1014C00070E080E89FE30E9433111B012C01C801EA
:1014D000B701A40193010E949111A20191010E9400
:1014E0003713181644F4C801B701A20191010E94F4
:1014F00091113B014C0160927001709271018092D8
:10150000720190927301C401B301A60195010E947A
:101510006411ADA1BEA16D937D938D939C931397A0
:10152000C401B301A60195010E943311EF85F8892A
:101530006083718382839383ADA1BEA1ED90FD9002
:101540000D911C91C801B70124EA30E74DE75FE334
:101550000E94371318165CF40F2EF4EAEF2EF0E712
:10156000FF2EFDE70F2FFFE31F2FF02D14C0C80142
:10157000B70124EA30E74DE75FEB0E949713882319
:1015800054F40F2EF4EAEF2EF0E7FF2EFDE70F2FB5
:10159000FFEB1F2FF02DEDA1FEA1E082F18202836F
:1015A0001383AF85B889ED90FD900D911C91C80112
:1015B000B70124EA30E74DE75FE30E9437131816BE
:1015C0005CF40F2EF4EAEF2EF0E7FF2EFDE70F2F6D
:1015D000FFE31F2FF02D14C0C801B70124EA30E744
:1015E0004DE75FEB0E949713882354F40F2EF4EA23
:1015F000EF2EF0E7FF2EFDE70F2FFFEB1F2FF02D53
:10160000EF85F889E082F1820283138360960FB63A
:10161000F894DEBF0FBECDBFCF91DF911F910F9128
:10162000FF90EF90DF90CF90BF90AF909F908F9002
:101630007F906F905F904F903F902F9008958CEC2B
:1016400080932D0280912D0282BB84E68093F2016B
:101650001092F30180E090E0A0E0B0E08093900170
:1016600090939101A0939201B09393018093940180
:1016700090939501A0939601B093970180933002C7
:1016800090933102A0933202B09333028093D4013D
:101690009093D501A093D601B093D70180938C018C
:1016A00090938D01A0938E01B0938F018093880158
:1016B00090938901A0938A01B0938B011BBC1ABC43
:1016C00019BC18BC08958091CC019091CD011816D9
:1016D000190624F484E080932D021DC08091CC0172
:1016E0009091CD0197FF0FC088E080932D028091EB
:1016F000CC019091CD01909581959F4F9093CD0114
:101700008093CC0108C08091CC019091CD01892BB0
:1017100011F410922D028091CE019091CF011816F4
:10172000190624F480912D02806409C08091CE01B5
:101730009091CF0197FF06C080912D028068809321
:101740002D0208958091CE019091CF01892BA9F4AB
:1017500080912D02882311F48CEC02C080912D021F
:1017600080932D028091CE019091CF01909581952B
:101770009F4F9093CF018093CE01089580912402D2
:10178000813021F080919901813031F41BBC1ABC69
:1017900019BC18BC8CEC0EC08091CC019091CD018D
:1017A0009BBD8ABD8091CE019091CF0199BD88BD2E
:1017B00080912D0282BB08956091300270913102B8
:1017C000809132029091330220E030E44CE156E403
:1017D0000E9491110E9455147093CD016093CC0129
:1017E0006091D4017091D5018091D6019091D7017B
:1017F00020E030E44CE156E40E9491110E9455141F
:101800007093CF016093CE0108958F929F92AF9213
:10181000BF92CF92DF92EF92FF920F931F93E090CF
:101820009001F09091010091920110919301A0908C
:101830009401B0909501C0909601D090970100D08E
:1018400060918C0170918D0180918E0190918F013A
:10185000209188013091890140918A0150918B013A
:10186000E4EDF1E0ADB7BEB71296FC93EE9311979D
:10187000E0E38E2EE2E09E2E0E945A086091300234
:1018800070913102809132029091330220E030E475
:101890004CE156E40E9491110E9455147093CD01C1
:1018A0006093CC016091D4017091D5018091D601F3
:1018B0009091D70120E030E44CE156E40E94911170
:1018C0000E9455147093CF016093CE010F900F903A
:1018D0000E94630B80912402813021F08091990154
:1018E000813031F41BBC1ABC19BC18BC8CEC0EC086
:1018F0008091CC019091CD019BBD8ABD8091CE019C
:101900009091CF0199BD88BD80912D0282BB10922C
:10191000C9011F910F91FF90EF90DF90CF90BF9082
:10192000AF909F908F9008958FEF87BB8EEF81BB14
:1019300080E18ABB10922C0208958CE181BD08954C
:10194000CE990CC081E080932C0218BACE9BFECFBA
:101950000E944D078CE181BD0E94C80CCF990AC03E
:1019600010922C021BBC1ABC19BC18BC18BACF9B15
:10197000FECFA895089581E08093E8018093EA0165
:101980001092CB011092980181B986EC80B908952C
:101990001092980181E08093E8018093EA0110920F
:1019A0002402109299011092CB011092E9018EE26B
:1019B0008093E101089581B1887F8093D80180915F
:1019C000D801883209F43FC0893288F4803101F1AE
:1019D000813138F4882309F4A0C0883009F0A3C00D
:1019E00026C0883141F1803209F09DC028C0803482
:1019F000F1F1813438F4803309F495C0883309F06B
:101A000092C08BC08035A9F1883509F08CC085C0A3
:101A10008091E701882359F01092E7018091E90154
:101A2000823011F483EE01C081EE8093E201809157
:101A3000E20183B970C08091E30183B918C081E0ED
:101A40008093EA0168C08091E501882331F080919C
:101A5000E40183B91092E5015EC08091E60188231C
:101A600009F45BC081E08093E70185EA5AC085EC08
:101A700058C0809198018230A1F48091E6018823BA
:101A800081F08091E901823021F483B18093EE01ED
:101A900042C08091E9018130F1F583B18093EC017E
:101AA0003AC0809198018330B1F58091E601882396
:101AB00091F18091E9018230B1F483B18093ED011D
:101AC0008091ED018F3F51F08091EE018F3031F028
:101AD00081E0809399018093D3011DC010929901F8
:101AE0001092D30118C09091E9019130A1F483B113
:101AF0008093EB018091EB018F3F49F08091EC01E5
:101B00008F3029F0909324029093FB0104C010922F
:101B100024021092FB0185E804C081E08093EA0171
:101B200084E986BF089581E08093EA0108951F92B9
:101B30000F920FB60F9211242F933F934F935F9301
:101B40006F937F938F939F93AF93BF93EF93FF9385
:101B50000E94DB0CFF91EF91BF91AF919F918F910C
:101B60007F916F915F914F913F912F910F900FBE99
:101B70000F901F9018959091E801913009F04DC099
:101B80009093E501809198018130C9F0813028F06F
:101B90008230F1F0833071F52BC082EE8093E20148
:101BA00082E08093E3018091E1018093E4018091E0
:101BB00098018F5F8093980185EA86BF2EC080EEE2
:101BC0008093E20182E08093E3018091E10106C00D
:101BD00082EE8093E2019093E3018AE08093E40136
:101BE00085EA86BF809198018F5F8093980115C028
:101BF00080EEEFCF109298011092E5011092E8016B
:101C00009093E60182EE8093E2011092CB019093D3
:101C1000EA019093E9011092E5018091E6018823A1
:101C200009F467C08091CB018A30B8F08091E90156
:101C3000823031F481E08093E9018093C20106C0D3
:101C400082E08093E90181E08093FA01109298018B
:101C50001092CB0181E08093EA018091980181305C
:101C600001F1813018F08230E1F526C08091E90160
:101C7000823011F480EE01C082EE8093E201109276
:101C8000E30191E09093E50181E58093E401809187
:101C900098018F5F8093980185EA86BF9093E60153
:101CA00008958091E901823011F482EE01C080EE46
:101CB0008093E20182E006C08091E2018E7F8093F2
:101CC000E20183E08093E3011092E50185EA86BF9B
:101CD000809198018F5F8093980181E08093E60165
:101CE000089583E08093980181E08093EA018093D6
:101CF000E60108958091EA01882321F01092EA011B
:101D00000E94BB0D08951F920F920FB60F921124DF
:101D10008F9381E080932B028F910F900FBE0F90D5
:101D20001F90189582EA8FBD8AE18EBD80E197E20F
:101D300097BD86BD89B7846089BF1BBC1ABC19BC1E
:101D400018BC1092C80110922B0210922A0208951A
:101D500080912B02813069F48091CB018B3028F483
:101D60008091CB018F5F8093CB010E94050C109274
:101D70002B0208951F920F920FB60F9211248F938A
:101D800081E0809326028F910F900FBE0F901F90DD
:101D9000189586E880BD88ED8AB910BC87E689B9B8
:101DA0001092230281E08093260210923902109251
:101DB00025021092F0011092F1011092F5010895A0
:101DC000809123028130E1F0813018F0823061F59A
:101DD0001FC080912202813F11F481E016C08091E2
:101DE000F501823019F41092F501089580912202D4
:101DF000803FD1F41092230281E08093F501089591
:101E0000809122028093F20182E080932302089560
:101E1000809122028093F30183E08093230281E08A
:101E20008093250280932E0208951F920F920FB681
:101E30000F9211242F933F934F935F936F937F9350
:101E40008F939F93AF93BF93EF93FF938CB1809346
:101E500022020E94E00E80912F02813039F480919D
:101E600026028823E1F3809122028CB981E08093DD
:101E70003902FF91EF91BF91AF919F918F917F9127
:101E80006F915F914F913F912F910F900FBE0F90E7
:101E90001F901895482F10922F02809126028823B8
:101EA000E1F3109226028EEF8CB9242F392FC9014D
:101EB000FC0190E00AC02081809126028823E1F392
:101EC000109226022CB99F5F31969617A0F380914D
:101ED00026028823E1F3109226028FEF8CB981E06D
:101EE00080932F020895982F809126028823E1F392
:101EF000109226029CB9089580912502813009F044
:101F00004AC0A8959091F0018091F2019817F9F0DC
:101F10008091F2018093F0016091F00170E080E027
:101F200090E00E94A91420E030E048EC52E40E94C6
:101F3000331120E030E048EC52E40E948B126093B1
:101F40008C0170938D0180938E0190938F019091FD
:101F5000F1018091F3019817D9F08091F3018093FA
:101F6000F1016091F10170E0882777FD8095982F4D
:101F70000E94F71326E33AEF4EE05DE30E949111D1
:101F8000609388017093890180938A0190938B01FB
:101F90001092250208958091F5018823B9F0A89543
:101FA00084E68093F0011092F1018093F20180E0C9
:101FB00090E0A0E0B0E080938C0190938D01A0931D
:101FC0008E01B0938F0182E08093F5010895A0E027
:101FD000B0E0EDEEFFE00C942B17DC012B01FA01D1
:101FE0009C91923008F439C1EB018881823008F469
:101FF00033C1943069F4843009F02FC111969C915B
:1020000011978981981709F428C1A0E6B0E025C18D
:10201000843009F421C18230A9F4923009F01DC145
:102020009A01AD0188E0EA010990AE01E901099247
:102030009E018150C1F7E201898111969C9189230B
:10204000818308C1923009F407C112962D903C900B
:102050001397EB018A819B811496AD90BD90CD9032
:10206000DC901797EC80FD800E811F819101281B69
:10207000390BB90137FF04C066277727621B730B42
:10208000603271050CF061C0121613066CF5370151
:102090004801062E04C096948794779467940A9416
:1020A000D2F721E030E040E050E004C0220F331FBF
:1020B000441F551F6A95D2F7215030404040504090
:1020C0002E213F2140235123211531054105510582
:1020D00021F021E030E040E050E079018A01E6287B
:1020E000F728082919293CC0232BD1F1260E371EC9
:1020F00035014601062E04C0969487947794679420
:102100000A94D2F721E030E040E050E004C0220F12
:10211000331F441F551F6A95D2F72150304040406D
:1021200050402A213B214C215D21211531054105DB
:10213000510521F021E030E040E050E059016A0112
:10214000A628B728C828D9280BC0821593052CF0DB
:102150001C01AA24BB24650103C0EE24FF248701CF
:1021600011969C91D20111968C91981709F445C053
:10217000992339F0A80197012A193B094C095D09F7
:1021800006C0A60195012E193F09400B510B57FDC2
:1021900008C0118233822282248335834683578389
:1021A0001DC081E081833382228288279927DC0148
:1021B000821B930BA40BB50B84839583A683B783F3
:1021C0000DC0220F331F441F551F248335834683C0
:1021D0005783828193810197938382832481358100
:1021E00046815781DA01C9010197A109B1098F5FC1
:1021F0009F4FAF4FBF4328F30BC09183338222829E
:10220000EA0CFB1C0C1D1D1DE482F582068317835E
:1022100083E08083248135814681578157FF1AC02E
:10222000C901AA2797FDA095BA2F81709070A07060
:10223000B0705695479537952795822B932BA42BF5
:10224000B52B84839583A683B7838281938101967E
:1022500093838283DF0101C0D201CD01CDB7DEB708
:10226000E2E10C944717A0E2B0E0E9E3F1E10C945D
:10227000371769837A838B839C832D833E834F83B7
:102280005887E9E0EE2EF12CEC0EFD1ECE010196F2
:10229000B7010E9446168E010F5E1F4FCE010596B4
:1022A000B8010E9446168A8991E089278A8BC70166
:1022B000B801AE01475E5F4F0E94E70F0E947115A3
:1022C000A096E6E00C945317A0E2B0E0EAE6F1E154
:1022D0000C94371769837A838B839C832D833E8389
:1022E0004F835887F9E0EF2EF12CEC0EFD1ECE0146
:1022F0000196B7010E9446168E010F5E1F4FCE0158
:102300000596B8010E944616C701B801AE01475EA6
:102310005F4F0E94E70F0E947115A096E6E00C94B3
:102320005317A0E2B0E0E7E9F1E10C942B176983C1
:102330007A838B839C832D833E834F835887CE0182
:102340000196BE01675F7F4F0E944616CE0105963B
:10235000BE016F5E7F4F0E9446169985923088F0CD
:1023600089898230C8F0943019F4823051F404C065
:10237000843029F4923081F480E690E0C6C0923037
:1023800049F420E09A858A89981321E02A87CE01B2
:102390000996BBC0823049F420E09A858A89981357
:1023A00021E02A8BCE014196B0C02D843E844F841B
:1023B00058886D887E888F88988CEE24FF2487014A
:1023C000AA24BB24650140E050E060E070E0E0E05A
:1023D000F0E0C10181709070892BE9F0E60CF71CE8
:1023E000081D191D9A01AB012A0D3B1D4C1D5D1DD9
:1023F00080E090E0A0E0B0E0E614F70408051905DD
:1024000020F481E090E0A0E0B0E0BA01A901480F1B
:10241000591F6A1F7B1FAA0CBB1CCC1CDD1C97FE1E
:1024200008C081E090E0A0E0B0E0A82AB92ACA2A5A
:10243000DB2A3196E032F10549F0660C771C881CE6
:10244000991C5694479437942794C3CFFA85EA8908
:102450002B893C898B859C85280F391F2E5F3F4F28
:1024600017C0CA0181709070892B61F0169507958D
:10247000F794E79480E090E0A0E0B0E8E82AF92A39
:102480000A2B1B2B76956795579547952F5F3F4FE6
:1024900077FDE7CF0CC0440F551F661F771F17FD50
:1024A0004160EE0CFF1C001F111F215030404030D6
:1024B00090E0590790E0690790E4790760F32B8F6B
:1024C0003C8FDB01CA018F779070A070B0708034B0
:1024D0009105A105B10561F447FD0AC0E114F104BD
:1024E0000105110529F0405C5F4F6F4F7F4F407829
:1024F0001A8EFE1711F081E08A8F4D8F5E8F6F8FDD
:1025000078A383E0898FCE0149960E947115A09629
:10251000E2E10C944717A8E1B0E0E1E9F2E10C94A4
:10252000331769837A838B839C832D833E834F8308
:102530005887B9E0EB2EF12CEC0EFD1ECE01019672
:10254000B7010E9446168E010F5E1F4FCE01059601
:10255000B8010E9446162985223008F47EC03989C8
:10256000323010F4B8017CC08A859A8989278A871D
:10257000243011F0223031F4231709F06EC060E6E8
:1025800070E06EC0343039F41D861E861F86188AAE
:102590001C861B8604C0323021F484E08987B70191
:1025A0005FC02B853C858B899C89281B390B3C8718
:1025B0002B87ED84FE840F851889AD88BE88CF886F
:1025C000D88CEA14FB040C051D0540F4EE0CFF1C2E
:1025D000001F111F215030403C872B8720E030E046
:1025E00040E050E080E090E0A0E0B0E460E070E027
:1025F000EA14FB040C051D0540F0282B392B4A2B4F
:102600005B2BEA18FB080C091D09B695A795979551
:102610008795EE0CFF1C001F111F6F5F7F4F6F31FE
:10262000710531F7DA01C9018F779070A070B07031
:1026300080349105A105B10561F427FD0AC0E114BC
:10264000F1040105110529F0205C3F4F4F4F5F4F0A
:1026500020782D873E874F87588BBE01675F7F4F5D
:10266000CB010E9471156896EAE00C944F17A8E11F
:10267000B0E0EDE3F3E10C94371769837A838B8341
:102680009C832D833E834F83588789E0E82EF12C6D
:10269000EC0EFD1ECE010196B7010E9446168E017A
:1026A0000F5E1F4FCE010596B8010E944616898520
:1026B000823040F08989823028F0C701B8010E9439
:1026C000BE1601C08FEF6896E6E00C945317A8E1A0
:1026D000B0E0EDE6F3E10C94371769837A838B83DE
:1026E0009C832D833E834F83588789E0E82EF12C0D
:1026F000EC0EFD1ECE010196B7010E9446168E011A
:102700000F5E1F4FCE010596B8010E9446168985BF
:10271000823040F08989823028F0C701B8010E94D8
:10272000BE1601C08FEF6896E6E00C945317A8E13F
:10273000B0E0EDE9F3E10C94371769837A838B837A
:102740009C832D833E834F83588789E0E82EF12CAC
:10275000EC0EFD1ECE010196B7010E9446168E01B9
:102760000F5E1F4FCE010596B8010E94461689855F
:10277000823040F08989823028F0C701B8010E9478
:10278000BE1601C081E06896E6E00C945317A8E1FC
:10279000B0E0EDECF3E10C94371769837A838B8317
:1027A0009C832D833E834F83588789E0E82EF12C4C
:1027B000EC0EFD1ECE010196B7010E9446168E0159
:1027C0000F5E1F4FCE010596B8010E9446168985FF
:1027D000823040F08989823028F0C701B8010E9418
:1027E000BE1601C081E06896E6E00C945317A8E09D
:1027F000B0E0EDEFF3E10C9434179B01AC0183E002
:102800008983DA01C9018827B7FD83959927AA270B
:10281000BB27B82E211531054105510519F482E079
:1028200089833AC08823A9F0203080E0380780E00F
:10283000480780E8580729F460E070E080E09FECEA
:1028400030C0EE24FF248701E21AF30A040B150BB3
:1028500002C079018A018EE1C82ED12CDC82CB82A4
:10286000ED82FE820F831887C801B7010E942215EE
:1028700001971816190684F4082E04C0EE0CFF1CEC
:10288000001F111F0A94D2F7ED82FE820F83188772
:10289000C81AD90ADC82CB82BA82CE0101960E9484
:1028A00071152896E9E00C945017ACE0B0E0EBE528
:1028B000F4E10C943B1769837A838B839C83CE016C
:1028C0000196BE016B5F7F4F0E9446168D8182305C
:1028D00061F1823050F1843021F48E81882351F1EE
:1028E0002EC02F81388537FD20C06E812F313105F4
:1028F0001CF06623F9F023C08EE190E0821B930B5D
:1029000029853A854B855C8504C056954795379552
:1029100027958A95D2F76623B1F05095409530956A
:1029200021953F4F4F4F5F4F0EC020E030E040E019
:1029300050E009C02FEF3FEF4FEF5FE704C020E00A
:1029400030E040E050E8B901CA012C96E2E00C9476
:102950005717A8E0B0E0EFEAF4E10C9433177B01DD
:102960008C01611571058105910519F482E0898357
:1029700060C083E089838EE1C82ED12CDC82CB82BB
:10298000ED82FE820F831887C801B7010E942215CD
:10299000FC013197F7FF3BC0222733272E1B3F0B4B
:1029A00057016801022E04C0D694C794B794A79427
:1029B0000A94D2F740E050E060E070E081E090E0FF
:1029C000A0E0B0E004C0880F991FAA1FBB1F2A9582
:1029D000D2F70197A109B1098E219F21A023B1232C
:1029E0000097A105B10521F041E050E060E070E002
:1029F0004A295B296C297D294D835E836F83788703
:102A00008EE190E08E1B9F0B9C838B8312C03097CE
:102A100081F00E2E04C0EE0CFF1C001F111F0A9443
:102A2000D2F7ED82FE820F831887CE1ADF0ADC828E
:102A3000CB821A82CE0101960E9471152896EAE097
:102A40000C944F17EF92FF920F931F937B018C0111
:102A500080E0E81680E0F80681E0080780E01807CB
:102A600088F48FEFE816F1040105110531F028F024
:102A700088E090E0A0E0B0E017C080E090E0A0E047
:102A8000B0E012C080E0E81680E0F80680E00807B9
:102A900081E0180728F088E190E0A0E0B0E004C0F1
:102AA00080E190E0A0E0B0E020E230E040E050E0E3
:102AB000281B390B4A0B5B0B04C016950795F7943E
:102AC000E7948A95D2F7F701E859FF4F8081281BD8
:102AD000310941095109C9011F910F91FF90EF90F0
:102AE0000895DF92EF92FF920F931F93FC01E48011
:102AF000F58006811781D1808081823048F480E0A2
:102B000090E0A0E1B0E0E82AF92A0A2B1B2BA5C02F
:102B1000843009F49FC0823021F4EE24FF24870121
:102B200005C0E114F1040105110519F4E0E0F0E03D
:102B300096C0628173819FEF623879070CF05BC0A9
:102B400022E83FEF261B370B2A3131052CF020E01D
:102B500030E040E050E02AC0B801A701022E04C0D6
:102B600076956795579547950A94D2F781E090E05E
:102B7000A0E0B0E004C0880F991FAA1FBB1F2A95D0
:102B8000D2F70197A109B1098E219F21A023B1237A
:102B90000097A105B10521F081E090E0A0E0B0E050
:102BA0009A01AB01282B392B4A2B5B2BDA01C90187
:102BB0008F779070A070B07080349105A105B10539
:102BC00039F427FF09C0205C3F4F4F4F5F4F04C0CF
:102BD000215C3F4F4F4F5F4FE0E0F0E02030A0E03E
:102BE0003A07A0E04A07A0E45A0710F0E1E0F0E05D
:102BF00079018A0127C06038710564F5FB01E1584D
:102C0000FF4FD801C7018F779070A070B0708034EB
:102C10009105A105B10539F4E7FE0DC080E490E00F
:102C2000A0E0B0E004C08FE390E0A0E0B0E0E80EE8
:102C3000F91E0A1F1B1F17FF05C016950795F7946D
:102C4000E794319687E016950795F794E7948A956F
:102C5000D1F705C0EE24FF248701EFEFF0E06E2FDF
:102C6000679566276795902F9F77D794DD24D79433
:102C70008E2F8695492F462B582F5D29B701CA0103
:102C80001F910F91FF90EF90DF900895FC01DB0101
:102C9000408151812281622F6F7770E0221F2227AD
:102CA000221F9381892F880F822B282F30E0991FB4
:102CB0009927991F11969C93119721153105A9F514
:102CC000411551056105710511F482E037C082E8B4
:102CD0009FEF13969C938E9312979A01AB0167E036
:102CE000220F331F441F551F6A95D1F783E08C9341
:102CF0000DC0220F331F441F551F12968D919C91BA
:102D00001397019713969C938E931297203080E02F
:102D1000380780E0480780E4580758F314962D934D
:102D20003D934D935C93179708952F3F310579F4A8
:102D3000411551056105710519F484E08C930895DE
:102D400064FF03C081E08C9312C01C9210C02F5707
:102D5000304013963C932E93129783E08C9387E038
:102D6000440F551F661F771F8A95D1F7706414961C
:102D70004D935D936D937C93179708951F93DC019A
:102D8000FB019C91923008F447C08081823008F4A6
:102D900043C0943051F411961C91843099F581818F
:102DA000682F70E0611B71093FC0843021F09230C0
:102DB00031F48230B9F18181882389F12DC01196D7
:102DC0001C9111978230F1F081811817D9F4129675
:102DD0002D913C911397828193818217930794F0F0
:102DE00028173907BCF014968D919D910D90BC91D8
:102DF000A02D2481358146815781281739074A073C
:102E00005B0718F4112341F00AC082179307A40747
:102E1000B50740F4112319F061E070E005C06FEFD1
:102E20007FEF02C060E070E0CB011F910895AA1B04
:102E3000BB1B51E107C0AA1FBB1FA617B70710F0A5
:102E4000A61BB70B881F991F5A95A9F780959095D7
:102E5000BC01CD0108952F923F924F925F926F92E5
:102E60007F928F929F92AF92BF92CF92DF92EF921A
:102E7000FF920F931F93CF93DF93CDB7DEB7CA1B9B
:102E8000DB0B0FB6F894DEBF0FBECDBF09942A88C6
:102E9000398848885F846E847D848C849B84AA846E
:102EA000B984C884DF80EE80FD800C811B81AA81FB
:102EB000B981CE0FD11D0FB6F894DEBF0FBECDBFC6
:082EC000ED010895F894FFCF25
:102EC80000000000000000000001020203030303E9
:102ED80004040404040404040505050505050505A2
:102EE8000505050505050505060606060606060682
:102EF800060606060606060606060606060606066A
:102F08000606060606060606070707070707070751
:102F18000707070707070707070707070707070739
:102F28000707070707070707070707070707070729
:102F38000707070707070707070707070707070719
:102F48000707070707070707080808080808080801
:102F580008080808080808080808080808080808E9
:102F680008080808080808080808080808080808D9
:102F780008080808080808080808080808080808C9
:102F880008080808080808080808080808080808B9
:102F980008080808080808080808080808080808A9
:102FA8000808080808080808080808080808080899
:102FB8000808080808080808080808080808080889
:082FC8000808080808080808C1
:00000001FF
