:100000000C942A000C9447000C9447000C94470071
:100010000C9447000C9447000C9447000C94470044
:100020000C9447000C945F050C9447000C94470017
:100030000C9447000C9472030C94BF030C9447007B
:100040000C9499050C9447000C9447000C941B04E5
:100050000C94470011241FBECFE5D8E0DEBFCDBF12
:1000600010E0A0E6B0E0ECE8F0E202C005900D92EE
:10007000A237B107D9F711E0A2E7B0E001C01D92A5
:10008000AE32B107E1F70E9449000C94D60A0C94F5
:1000900000002F923F924F925F926F927F928F92C9
:1000A0009F92AF92BF92CF92DF92EF92FF920F9307
:1000B0001F93DF93CF9300D000D00F92CDB7DEB760
:1000C0001A8219821C821B82F8948FEF87BB88BB2F
:1000D0000E94680382E08FBD8AE18EBD1DBC1CBCFE
:1000E0008FE097E297BD86BD88E893E19BBD8ABD0E
:1000F00099BD88BD89B7837C846089BF18BE0E9482
:100100000F040E944806789440E161E080916F00FE
:100110000E94AE0442E362E080916F000E94AE0450
:1001200040E161E0809170000E94AE0442E362E031
:10013000809170000E94AE046624442440E8742E2E
:1001400055241E010894211C311C809194008823A1
:1001500011F4BB2406C01092940063945394BB2402
:10016000B39480918E00882309F472C010928E009F
:1001700080918A00813FB1F460918B0070E080E053
:1001800090E00E94780E20E030E048EC52E40E94BB
:10019000E40D20E030E040E85FE30E947B0DE62FB5
:1001A000692F11C080918A00803F29F4E0E070E05F
:1001B00080E060E008C0E0917E0070917F00809157
:1001C0008000609181002E2F372F482F562FC901B4
:1001D000DA0180937E0090937F00A0938000B0931B
:1001E000810080918A00813FB1F460918C0070E0C1
:1001F00080E090E00E94780E2BED3FE049E450E46F
:100200000E94830F20E030E044EB52E40E94E40DB2
:10021000E62F692F08C0E0917A0070917B008091F1
:100220007C0060917D002E2F372F482F562FC9015B
:10023000DA0180937A0090937B00A0937C00B093C6
:100240007D0071FE03C02DEF722202C082E0782A89
:1002500099E0961508F08FC089819A81883C9105B4
:1002600018F0272D2F7E02C0272D20618B819C81C5
:10027000883C910518F0922F9B7F02C0922F9460CA
:10028000042D10E0F801E159FF4F41E560E0808165
:100290009D830E94AE049D81E1E04E1641F493FFE0
:1002A00003C037EF732E07C028E0722E08C095FFF9
:1002B00004C08FED782E792203C0B0E27B2E792A1C
:1002C0000F5F1F4F442443944022C42CDD24860139
:1002D000000F111FA8014F5F5F4F420D531DFFE636
:1002E000EF2EF0E0FF2EEC0CFD1C62E0F7018081A8
:1002F0000E94F204020D131DA80163E0F701808142
:100300000E94F204E0907E00F0907F000091800057
:100310001091810020E030E040E050E0C801B701DA
:100320000E94E00D88232CF420E030E048E453ECF8
:1003300004C020E030E048E453E4C801B7010E9463
:10034000830F20E030E048EC52E40E947C0D2AE963
:1003500039E949E850E40E94E40D0E944C0E462F12
:100360004F5F8FE690E0C80ED91E62E0F6018081F3
:100370000E94AE046624BB2009F483C166E271E0EA
:100380008AE291E00E94A00669817A81693C710548
:1003900030F08B819C81893C910508F0B6C08B813F
:1003A0009C8168177907F0F1BC0180E090E00E9421
:1003B000780E7B018C0120E030E040EA51E40E949D
:1003C0007B0D20E030E044E353E40E94E40D2DEC8B
:1003D0003CEC4CEC5DE30E947C0D20917E00309162
:1003E0007F0040918000509181000E94830F6093B4
:1003F0008600709387008093880090938900A801FD
:10040000970160E070E088E493E40E947B0D20E0B7
:1004100030E044E353E40E94E40D2BED3FE049EC6F
:100420005FE33CC080E090E00E94780E7B018C018D
:1004300020E030E040EA51E40E947B0D20E030E013
:1004400044E353E40E94E40D2DEC3CEC4CEC5DE302
:100450000E947C0D20917E0030917F0040918000B1
:10046000509181000E94830F6093860070938700F3
:100470008093880090938900A801970160E070E064
:1004800088E493E40E947B0D20E030E044E353E4F1
:100490000E94E40D2BED3FE049EC5FEB0E94830FDF
:1004A0009B01AC0160917A0070917B0080917C008F
:1004B00090917D000E947C0D609382007093830078
:1004C0008093840090938500A0902601B09027012E
:1004D000C0902801D0902901E0902A01F0902B01D2
:1004E00000912C0110912D01209182003091830008
:1004F0004091840050918500609186007091870042
:10050000809188009091890020C0A0902601B09031
:100510002701C0902801D0902901E0902A01F09095
:100520002B0100912C0110912D0120917A00309126
:100530007B0040917C0050917D0060917E00709125
:100540007F008091800090918100E6E7F0E0FF93CA
:10055000EF93E2E78E2EE0E09E2E0E94BD070F9003
:100560000F908090720090907300A0907400B090F3
:10057000750020E030E040E050E0C501B4010E9489
:10058000E00D88232CF420E030E44CE156EC04C06C
:1005900020E030E44CE156E4C501B4010E94830F31
:1005A000E62F2E2F372F482F592FB901CA010E944D
:1005B000B50E0E944C0E7093AA006093A900C090E3
:1005C0007600D0907700E0907800F090790020E0FD
:1005D00030E040E050E0C701B6010E94E00D882302
:1005E0002CF420E030E44CE156EC04C020E030E490
:1005F0004CE156E4C701B6010E94830FE62F2E2F6F
:10060000372F482F592FB901CA010E94B50E0E94F9
:100610004C0E7093AC006093AB0020E030E040E003
:1006200050E0C501B4010E94E00D882314F412E0EB
:100630000CC010E020E030E040E050E0C501B40123
:100640000E947F0F18160CF411E01093AD0020E00B
:1006500030E040E050E0C701B6010E94E00D882381
:1006600014F412E00CC010E020E030E040E050E074
:10067000C701B6010E947F0F18160CF411E0109309
:10068000AF00872D809588BBF3E6F51508F05DCDAA
:100690008B819C819F938F9389819A819F938F9364
:1006A00080E690E09F938F93E2EDF0E0FF93EF936D
:1006B0000E94D90A82ED90E00E94E20355248DB792
:1006C0009EB708960FB6F8949EBF0FBE8DBF3DCD66
:1006D0001AB810BC87E689B91BB886E880BD88E9DE
:1006E0008AB908951F920F920FB60F9211248F931B
:1006F0009F93EF93FF938CB18093EB0080918F00D9
:10070000882329F45D9BFECF8091EB008CB980910A
:100710008D00813069F0813018F0823039F515C0D4
:100720008091EB00803F21F08091EB00813FF1F45C
:1007300080918D00E82FF0E09091EB00E657FF4F9D
:1007400090838F5F80938D0011C080918D00E82F82
:10075000F0E09091EB00E657FF4F90838F5F80931E
:100760008D0081E080938E0010928D00FF91EF91BB
:100770009F918F910F900FBE0F901F9018951F9211
:100780000F920FB60F9211248F93EF93FF93E09186
:10079000EC00F091ED008081882331F48FEF8CB96B
:1007A000559810928F0006C081918CB9F093ED009E
:1007B000E093EC00FF91EF918F910F900FBE0F909F
:1007C0001F9018955D9BFECF9093ED008093EC00F9
:1007D00081E080938F008EEF8CB9559A08955D9BD0
:1007E000FECF8CB908955F9BFECF8CB1089520E0B9
:1007F00030E005C05D9BFECFECB92F5F3F4FFC01A1
:10080000E20FF31FE081EE2321F041E020303407B6
:1008100089F7089501C08CB15F99FDCF08958FEFDE
:1008200084BB15BA80E886BF82E180B981E081B9D6
:100830008093710008951F920F920FB60F921124AA
:100840002F933F935F936F937F938F939F93AF9378
:10085000BF93EF93FF9321B18091900090E00196B8
:1008600068E270E00E94E60F982F80939000E82FD6
:10087000F0E0E250FF4F3081287F283201F1293229
:1008800070F4203101F1213120F4283009F056C0F4
:100890001AC02831A1F0203209F050C03EC02834DF
:1008A000E1F1293430F4203351F0203409F046C00E
:1008B0001DC0203551F0283509F040C006C03F3F2B
:1008C000A1F13E3FC9F133B917C0E0919200F0E0C9
:1008D0003196E770F070E093920083B1EE0FFF1F46
:1008E000E251FF4F0190F081E02D80833F3FE9F01E
:1008F0003E3F11F13C3F11F485E81FC085EC1DC05F
:10090000892F90E0019668E270E00E94E60F982F30
:10091000E82FF0E0E250FF4F3081832F8E5F82306E
:1009200078F7909390003F3F29F481E08093710025
:1009300084E903C03E3F11F485EA86BFFF91EF9141
:10094000BF91AF919F918F917F916F915F913F91F7
:100950002F910F900FBE0F901F9018951F93382F57
:10096000162FF8948091910090E0FC01E250FF4F27
:100970002EEF2083019668E270E00E94E60F90E07F
:10098000FC01E250FF4F30837894019668E270E0FA
:100990000E94E60F90E0FC01E250FF4F10830196A9
:1009A00068E270E00E94E60F90E0FC01E250FF4F29
:1009B0004083019668E270E00E94E60F8093910008
:1009C000E82FF0E0E250FF4F8FEF8083F8948091A2
:1009D0007100882311F085EA86BF10927100789427
:1009E0001F910895EF92FF921F93382F162F7A01CF
:1009F000F8948091910090E0FC01E250FF4F2EEFBF
:100A00002083019668E270E00E94E60F90E0FC010E
:100A1000E250FF4F30837894019668E270E00E94C4
:100A2000E60F90E0FC01E250FF4F1083019668E270
:100A300070E00E94E60F90E0FC01E250FF4F20833F
:100A4000019668E270E00E94E60F90E0FC01E2503F
:100A5000FF4F31603083019668E270E00E94E60F3C
:100A600090E0FC01E250FF4F2CEF2083019668E2FA
:100A700070E00E94E60FE82F80939100F0E0E250D2
:100A8000FF4F8FEF8083E0919300F0E03196E770A5
:100A9000F070E0939300EE0FFF1FE251FF4FF182E1
:100AA000E082F89480917100882311F085EA86BF76
:100AB0001092710078941F91FF90EF9008951F920B
:100AC0000F920FB60F9211242F933F934F938F9352
:100AD0009F9381E0809394008091B1008823F9F482
:100AE0008091A9009091AA0099BD88BD8091AB002A
:100AF0009091AC009BBD8ABD42B38091AF009091B4
:100B0000B0002091AD003091AE008295880F880F23
:100B1000807C220F220F822B4373842B82BB9F91F8
:100B20008F914F913F912F910F900FBE0F901F907B
:100B300018951F920F920FB60F9211242F933F9387
:100B40004F935F936F937F938F939F9387B1813080
:100B500031F54091950050919600CA9903C021E06B
:100B600030E002C02FEF3FEF84B195B1BC01269F6A
:100B7000C001279F900D369F900D1124840F951F63
:100B800090939600809395008091990090919A009F
:100B9000019690939A008093990017B826C04091CF
:100BA000970050919800CB9903C021E030E002C03B
:100BB0002FEF3FEF84B195B1BC01269FC001279F65
:100BC000900D369F900D1124840F951F90939800DF
:100BD0008093970080919B0090919C000196909348
:100BE0009C0080939B0081E087B99F918F917F91BA
:100BF0006F915F914F913F912F910F900FBE0F908A
:100C00001F901895FC01DB011182108211961C9235
:100C10001E921092940090E0809194008823E1F35A
:100C2000109294009F5F983CB8F340E051E017B8F1
:100C3000369A3699FECF24B135B180819181820FE9
:100C4000931F9183808357B9369A3699FECF24B18A
:100C500035B18D919C911197820F931F11969C93A2
:100C60008E934F5F403219F78081918135E09695E0
:100C700087953A95E1F7918380838D919C911197A7
:100C800025E0969587952A95E1F78D939C93089595
:100C900080E18ABB1BBA80B78F7180BF17B887E924
:100CA00086B98FEF81BB12BA82EA8FBD8AE18EBD11
:100CB0001DBC1CBC8FE097E297BD86BD1BBC1ABC57
:100CC00019BC18BC89B7837C846089BF18BE81E0D9
:100CD0008093B1007894DC9A82B38373846482BB7E
:100CE00063EA70E08DE990E00E9402068BB31BBAC4
:100CF00082B3837382BB65EA70E08FE990E00E9463
:100D00000206DC9A82B38373886882BB67EA70E06C
:100D100081EA90E00E940206DC9810929400F89418
:100D20001092B10082EA8FBD80EF8ABBDC9817B8C1
:100D30008FEF86B980B78F7080BF81E087B9089543
:100D40002F923F924F925F926F927F928F929F92DB
:100D5000AF92BF92CF92DF92EF92FF920F931F93C9
:100D6000CF93DF932C011B01F89460919500709153
:100D70009600E0909900F0909A00882777FD809582
:100D8000982F0E947A0E5B016C010027F7FC0095FA
:100D9000102FC801B7010E947A0E9B01AC01C60159
:100DA000B5010E94E40D3B014C01609197007091E8
:100DB0009800E0909B00F0909C00882777FD80953C
:100DC000982F0E947A0E5B016C010027F7FC0095BA
:100DD000102FC801B7010E947A0E9B01AC01C60119
:100DE000B5010E94E40D5B016C0110929600109217
:100DF000950010929A00109299001092980010920B
:100E0000970010929C0010929B007894C0919F00D4
:100E1000D091A000BE0180E090E00E94780E7B019E
:100E20008C019B01AC01C401B3010E947F0F882398
:100E30006CF0A8019701C401B3010E947B0D7B01F6
:100E40008C0160919D0070919E0019C0A8019701CE
:100E5000C401B3010E94E00D18162CF4E0E070E02C
:100E600080E060E01AC0A8019701C401B3010E94AC
:100E70007B0D7B018C016091A1007091A2006C1B25
:100E80007D0B80E090E00E94780E9B01AC01C801D0
:100E9000B7010E94E40DE62F692F2E2F372F482F20
:100EA000562FC901DA01F20180839183A283B383B3
:100EB0008090A5009090A600B40180E090E00E9490
:100EC000780E7B018C019B01AC01C601B5010E942B
:100ED0007F0F88236CF0A8019701C601B5010E941D
:100EE0007B0D7B018C016091A3007091A40019C05F
:100EF000A8019701C601B5010E94E00D18162CF457
:100F0000E0E070E080E060E01AC0A8019701C6014F
:100F1000B5010E947B0D7B018C016091A70070914F
:100F2000A8006819790980E090E00E94780E9B0182
:100F3000AC01C801B7010E94E40DE62F692F2E2FE6
:100F4000372F482F562FC901DA01F1018083918391
:100F5000A283B383DF91CF911F910F91FF90EF9008
:100F6000DF90CF90BF90AF909F908F907F906F90C9
:100F70005F904F903F902F9008952F923F924F9205
:100F80005F926F927F928F929F92AF92BF92CF9219
:100F9000DF92EF92FF920F931F93DF93CF93CDB722
:100FA000DEB760970FB6F894DEBF0FBECDBF6F837C
:100FB000788789879A872B873C874D875E872701AB
:100FC0003801988A8F8620E030E040E85FE3C8016E
:100FD000B7010E947F0F18165CF40F2EF0E04F2E21
:100FE000F0E05F2EF0E86F2EFFE37F2EF02D14C0AF
:100FF00020E030E040E85FEBC801B7010E94E00D5F
:10100000882354F40F2EF0E04F2EF0E05F2EF0E82E
:101010006F2EFFEB7F2EF02D20E030E040E85FE305
:10102000C601B5010E947F0F18165CF40F2EF0E088
:10103000AF2EF0E0BF2EF0E8CF2EFFE3DF2EF02D35
:1010400014C020E030E040E85FEBC601B5010E942B
:10105000E00D882354F40F2EF0E0AF2EF0E0BF2E09
:10106000F0E8CF2EFFEBDF2EF02DE090C600F090E1
:10107000C7000091C8001091C900E092C200F09230
:10108000C3000093C4001093C500A3019201C601E0
:10109000B5010E947B0D2AE132E646E850E40E9449
:1010A000830F6B837C838D839E836093C6007093D4
:1010B000C7008093C8009093C900A3019201C601A4
:1010C000B5010E947C0D20E030E040E05FE30E942B
:1010D000830F3B014C016093BE007093BF0080936F
:1010E000C0009093C100A80197016B817C818D8124
:1010F0009E810E947C0D2AE037ED43E25BE30E9473
:10110000830F2091CE003091CF004091D0005091BC
:10111000D1000E947C0D7B018C012BED3FE049EC5E
:1011200050E40E947F0F18164CF42BED3FE049EC81
:1011300050E4C801B7010E947B0D12C020E030E0EE
:1011400040E050E0C801B7010E94E00D882354F44C
:101150002BED3FE049EC50E4C801B7010E947C0D43
:101160007B018C01E092CE00F092CF000093D00082
:101170001093D1002BED3FE049E450E4C801B701E2
:101180000E947C0D9B01AC016B857C858D859E85C5
:101190000E947F0F88235CF02BED3FE049EC50E488
:1011A0006B857C858D859E850E947B0D1CC02BEDFB
:1011B0003FE049E450E4C801B7010E947B0D9B0168
:1011C000AC016B857C858D859E850E94E00D18168F
:1011D00074F02BED3FE049EC50E46B857C858D8508
:1011E0009E850E947C0D6B877C878D879E87A801DA
:1011F00097016B857C858D859E850E947B0D5B01AB
:101200006C016093CA007093CB008093CC009093E4
:10121000CD0028EE31EB49E750ECC401B3010E9448
:10122000830F7B018C0124EF38ED4CE950E46F8192
:10123000788589859A850E94830F9B01AC01C8013E
:10124000B7010E947C0D3B014C0121E237EA44E9E1
:101250005FE3C601B5010E94830F7B018C0128E189
:1012600037EA44E15FEB6B817C818D819E810E9436
:10127000830F9B01AC01C801B7010E947C0D5B018B
:101280006C0120E030E040E050E00E947F0F87FFDB
:1012900003C00FEF1FEF02C001E010E01093B50094
:1012A0000093B40020E030E040E050E0C401B3011E
:1012B0000E947F0F87FF05C02FEF3FEF3A832983FE
:1012C00004C081E090E09A838983A981BA81B093B8
:1012D000B300A093B200B801882777FD8095982FBE
:1012E0000E947A0E1B012C01A60195010E94830F1A
:1012F0007B018C0120E030E040E85FE30E947F0F3B
:1013000018161CF46201510114C02DEC3CEC4CE4A5
:101310005DE3C801B7010E94E00D181654F00F2ECE
:10132000F0E0AF2EF0E0BF2EF0E0CF2EF0E0DF2EA9
:10133000F02DA092B600B092B700C092B800D09243
:10134000B900E981FA81BF01882777FD8095982F40
:101350000E947A0E7B018C01A40193010E94830FED
:1013600020E030E040E85FE30E947F0F181614F49D
:1013700037014801A6019501C201B1010E94830F06
:101380009B01AC0160E070E080E89FE30E947B0D70
:101390001B012C01A4019301C801B7010E94830F16
:1013A000A20191010E947F0F181644F4A20191013D
:1013B000C801B7010E94830F3B014C016092BA0043
:1013C0007092BB008092BC009092BD00A601950176
:1013D000C401B3010E947C0DADA1BEA16D937D93AC
:1013E0008D939C931397A6019501C401B3010E94AC
:1013F0007B0DEF85F8896083718382839383ADA130
:10140000BEA1ED90FD900D911C9124EA30E74DE7CF
:101410005FE3C801B7010E947F0F18165CF40F2E1E
:10142000F4EAEF2EF0E7FF2EFDE70F2FFFE31F2F6B
:10143000F02D14C024EA30E74DE75FEBC801B70197
:101440000E94E00D882354F40F2EF4EAEF2EF0E70B
:10145000FF2EFDE70F2FFFEB1F2FF02DEDA1FEA1BB
:10146000E082F18202831383AF85B889ED90FD900D
:101470000D911C9124EA30E74DE75FE3C801B70105
:101480000E947F0F18165CF40F2EF4EAEF2EF0E79F
:10149000FF2EFDE70F2FFFE31F2FF02D14C024EACE
:1014A00030E74DE75FEBC801B7010E94E00D8823EC
:1014B00054F40F2EF4EAEF2EF0E7FF2EFDE70F2F86
:1014C000FFEB1F2FF02DEF85F889E082F182028378
:1014D0001383ADA1BEA1ED90FD900D911C912AE06A
:1014E00037ED43E25CEBC801B7010E947F0F18168D
:1014F000A4F42AE037ED43E25CE3C801B7010E949F
:10150000E00D882354F40F2EF0E0EF2EF0E0FF2ED4
:10151000F0E00F2FF0E01F2FF02DEDA1FEA1E082F3
:10152000F18202831383AF85B889ED90FD900D9110
:101530001C912AE037ED43E25CEBC801B7010E9441
:101540007F0F1816A4F42AE037ED43E25CE3C801EC
:10155000B7010E94E00D882354F40F2EF0E0EF2E27
:10156000F0E0FF2EF0E00F2FF0E01F2FF02DEF85C1
:10157000F889E082F1820283138360960FB6F894B3
:10158000DEBF0FBECDBFCF91DF911F910F91FF90B6
:10159000EF90DF90CF90BF90AF909F908F907F9013
:1015A0006F905F904F903F902F900895F8940C9417
:1015B0004410AEE0B0E0EFEDFAE00C9407100D89B6
:1015C0001E8986E08C831A8309838FEF9FE79E83B1
:1015D0008D83CE014996AC016F89788DCE0101963D
:1015E0000E94FC0A2F813885020F131FF801108218
:1015F0002E96E4E00C942310ABE0B0E0E2E0FBE0D8
:101600000C94F90F3C012B015A01FC011782168240
:10161000838181FD03C06FEF7FEFC8C19AE0892EFF
:101620001E010894211C311CF3012381F20123FDCA
:10163000859123FF81912F01882309F4B4C185325C
:1016400039F423FD859123FF81912F01853229F4FF
:10165000B30190E00E94F10CE7CF982FDD24CC2459
:101660009924FFE1FD15D0F09B3269F09C3228F4FB
:10167000903259F0933291F40EC09D3249F090337C
:1016800069F441E024C052E0D52A84E0D82A28C079
:1016900098E0D92A25C0E0E1DE2A22C0D7FC29C083
:1016A000892F80538A3070F4D6FE05C0989C902C08
:1016B0001124980E15C0C89CC02C1124C80EF0E24D
:1016C000DF2A0EC09E3229F4D6FC6DC140E4D42A34
:1016D00007C09C3619F450E8D52A02C0983649F460
:1016E000F20123FD959123FF91912F01992309F098
:1016F000B8CF892F8554833018F08052833038F466
:1017000044E050E0A40EB51E5FE359830FC093364A
:1017100031F0933779F0933509F056C020C0F501C8
:101720008081898342E050E0A40EB51E710101E082
:1017300010E012C0F501E080F180D6FC03C06FEF2D
:101740007FEF02C0692D70E042E050E0A40EB51EAC
:10175000C7010E94E60C8C015FE7D52214C0F50199
:10176000E080F180D6FC03C06FEF7FEF02C0692DEF
:1017700070E042E050E0A40EB51EC7010E94DB0CF1
:101780008C0150E8D52AD3FE07C01AC0B30180E20D
:1017900090E00E94F10CCA948C2D90E00817190774
:1017A000A8F30EC0F701D7FC8591D7FE81917F0188
:1017B000B30190E00E94F10CC110CA940150104096
:1017C0000115110579F7ECC0943611F0993671F5D1
:1017D000D7FE08C0F501E080F1800281138144E06A
:1017E00050E00AC0F501808191817C010027F7FC5F
:1017F0000095102F42E050E0A40EB51E5FE6D52202
:1018000017FF0AC010950095F094E094E11CF11CBC
:10181000011D111D80E8D82A2AE030E0A101C8018D
:10182000B7010E941D0DF82EF21840C0953729F41B
:101830001D2D1F7E2AE030E01DC01D2D197F9F3613
:1018400061F0903720F4983509F0ADC00FC09037A3
:1018500039F0983709F0A7C004C028E030E00AC08A
:10186000106114FD146020E130E004C014FD166026
:1018700020E132E017FF08C0F501608171818281AB
:10188000938144E050E008C0F50180819181BC0162
:1018900080E090E042E050E0A40EB51EA1010E945D
:1018A0001D0DF82EF2188FE7D82ED122D6FE0BC0D0
:1018B0005EEFD522F91438F4D4FE07C0D2FC05C07F
:1018C0008FEED82202C01F2D01C0192DD4FE0DC0ED
:1018D000FE01EF0DF11D8081803319F499EED922BC
:1018E00008C01F5FD2FE05C003C08D2D867809F0A9
:1018F0001F5F0D2DD3FC14C0D0FE0FC01C1510F0BF
:101900009F2C0BC09F2C9C0C911A1C2D06C0B30160
:1019100080E290E00E94F10C1F5F1C15C0F304C030
:101920001C1510F4C11A01C0CC2404FF10C0B3016F
:1019300080E390E00E94F10C02FF1EC001FD03C095
:1019400088E790E002C088E590E0B3010CC0802FEA
:10195000867891F001FF02C08BE201C080E2D7FCE3
:101960008DE2B30190E00E94F10C06C0B30180E368
:1019700090E00E94F10C9A94F914C0F3FA94F101EA
:10198000EF0DF11DB301808190E00E94F10CFF206A
:10199000A9F706C0B30180E290E00E94F10CCA945E
:1019A000CC20C1F741CEF30166817781CB012B9624
:1019B000E2E10C941510FC0105906150704001109B
:1019C000D8F7809590958E0F9F1F0895FC01615068
:1019D000704001900110D8F7809590958E0F9F1F51
:1019E00008950F931F93CF93DF938C01EB018B81AD
:1019F00081FF1BC082FF0DC02E813F818C819D81A4
:101A00002817390764F4E881F9810193F983E883A1
:101A100006C0E885F985802F0995892B31F48E81E0
:101A20009F8101969F838E8302C00FEF1FEFC80135
:101A3000DF91CF911F910F910895FA01AA272830C5
:101A400051F1203181F1E8946F936E7F6E5F7F4F8B
:101A50008F4F9F4FAF4FB1E03ED0B4E03CD0670F07
:101A6000781F891F9A1FA11D680F791F8A1F911D5A
:101A7000A11D6A0F711D811D911DA11D20D009F4AA
:101A800068943F912AE0269F11243019305D3193EC
:101A9000DEF6CF010895462F4770405D4193B3E0D5
:101AA0000FD0C9F7F6CF462F4F70405D4A3318F07C
:101AB000495D31FD4052419302D0A9F7EACFB4E02D
:101AC000A6959795879577956795BA95C9F70097E5
:101AD0006105710508959B01AC010A2E0694579586
:101AE000479537952795BA95C9F7620F731F841FDD
:101AF000951FA01D08955058BB27AA270ED0AEC130
:101B00009FD130F0A4D120F031F49F3F11F41EF4A6
:101B100094C10EF4E095E7FB5FC1E92FB0D180F3EB
:101B2000BA17620773078407950718F071F49EF5DA
:101B3000DFC10EF4E0950B2EBA2FA02D0B01B901D9
:101B400090010C01CA01A0011124FF27591B99F033
:101B5000593F50F4503E68F11A16F040A22F232F3F
:101B6000342F4427585FF3CF469537952795A7958F
:101B7000F0405395C9F77EF41F16BA0B620B730B36
:101B8000840BBAF09150A1F0FF0FBB1F661F771FA7
:101B9000881FC2F70EC0BA0F621F731F841F48F45C
:101BA000879577956795B795F7959E3F08F0B3CFE2
:101BB0009395880F08F09927EE0F979587950895CC
:101BC000E7D008F481E008950CD048C140D140F03E
:101BD00037D130F021F45F3F19F0FEC0511189C1B7
:101BE0002CC14DD198F39923C9F35523B1F3951B1B
:101BF000550BBB27AA2762177307840738F09F5F2E
:101C00005F4F220F331F441FAA1FA9F333D00E2E9C
:101C10003AF0E0E830D091505040E695001CCAF709
:101C200029D0FE2F27D0660F771F881FBB1F2617CE
:101C300037074807AB07B0E809F0BB0B802DBF01A1
:101C4000FF2793585F4F2AF09E3F510568F0C4C0AC
:101C500050C15F3FECF3983EDCF38695779567952E
:101C6000B795F7959F5FC9F7880F911D9695879552
:101C700097F90895E1E0660F771F881FBB1F621771
:101C800073078407BA0720F0621B730B840BBA0B2F
:101C9000EE1F88F7E0950895FAD088F09F5790F0EE
:101CA000B92F9927B751A0F0D1F0660F771F881F81
:101CB000991F1AF0BA95C9F712C0B13081F018D146
:101CC000B1E0089515C1672F782F8827B85F39F0E4
:101CD000B93FCCF3869577956795B395D9F73EF4E0
:101CE00090958095709561957F4F8F4F9F4F089588
:101CF000E89409C097FB3EF49095809570956195A6
:101D00007F4F8F4F9F4F9923A9F0F92F96E9BB275B
:101D10009395F695879577956795B795F111F8CFD7
:101D2000FAF4BB0F11F460FF1BC06F5F7F4F8F4F42
:101D30009F4F16C0882311F096E911C0772321F038
:101D40009EE8872F762F05C0662371F096E8862FD0
:101D500070E060E02AF09A95660F771F881FDAF727
:101D6000880F9695879597F90895ABD080F09F37A7
:101D700040F491110EF0BDC060E070E080E89FEB90
:101D8000089526F41B16611D711D811D2BC045C0D1
:101D9000990F0008550FAA0BE0E8FEEF161617067C
:101DA000E807F907C0F012161306E407F50798F0E4
:101DB000621B730B840B950B39F40A2661F0232BFD
:101DC000242B252B21F408950A2609F4A140A69579
:101DD0008FEF811D811D089597F99F6780E870E05E
:101DE00060E00895882371F4772321F09850872BC1
:101DF000762F07C0662311F499270DC09051862BCA
:101E000070E060E02AF09A95660F771F881FDAF776
:101E1000880F9695879597F908959F3F49F09150BF
:101E200028F4869577956795B7959F5F80389F4F83
:101E3000880F9695879597F908959FEF80EC089500
:101E400000240A9416161706180609060895002499
:101E50000A9412161306140605060895092E039413
:101E6000000C11F4882352F0BB0F40F4BF2B11F487
:101E700060FF04C06F5F7F4F8F4F9F4F089557FDE6
:101E80009058440F551F59F05F3F71F04795880FE8
:101E900097FB991F61F09F3F79F08795089512167F
:101EA00013061406551FF2CF4695F1DF08C016162B
:101EB00017061806991FF1CF8695710561050894DC
:101EC0000895E5DFA0F0BEE7B91788F4BB279F3877
:101ED00060F41616B11D672F782F8827985FF7CF0B
:101EE000869577956795B11D93959639C8F30895B2
:101EF000E894BB2766277727CB0197F9089548DF39
:101F000008F48FEF08950BD0A9CF9ADF28F09FDF58
:101F100018F0952309F060CF90CF1124EACFAFDFFE
:101F2000A0F3959FD1F3950F50E0551F629FF001EC
:101F3000729FBB27F00DB11D639FAA27F00DB11D45
:101F4000AA1F649F6627B00DA11D661F829F2227CE
:101F5000B00DA11D621F739FB00DA11D621F839F55
:101F6000A00D611D221F749F3327A00D611D231F2B
:101F7000849F600D211D822F762F6A2F11249F5779
:101F800050408AF0E1F088234AF0EE0FFF1FBB1F9C
:101F9000661F771F881F91505040A9F79E3F51053B
:101FA00070F01ACFA6CF5F3FECF3983EDCF3869536
:101FB00077956795B795F795E7959F5FC1F7FE2BE6
:101FC000880F911D9695879597F9089597FB092E8F
:101FD00007260AD077FD04D043D006D000201AF49B
:101FE000709561957F4F0895F6F7909581959F4F75
:101FF00008952F923F924F925F926F927F928F92AD
:102000009F92AF92BF92CF92DF92EF92FF920F9387
:102010001F93CF93DF93CDB7DEB7CA1BDB0B0FB691
:10202000F894DEBF0FBECDBF09942A88398848884E
:102030005F846E847D848C849B84AA84B984C884E4
:10204000DF80EE80FD800C811B81AA81B981CE0FDB
:10205000D11D0FB6F894DEBF0FBECDBFED010895C0
:10206000AA1BBB1B51E107C0AA1FBB1FA617B707BE
:1020700010F0A61BB70B881F991F5A95A9F78095DA
:0C2080009095BC01CD010895F894FFCFAD
:10208C00473D2535752020443D253575202000E041
:02209C00E2015F
:00000001FF
